:020000040800F2
:10000000A85100246D0300086B5C0008915700089C
:10001000695C0008A90500081369000800000000D9
:10002000000000000000000000000000AD02000819
:10003000950600080000000009030008155F00088D
:100040008703000887030008870300088703000868
:100050008703000887030008870300088703000858
:10006000870300088703000887030008AD05000820
:100070008703000887030008870300088703000838
:100080008703000887030008870300088703000828
:100090008703000887030008870300088703000818
:1000A0008703000887030008870300088703000808
:1000B00025610008870300088703000887030008FC
:1000C00087030008870300088703000887030008E8
:1000D00087030008870300088703000887030008D8
:1000E000870300088703000800000000870300085A
:1000F00087030008870300088703000887030008B8
:1001000087030008870300088703000887030008A7
:100110008703000887030008870300088703000897
:100120008703000887030008870300088703000887
:100130008703000887030008870300088703000877
:1001400000000000000000000000000000000000AF
:100150008703000887030008870300088703000857
:100160008703000887030008870300088703000847
:100170008703000887030008870300088703000837
:100180008703000887030008870300088703000827
:100190008703000887030008870300088703000817
:1001A0008703000887030008870300088703000807
:1001B00087030008870300088703000887030008F7
:1001C00087030008870300088703000887030008E7
:1001D00087030008870300088703000887030008D7
:1001E00087030008870300088703000887030008C7
:1001F00087030008870300088703000887030008B7
:1002000087030008870300088703000887030008A6
:100210008703000887030008870300088703000896
:100220008703000887030008870300080000000018
:100230008703000887030008000000008703000808
:100240008703000887030008870300088703000866
:100250008703000887030008870300088703000856
:100260008703000887030008870300088703000846
:1002700087030008870300088703000800000000C8
:1002800087030008870300088703000800000000B8
:100290000000000087030008DFF80CD000F0ECF845
:1002A0000048004733690008A85100242C4B196806
:1002B0000868B0E8F04F80F30988BFF36F8F4FF004
:1002C000000080F3118870470000000008480068B3
:1002D000006880F308884FF0000080F3148862B64D
:1002E00061B6BFF34F8FBFF36F8F00DF00BF00BF5A
:1002F00008ED00E0DFF80C00016841F470010160D6
:10030000704700BF88ED00E0EFF30980BFF36F8F07
:10031000134B1A681EF0100F08BF20ED108A20E959
:10032000F04F106009B44FF0500080F31188BFF314
:100330004F8FBFF36F8F07F0CBF94FF0000080F3C2
:10034000118809BC19680868B0E8F04F1EF0100F5A
:1003500008BFB0EC108A80F30988BFF36F8F704735
:1003600024000024EFF30580704700000648804712
:1003700006480047FEE7FEE7FEE7FEE7FEE7FEE78A
:10038000FEE7FEE7FEE7FEE72160000899020008AD
:100390002DE9F05F0546002092469B4688460646BA
:1003A000814640241BE0284641464746224600F04D
:1003B00053F853465A46C01A914110D31146184675
:1003C000224600F03AF82D1A67EB01084F46224604
:1003D0000120002100F031F817EB00094E41201EEA
:1003E000A4F10104DFDC484631462A464346BDE815
:1003F000F09F40EA01039B0703D009E008C9121FE0
:1004000008C0042AFAD203E011F8013B00F8013BCE
:10041000521EF9D27047D2B201E000F8012B491EFA
:10042000FBD270470022F6E710B513460A46044691
:100430001946FFF7F0FF204610BD202A04DB203AC2
:1004400000FA02F1002070479140C2F1200320FA27
:1004500003F3194390407047202A04DB203A21FA25
:1004600002F00021704721FA02F3D040C2F12002CD
:100470009140084319467047064C074D06E0E06876
:1004800040F0010394E8070098471034AC42F6D3DB
:10049000FFF706FFD4850008F485000870B53B49D6
:1004A0000546006888421CBF394A904205D1D1F800
:1004B000080310F4403F06D115E03648D0F8080391
:1004C00010F4403F0FD003F0C5FF04466868B0F554
:1004D000803F14BFB0F5003F000C1CD0B0F5403F8A
:1004E00008BFA40823E000214FF4002002F036FEEC
:1004F000044668688103890B19D180140C2816D230
:10050000DFE800F0150606060606060C0E101214AB
:100510006868800C4000B4FBF0F408E0240906E0B1
:10052000640904E0A40902E0E40900E0240A01F0FF
:100530000FFF41F20301884208D81748A0422868FB
:10054000816828BF21F4807112D20FE0134960083E
:10055000884204D82868816821F4407108E0104975
:10056000884207D82868816821F4407141F480717D
:10057000816070BD0B498842286881689ABF21F468
:10058000407141F4007141F44071F1E700200240F4
:100590000021024000600258002D3101105E5F0012
:1005A00020BCBE0040787D01FEE70000014800F05D
:1005B000F7BC000008010024244A016891421CBFD6
:1005C000234A91422CD0234A91421CBF224A914295
:1005D00026D0224A91421CBF214A914220D0214A72
:1005E00091421CBF204A91421AD0204A91421CBF1E
:1005F0001F4A914214D01F4A91421CBF1E4A914289
:100600000ED01E4A91421CBF1D4A914208D01D4A7D
:1006100091421FBF1C4A914221F0FF01816512D116
:100620001A4ACBB2A3F110036FF30901A2FB033204
:100630004FEA1212032A02F00703154AD25CC26580
:1006400088BF091D81650846704700001000024000
:100650002800024040000240580002407000024062
:1006600088000240A0000240B8000240100402408E
:100670002804024040040240580402407004024032
:1006800088040240A0040240B8040240ABAAAAAA0F
:1006900004850008704772B6FEE700002DE9F001FE
:1006A00090F85020002599B0012A01BF022019B00E
:1006B000BDE8F00170474FF0000C012280F8502097
:1006C000CDF854C0344BCDF858C002689A4218D1C6
:1006D000324C0094A668926812F0040FC6F38002B0
:1006E00008BF002A19D0416D4FF0010541F02001EB
:1006F000C0F8541080F850C019B02846BDE8F00189
:100700007047416D80F850C041F02001416519B03B
:100710004FF00100BDE8F0017047214A214E0F68FB
:100720000FB3D2F808804F6828F4404848EA07071A
:10073000976007689F4211BFA7429C68D3F80831B1
:10074000234318BFB36813F0010FD3D10B68896836
:10075000946843EA010124F01F0323F4706341EA23
:1007600003019160C6E7916821F4404191600168FE
:10077000994219BFA142B1689968D3F8083108BFFE
:10078000194311F0010F02BF916821F01F0121F4FC
:100790007061AFD1E5E70000002002400021024077
:1007A00000230240006002582DE9F00F84B00025BC
:1007B000AC46019590F85020012A01BF022004B0F8
:1007C000BDE8F00F7047012380F85030026894684C
:1007D00014F0040F0DD0416D4FF0010C41F02001D9
:1007E000C0F8541080F8505004B06046BDE8F00FD7
:1007F00070470C68D66927033F0B1ABF94FAA4F41C
:10080000B4FA84F4C4F3846404F01F0403FA04F417
:100810003443D461D1E900720C2406684FF01F08FC
:1008200004EA921902F01F0409EB0602C7F384667A
:1008300008FA04F706FA04F4166BBE433443146353
:100840000268042407269768D2F80890C7F3800846
:10085000C9F3C00758EA070762D10F68D1F80880CA
:1008600004EAD759C7F304574A4406FA07F908FAC5
:1008700007F7D2F8148028EA090848EA0707576101
:10088000E54A126802F07042B2F1805F026848D017
:10089000D768D26817F0100F4F6907BFC2F3820202
:1008A000520002F01002520807FA02F20F69042FF8
:1008B0003FD0D0F80090D1F8008009EB870708F00E
:1008C000F849D7F8608049EA020208F0004848EA8F
:1008D00002023A664F7E0268D1F81080012F0CBFE9
:1008E0004FF00047002702EB8802D2F8608028F022
:1008F000004848EA070717660F7E0268D1F81080A3
:10090000012F0CBF4FF400670027D2F8109008F0B9
:100910001F0807FA08F729F4F04848EA07071761A3
:100920003BE04F69D268C2F38202520007FA02F23A
:10093000BCE702680F78D2F8608008F0F848B8EB9E
:10094000876F03D1176E27F00047176602680F788C
:10095000D2F8648008F0F848B8EB876F03D1576E7F
:1009600027F00047576602680F78D2F8688008F0D1
:10097000F848B8EB876F03D1976E27F0004797666A
:1009800002680F78D2F86C8008F0F848B8EB876FEF
:1009900003D1D76E27F00047D7660268976817F033
:1009A000010F7FF41FAFD2F8C09091F80C800F6850
:1009B000DFF868A208F0180BC7F313082AFA0BFA3D
:1009C00029EA08080AEA070748EA0707C2F8C070D8
:1009D000CF68A7F18E42B2F57F027DD10A68076821
:1009E000C2F31308B8F1000F1ABF92FAA2F8B8FACE
:1009F00088F8C2F3846808F1010808F01F08B8F10C
:100A0000090FC2F313082BD8B8F1000F1ABF92FADE
:100A1000A2F8B8FA88F8C2F3846808F1010808F06F
:100A20001F0803FA08F80EBFC2F3846392FAA2F318
:100A3000B3FA83F303F1010303F01F0348EA83636E
:100A40000EBFC2F3846292FAA2F2B2FA82F202F10B
:100A5000010202F01F0202EB420243EA025230E0BE
:100A6000B8F1000F0EBFC2F3846892FAA2F8B8FA88
:100A700088F808F1010808F01F0803FA08F80EBF0B
:100A8000C2F3846392FAA2F3B3FA83F303F101038E
:100A900003F01F0348EA83630EBFC2F3846292FA35
:100AA000A2F2B2FA82F2DFF8788102F1010202F0DA
:100AB0001F0202EB420208EB025243EA020242F03A
:100AC00000728B6804EAD254C2F30452274406FA37
:100AD00002F403FA02F300E005E07E6926EA04046A
:100AE00044EA03037B610C6814F0004F3FF47AAED4
:100AF0004C4F01684C4EDFF83491B942DFF8308139
:100B000016BF414532464A469268B942494B02F007
:100B1000E07211BF4145D7F808A0D7F808B14AEAFA
:100B20000B0A18BFD3F808A01AF0010F7FF453AED8
:100B300004F1505A1AF5F80A08BF12F4000F1ED03B
:100B400004F1605A1AF52E0A08BF12F0807F4ED0C9
:100B500004F1405A1AF5900A04BF12F4800F99422A
:100B60007FF440AEB9421CBF41454E46B36842F4E3
:100B7000800123F0E07242EA0101B16032E699425D
:100B80007FF430AEB9421CBF41454E46B36842F4D3
:100B9000000123F0E07242EA0101B160274A2649D0
:100BA0001268B2FBF1F14FEA4101891C01910091F9
:100BB0003FF418AEB1F1004F29D20029D8BF00216F
:100BC00005DD11F0010102D0019A521E0192009A36
:100BD000491C521C9142B8BF019BBFF603AE5B1E7D
:100BE000891C9142A3F101030193F8DBFAE59942D4
:100BF0007FF4F8ADB9421CBF41454E46B36842F0A0
:100C0000807123F0E07242EA0101B160EAE50199E6
:100C1000491E0191FCD1E5E50010005CFFFF0F00CB
:100C2000000020FE00200240002302400063025822
:100C30000021024000600258400D03001C00002407
:100C4000F0B583B04FF0000604003546029602BFAF
:100C5000012003B0F0BD606D28B9204600F02EF9E8
:100C6000A66584F8506020688168C1F3407129B19D
:100C7000816821F03F0121F0204181602068816876
:100C8000C1F3007161BB816821F03F0121F0004197
:100C900041F08051816080497E480968B1FBF0F0E5
:100CA000401C029000901BD0B0F1004F80F0EC800F
:100CB0000028D8BF002005DD10F0010002D0029905
:100CC000491E02910099401C491C8842B8BF029AF3
:100CD00006DA521E801C8842A2F101020292F8DB61
:100CE00020688168C1F3007141B9616D012541F04F
:100CF00010016165A16D41F00101A1658168626D1E
:100D000012F0100FC1F3800108BF002905D0606DFB
:100D10004FF0010540F0100097E0616D21F4807103
:100D200041F002016165816811F0010F16D000BF2A
:100D300001F00EFB41F20301884202D9A06810289D
:100D400029D0617D237FA268206B490341EA0341DA
:100D500010430843217F012931D12AE04F49504AED
:100D600088421DBF90424F4B9B688B6804BFD1F8EF
:100D700008C143EA0C0313F0010FD9D188421ABF0E
:100D80009042494849488268616822F47C1242EAEC
:100D900001018160CCE7607D227F216B4FEA40300A
:100DA00040EA024041F0100141EA000040F00C002E
:100DB000D0E7218C3E4A02EB414141EA0000616AE2
:100DC00031B1A26A01F4787141EA000042EA000000
:100DD0002168384ACB6803EA020242EA0000C86090
:100DE000206881688368C1F38002C3F3C0011143A6
:100DF0001DD1237DE16AC26841EA833122F00302FA
:100E000022F480421143C16094F83800012820D0B8
:100E10002068016921F0010101612068616B0269AC
:100E200022F07042114301612046FFF737FBE06872
:100E3000012820681CBF016B21F00F011DD0016348
:100E4000606D20F0020040F00100606503B02846AC
:100E5000F0BD2068D4E91012B4F83CC0164EA36C63
:100E60000769ACF1010C114343EA0C42114307EA54
:100E70000603194341F00101CEE7A269016B521E3E
:100E800021F00F011143DAE70298401E0290FCD1D5
:100E900026E70000400D03001C0000240020024053
:100EA0000021024000600258006302580023024003
:100EB0000000FEFF03C0F0FF1EF800FC70B5B6B0E6
:100EC000064600256846C021309531953295339508
:100ED0003495FFF7A7FA3068A0F18041B1F50831E9
:100EE0001CBF36B070BD4FF400214FF0C00C022083
:100EF000002200910C23CDE90120CDE90330299592
:100F00002024CDE9060CCDE908450590684602F09D
:100F1000B7FB002818BFFFF7BEFB1C48016841F073
:100F200020010160006800F0200035901848016839
:100F300041F00101016000680321329500F00100D9
:100F400035904020CDE93001124830A901F0E6F893
:100F5000114C4FF48060DFF844C009234100C20007
:100F6000C4F800C0C4E901356161C4E90350C4E9B3
:100F7000062525622046656200F0B8FB002818BFF0
:100F8000FFF789FBF464A66336B070BDD8440258FD
:100F9000E0440258000002580801002410000240FA
:100FA0002DE9F84F0446DFF800840020DFF80094B4
:100FB00000904FF41652FD48A56DFE4EFE4F01689D
:100FC0002068B1FBF2FBD5F800A0404529681CBFA2
:100FD000F74A90422BD0B04218BFB84227D0F74A08
:100FE00090421CBFF64A904221D0F64A90421CBF64
:100FF000F54A90421BD0F54A90421CBFF44A9042F9
:1010000015D0F44A90421CBFF34A90420FD0F34BE4
:1010100098421CBFDFF8C8C3604508D0DFF8C4E3BE
:1010200070451CBFDFF8C0E3704540F0308294F893
:101030005C204FF0080102F01F0201FA02F212EAEE
:101040000A0F41D0404518BF48452AD0B04218BFCA
:10105000B84226D0D94A90421CBFD94A904220D0EB
:10106000D84A90421CBFD84A90421AD0D74A9042E0
:101070001CBFD74A904214D0D64A90421CBFD64AD1
:1010800090420ED0D54A90421CBFD54A904208D01B
:10109000D44A90421FBFD44A9042026802F008022C
:1010A00002D1026802F0040272B1026822F0040266
:1010B000026094F85C0000F01F0001FA00F0A860E4
:1010C000606D40F00100606594F85C0000F01F0165
:1010D0004FF0010000FA01F111EA0A0F36D0206842
:1010E000404518BF484528D0B04218BFB84224D068
:1010F000B24A90421CBFB24A90421ED0B14A9042BE
:101100001CBFB14A904218D0B04A90421CBFB04AAE
:10111000904212D0AF4A90421CBFAF4A90420CD0CE
:10112000AE4A90421CBFAE4A904206D0AD4A9042B1
:101130001EBFAD4A9042006808D1406910F0800F90
:1011400004D0A960606D40F00200606594F85C0016
:1011500000F01F014FF0040000FA01F111EA0A0F3C
:1011600036D02068404518BF484528D0B04218BF47
:10117000B84224D0914A90421CBF914A90421ED05E
:10118000904A90421CBF904A904218D08F4A904299
:101190001CBF8F4A904212D08E4A90421CBF8E4A8A
:1011A00090420CD08D4A90421CBF8D4A904206D08E
:1011B0008C4A90421EBF8C4A9042006808D1006859
:1011C00010F0020F04D0A960606D40F0040060656B
:1011D00094F85C104FF0100001F01F0100FA01F1CB
:1011E00011EA0A0F4FD02068404518BF48452AD061
:1011F000B04218BFB84226D0704A90421CBF704A15
:10120000904220D06F4A90421CBF6F4A90421AD041
:101210006E4A90421CBF6E4A904214D06D4A904272
:101220001CBF6D4A90420ED06C4A90421CBF6C4A63
:10123000904208D06B4A90421FBF6B4A90420068B0
:1012400000F0040002D1006800F00800D8B1A960E5
:101250002068016811F4802F09D0006810F4002F75
:1012600002D0A16C79B10CE0216C51B90BE001689E
:1012700011F4807F03D1016821F008010160216C25
:1012800009B12046884794F85C10202001F01F0126
:1012900000FA01F111EA0A0F6ED02068404518BF2C
:1012A00048452AD0B04218BFB84226D0434A90429F
:1012B0001CBF434A904220D0424A90421CBF424A3F
:1012C00090421AD0414A90421CBF414A904214D0E9
:1012D000404A90421CBF404A90420ED03F4A904242
:1012E0001CBF3F4A904208D03E4A90421FBF3E4A30
:1012F0009042006800F0020002D1006800F0100087
:10130000D0B3A96094F8350004282068016809D09A
:1013100011F4802F34D0006810F4002F2DD0E16B31
:1013200051B33DE021F0160101602068416921F0D0
:1013300080014161206C002804BFA06C002804D00B
:101340002068016821F00801016094F85C304FF0DA
:101350003F024FF001004FF0000103F01F0302FABB
:1013600003F2AA6084F8350084F83410216D002956
:1013700040F08C81BDE8F88F14E0616C81B911E018
:10138000016811F4807F09D103680121002223F054
:101390001003036084F8351084F83420E16B09B140
:1013A00020468847606D21E0100002401C000024A8
:1013B00028000240400002405800024070000240F5
:1013C00088000240A0000240B80002401004024021
:1013D00028040240400402405804024070040240C5
:1013E00088040240A0040240B8040240002808BF5C
:1013F000BDE8F88F606D10F0010F43D02068042124
:1014000084F83510404518BF484521D0B04218BF78
:10141000B8421DD0A04988421CBFA049884217D0BD
:101420009F4988421CBF9F49884211D09E498842EB
:101430001CBF9E4988420BD09D4988421CBF9D49D4
:10144000884205D09C4988421EBF9C4988429C49DD
:10145000016821F0010101602068009901F101019A
:101460000091594503D8016811F0010FF5D10068CA
:1014700010F0010F14BF0320012084F83500002074
:1014800084F83400E16C00293FD1BDE8F88FDFF823
:10149000349248451CBFDFF83092484518D0DFF839
:1014A0002C9248451CBFDFF82892484510D0DFF841
:1014B000249248451CBFDFF82092484508D0DFF849
:1014C0001C9248451EBFDFF818924845BDE8F88FCA
:1014D00094F85CA04FF0040BD0F800900AF01F0ABB
:1014E0000BFA0AFB1BEA010F18BF19F0040F4BD0CF
:1014F00019F4004FC5F804B00DD019F4803F05D0A1
:10150000216C002908BFBDE8F88FBFE0A16C00295D
:1015100076D1BDE8F88F19F0200F31D12068404511
:101520001CBF7049884227D0B04218BFB84223D0B0
:10153000594988421CBF594988421DD058498842A0
:101540001CBF5849884217D0574988421CBF574989
:10155000884211D05649884218BF90420CD0984218
:1015600018BF604508D0564988421FBF5E4988426F
:10157000016821F0040102D1016821F00801016035
:10158000216CE9BBBDE8F88F4FF0020B0BFA0AFBA8
:101590001BEA010F18BF19F0020F54D019F4004FC5
:1015A000C5F804B00CD019F4803F05D0E16B0029D8
:1015B00008BFBDE8F88F69E0616C09BBBDE8F88F32
:1015C00019F0200F3BD1206840451CBF4549884297
:1015D00029D0B04218BFB84225D02F4988421CBF3D
:1015E0002E4988421FD02E4988421CBF2D4988426F
:1015F00019D02D4988421CBF2C49884213D000E0E5
:1016000044E02B49884218BF90420CD0984218BF42
:10161000604508D02A4988421FBF33498842016883
:1016200021F00A0102D1016821F0140101604FF09C
:1016300001014FF0000084F8351084F83400E16BAC
:1016400021BBBDE8F88F4FF0080202FA0AF20A4205
:1016500014BF19F0080FBDE8F88F016821F00E01E2
:10166000016094F85C104FF0010001F01F0100FAD6
:1016700001F24FF000016A60606584F8350084F87B
:101680003410E16C002908BFBDE8F88F204601B096
:10169000BDE8F04F0847000070000240880002409B
:1016A000A0000240B800024010040240280402409A
:1016B0004004024058040240700402408804024082
:1016C000A0040240085402581C54025830540258D6
:1016D00044540258585402586C54025880540258CA
:1016E0009454025828000240B80402402DE9F84FF3
:1016F000044600F033FE002C834600F04982FE4988
:101700004FF0010620684FF00005FC4FDFF8F08332
:101710008842DFF8F093DFF8F0A31CBFFB49884252
:101720002AD0FB4988421CBFFA49884224D0FA4992
:1017300088421CBFF94988421ED0F94988421CBF23
:10174000F849884218D0F84988421CBFF7498842B6
:1017500012D0F74988421CBFF64988420CD0F6499E
:1017600088421CBFF549884206D0F54988421CBF13
:10177000F449884240F0D980DF494FF0020284F8F2
:101780003520884284F834501CBFE049884223D079
:10179000DF4988421CBFDF4988421DD0DE498842AC
:1017A0001CBFDE49884217D0DD4988421CBFDD4995
:1017B000884211D0DC4988421CBFDC4988420BD0EA
:1017C000DB4988421CBFDB49884205D0DA498842A0
:1017D0001EBFDA498842DA49016821F0010101603F
:1017E0002068006810F0010F13D000BF00F0B6FDB4
:1017F000A0EB0B00052807D920216165032084F8A0
:1018000035000120BDE8F88F2068006810F0010F56
:10181000ECD1D4E9021C2068D4E9042E009041EAFE
:101820000C01D4E9063CD4F820B042EA0E0200686C
:101830000A43C5491A43D4F824E042EA0C0208409E
:1018400042EA0B01BEF1040F41EA000003D1D4E9E2
:101850000B1211430843BD4909686FF30F01B1F141
:10186000005F11D36168A1F12902052A84BFA1F1AB
:101870003F02032A06D9A1F14702012A84BF4F394A
:10188000032901D840F4801000990860D4F800C002
:10189000616ADCF81400042920F0070041EA000224
:1018A00036D1D4E90A100A4318B3A36953B1B3F58A
:1018B000005F14D000291CBF0129022921D003296F
:1018C0001CD025E019B1012905D0022920D110F042
:1018D000807F1DD015E0B0F1C07F19D111E081B13A
:1018E000012907D002290CD0032908BFB0F1C07F1D
:1018F00007D00DE010F0807F03D109E010F0807F69
:1019000006D04FF04000606584F8356000F040B9C3
:10191000CCF814202046FEF74FFE94F85C203F21BF
:1019200002F01F029140816051E08949884218BF4E
:10193000B8420FD0404518BF48450BD050451CBF9A
:101940008449884206D0844988421CBF8349884222
:1019500040F016814FF0020184F8351084F83450BD
:101960000168A2686FF310110091402A08BF10228D
:1019700004D0802A0CBF4FF480420022D4E903CE69
:10198000D4E9053142EADC02D4E907CB42EADE0EB3
:10199000734A4EEAD30E734B4EEAD10141EADC01A1
:1019A00041EA1B1C00994CEA0101016020681044C7
:1019B000A3FB001000098000E0652046FEF7FCFD57
:1019C00094F85C1001F01F0106FA01F141604A49E8
:1019D000206888421CBF4D4988423DD04C4988420E
:1019E0001CBF4C49884237D04B4988421CBF4B49E9
:1019F000884231D04A4988421CBF4A4988422BD08C
:101A0000494988421CBF4949884225D048498842F3
:101A10001CBF484988421FD0474988421CBF4749DC
:101A2000884219D0464988421CBF4649884213D093
:101A30004749884218BFB8420ED0404518BF4845B4
:101A40000AD050451CBF4349884205D042498842CC
:101A50001CBF424988424DD13D4A904218BFB8420E
:101A60000ED0404518BF48450AD050451CBF3949E3
:101A7000884205D0384988421CBF384988423AD14B
:101A8000384BC0B2A0F108003749A3FB0030374BF8
:101A900063664FEA101000F01F0301EB800006FAA6
:101AA00003F1A1662066A068802808BF65602079E0
:101AB000216E0860D4E9190141606068411E072960
:101AC0007DD8C1B24B1E072B7AD82068904218BF30
:101AD000B8420ED0404518BF48450AD050451CBFFB
:101AE0001C4A904205D01C4A90421CBF1B4A90429F
:101AF0006FD13DE07FE04FE0100002401C540258DF
:101B00003054025844540258585402582800024095
:101B1000400002405800024070000240880002402D
:101B2000A0000240B8000240100402402804024015
:101B300040040240580402407004024088040240FD
:101B4000A0040240B80402403F8010FE0010005C78
:101B5000085402586C540258805402589454025845
:101B6000F8ABFDA7CDCCCCCC005802588058025819
:101B70002548244A02EB8101C4E91B102FE000BF75
:101B80004FF040014FF00300616584F8350000BF5D
:101B90004FF00100BDE8F88F1C49C3B2A3F1100C4F
:101BA0001B4BA1FB0CC11844A8284FEA111098BF89
:101BB0000830184900F01F0301EB800002E017E035
:101BC00010E006E0144906FA03F3A366C4E918011D
:101BD00069E71348114A02EB8101C4E91B1006FAB8
:101BE00003F06067E06E0560D4E91C01416002E02B
:101BF000E56625676567656584F835600020BDE8A2
:101C0000F88F0000FC58025840590258ABAAAAAA03
:101C1000F0FBFDBF0008024080080240FC080240C3
:101C2000400902402DE9F04393B0FF494C2204469D
:101C30006846FEF7DEFB002C02BF012013B0BDE8B2
:101C4000F083DFF8E8832068404504BF00F580702A
:101C5000606094F89800002720B9204684F89970B5
:101C600000F012FA2068816921F01001816100F012
:101C700075FB054620680326806910F0080F09D01F
:101C800000F06CFB401B0A2817D82068806910F010
:101C9000080FF5D12068816941F00101816100F0F0
:101CA0005DFB05462068806910F0010F16D100BF6A
:101CB00000F054FB401B0A280BD9D4F89C0040F0DC
:101CC0000100C4F89C0084F8986013B00120BDE8BE
:101CD000F0832068806910F0010FE9D020688169E5
:101CE00041F002018161207C0128206881690CBFDC
:101CF00021F0400141F040018161607C01282068B1
:101D000081690CBF41F4804121F480418161A07C54
:101D10000128206881690CBF21F4805141F4805171
:101D200081612068A168826922F440721143816157
:101D30002068816921F0A40181612068016921F096
:101D400010010161E068012810D0C8B1022812D04A
:101D50002068816941F0800181612068016941F05A
:101D600010010161E068032805D009E0206881695D
:101D700041F0040103E02068816941F020018161A4
:101D8000227E6FF0FF00D4E9073C0102A58A5206CB
:101D9000A2F10079ACF10102D4F800C000EB0323FA
:101DA00049EA03031A4301EB05452A43CCF81C20FA
:101DB000A268B2F5407F13D1D4E90A320511B4F814
:101DC0002490D4F830C05B1E00EB0220034305EBE7
:101DD0000C1201EB094043EA020122680843D0607B
:101DE000206E30B12068616ED0F8C0201143C0F879
:101DF000C010D4E917126846D1420AD02168A26EF9
:101E0000D1F8C83050F8222023F007031A43C1F854
:101E1000C820216C51B12168626CD1F8BC3050F8F7
:101E2000222023F007031A43C1F8BC20A16C59B14A
:101E30002168E26CD1F8BC3050F8222023F0700306
:101E400043EA0212C1F8BC20216D59B12168636DCB
:101E5000D1F8BC2050F8230022F4E06242EA0020CE
:101E6000C1F8BC002068404504D16068816821F059
:101E700003018160C4F8947001233846C4F89C7053
:101E800084F8983025686A4ADFF8A8C1616BD5F8F4
:101E900084706FF38F0747EA8107C5F8847025685F
:101EA000278FD5F8848028F47F0848EA0747C5F8CB
:101EB00084702568D4F83880D5F8887041446FF371
:101EC0008F0747EA8107C5F888702568A78FD5F87E
:101ED000888028F4FE0848EA0747C5F88870256816
:101EE000D4F83C80D5F8A07001EB48016FF38F0760
:101EF00047EA8107C5F8A0702568B4F84070D5F8A6
:101F0000A08028F4FE0848EA0747C5F8A070D4E985
:101F10001078256807FB0811D5F8B0706FF38F07AC
:101F200047EA8107C5F8B0702568B4F84870D5F85D
:101F3000B08028F4FE0848EA0747C5F8B070D4E935
:101F40001278256807FB0811D5F8AC706FF38F077E
:101F500047EA8107C5F8AC70D4E91478256807FB17
:101F60000811D5F8F0706FF38F0747EA8107C5F8BD
:101F7000F0702568B4F85870D5F8F08028F47C1813
:101F800048EA0747C5F8F0702568D4F85880D5F8B6
:101F9000C07001EB48016FF38F0747EA8101C5F874
:101FA000C0102168B4F85C50D1F8C07027F47C17D9
:101FB00047EA0545C1F8C050216894F86050D1F84F
:101FC000C07027F07C5747EA0565C1F8C050616BC7
:101FD00002EB8101E166A26B01EB82022267E56BF5
:101FE00002EBC5026267D4E9105705FB07F502EB67
:101FF0008502A267D4E9125705FB07F502EB8502BB
:10200000E267D4E9145705FB07F502EB8502C4F833
:102010008020A56D02EBC502C4F88420E76DA56E93
:1020200007FB05F708E000001C85000800A0004041
:1020300000AC0040FCD3004002EB8702C4F88820CB
:10204000276E07FB05F502EB8502C4F89020624578
:102050000BD9D4F89C10184641F02001C4F89C100C
:1020600084F8986013B0BDE8F083914224BF13B0A8
:10207000BDE8F08341F8040BD4F890209142F9D3E5
:1020800013B0BDE8F083000030B5B7B005460024BA
:102090006846C02130943194329433943494FEF7DE
:1020A000C1F92868A0F18041B1F520411CBF37B0CB
:1020B00030BD4FF4004100204A031C92CDE90010CE
:1020C000684601F0DDFA002818BFFEF7E4FA104870
:1020D000016841F480710160006800F480703590FF
:1020E0000C48016841F008010160006802210922E2
:1020F00000F00800359003203090CDE931140648F7
:1021000030A9CDE9334200F009F837B030BD000006
:10211000EC440258E0440258000C02580B680022BC
:10212000DFF824C2002B08BF70472DE9F84FDFF815
:102130001CE2012703244FF00F0800BF0B6807FAC9
:1021400002F6334000F0F8800D7905F00305012D0B
:1021500018BF022D1AD1D0F808904FEA4205D1F8E5
:102160000CB004FA05FA29EA0A090BFA05F545EA62
:1021700009058560456891F8049025EA0605C9F3CC
:10218000001909FA02F646EA050545604D6834EA89
:1021900005050BD0C6685500D1F808A004FA05F96A
:1021A00026EA09060AFA05F53543C5600D7905F0FA
:1021B0000305022D12D1D508D1F810A04FEA4279BB
:1021C00000EB85052E6A4FEAD96908FA09FB0AFA7D
:1021D00009F926EA0B0649EA06062E6291F80490F0
:1021E0000668550009F0030904FA05FA09FA05F52D
:1021F00026EA0A06354305604D6815F4403F7DD058
:10220000DEF8005045F00205CEF80050DEF8005030
:1022100022F0030606F1B04605F002050095950789
:10222000D6F808942D0FA0F1B04B08FA05FABBF5CB
:10223000003B29EA0A0908BF4FF0000A48D0A0F184
:10224000B04ABAF5013A08BF4FF0010A40D0A0F1F8
:10225000B04ABAF5023A08BF4FF0020A38D0A0F1EE
:10226000B04ABAF5033A08BF4FF0030A30D0A0F1E4
:10227000B04ABAF5043A08BF4FF0040A28D0A0F1DA
:10228000B04ABAF5053A08BF4FF0050A20D0A0F1D0
:10229000B04ABAF5063A08BF4FF0060A18D0A0F1C6
:1022A000B04ABAF5073A08BF4FF0070A10D0A0F1BC
:1022B000B04ABAF5083A08BF4FF0080A08D0A0F1B2
:1022C000B04ABAF5093A0CBF4FF0090A4FF00A0AB2
:1022D0000AFA05FA4FF0B0454AEA0909C6F8089427
:1022E000D1F804902E6819F4801F26EA030618BF5F
:1022F0001E432E60D1F804906E6800E01CE019F4D3
:10230000001F26EA030618BF1E436E60DCF8045067
:102310004E6825EA030516F4003F18BF1D43CCF8AC
:102320000450DCF800504E6825EA030516F4803F9F
:1023300018BF1D43CCF800500B68521CD3407FF4EB
:10234000FDAEBDE8F88F000080000058F44402584C
:1023500001480068000C70470010005C014880686C
:102360007047000010000024002804BF01207047BF
:1023700038B50446007A0025022110F0010F84F8D8
:10238000C110C4F8C450C4F8C850C4F8CC50C4F844
:10239000D050C4F8D450C4F8D8501ED02068A0F152
:1023A0008041B1F5BA3108D11F48016841F00051B0
:1023B0000160006800F0005000902068228AA38A23
:1023C000016802F4404C03F4405221F440414CEACD
:1023D000010121F4405111430160204600F026F82C
:1023E000207A10F0020F08D02068A289016802F458
:1023F000407221F4407111430160012084F8C10052
:10240000002184F8C0500622C1EBC100491C04EB36
:102410008000521E8561C561056245628562056363
:10242000F2D1002038BD0000F044025810B5B2B01F
:102430000446C0216846FDF7F5FF2068A0F1804101
:10244000B1F5BA311CBF32B010BD4FF08051002041
:102450008A132E92CDE90010684601F011F9002888
:1024600018BFFEF718F90548016841F000510160F6
:10247000006800F00050309032B010BDF0440258B7
:1024800070B490F8C130022B02BF022070BC7047BC
:10249000022380F8C130052924D0D0F800C0802361
:1024A00003EBC11395685CF80340D66824F0070479
:1024B0002C4324F01804344394254CF8034005EBD6
:1024C000C1130568D2F800C0982445F803C003681A
:1024D00004EBC11152685A50012180F8C11070BC40
:1024E000002070470168D2E9024C0B6823F0070313
:1024F000234323F018034CEA03030B6003681168BD
:102500005961516802689161E6E72DE9F04F90F852
:10251000C13082B0022B19BF90F8C030012B0220CD
:1025200002B008BFBDE8F08F4FF0020C4FF001037E
:1025300080F8C030052980F8C1C063D003688024CA
:1025400004EBC11B4FF0E40CE82553F80B6005EBDE
:10255000C1140CEBC11526F07046CDE9005443F8C8
:102560000B6002F11406036896E8C00353F80BC031
:102570001C592CF0200C46EA0C0CD2E909A62CF4CC
:10258000006C47EA0C07D2F830C05D5927F4806E22
:10259000D3F8A073BCF1005F48EA0E0828F0C06CC5
:1025A00049EA0C0C2CF0006C4AEA0C0C2CF0704C34
:1025B00046EA0C0C2CF4003608BF46F4003626F030
:1025C000400AD2F834C024F01F0E166D4CEA0A04FB
:1025D00092F8388024F48024D2F83CA046EA04041F
:1025E000D2F8489008F01F0848EA0E0626F0004886
:1025F00024F0FC74BCF1000F49EA04064AEA08081A
:102600003BD134E0D2E90584D2E90795D2E90967E4
:102610000368D3F800C02CF0200C48EA0C0CD2F868
:1026200030802CF4006C44EA0C0CD3F8A0432CF45A
:10263000806C49EA0C0CD2F82C902CF0C06C45EA66
:102640000C0C2CF0006C46EA0C0C2CF0404C4CEAC4
:10265000870C24F480342CF0005C49EA040448EA36
:102660000C0CC3F800C00368C3F8A04350E0D2F8D4
:10267000409025F4807449EA0405546CB4F5606F09
:1026800018BFB4F5F05F02D1BCF1400F03D125F4BF
:10269000F05C44EA0C05D2F84CC0052926D2DFE8EC
:1026A00001F0030A11181F00D2F82C9027F400340F
:1026B00044EA49071AE0D2F82C9027F4802444EA2F
:1026C000890713E0D2F82C9027F4002444EAC907C4
:1026D0000CE0D2F82C9027F4801444EA091705E0A6
:1026E000D2F82C9027F4001444EA491743F80B6001
:1026F0000668D424019B04EBC11446F803800668E5
:10270000009BF550036843F804C00368C3F8A07346
:10271000C1EBC103D2F800C0062900EB8303C3F864
:1027200020C0D2F804C0C3F824C0D2F808C0C3F84F
:1027300028C0D2F80CC0C3F82CC012691A6311D299
:10274000DFE801F0091A20262C030168D1F8842360
:1027500042F0010204E00168D1F8842342F0020251
:10276000C1F88423012180F8C110002280F8C02024
:1027700002B01046BDE8F08F0168D1F8842342F022
:102780000402EDE70168D1F8842342F00802E7E78C
:102790000168D1F8842342F01002E1E70168D1F822
:1027A000842342F02002DBE74DF8044D90F84120ED
:1027B000202A27D190F84020012A23D0012380F835
:1027C000403024224FF0000C202380F84120026882
:1027D000146824F0010414600268146824F480541E
:1027E0001460026814682143116001680A6842F0AD
:1027F00001020A6080F8413080F840C000205DF896
:10280000044B70475DF8044B022070474DF8044DAF
:1028100090F84120202A25D190F84020012A21D08B
:10282000012380F8403024224FF0200C002480F84F
:1028300041200268136823F00103136002681368E3
:1028400023F4706343EA0121116001680A6842F0D1
:1028500001020A6080F841C080F8404000205DF825
:10286000044B70475DF8044B02207047002804BFFA
:102870000120704770B5044690F84100002520B94A
:10288000204684F8405000F04BF8242084F84100A2
:102890002068016821F001010160D4E9001020F0F6
:1028A000706008612068816821F400418160E068FF
:1028B00021680128A0680CBF40F4004040F40440A7
:1028C0008860E068022802D12168800248602021E7
:1028D0002068426842F4004242F000724260206880
:1028E000C26822F40042C260D4F800C0D4E90402F5
:1028F000A369104340EA0320CCF80C002368D4E914
:102900000702104318602068026842F0010202606A
:10291000656484F84110256384F84250002070BD3E
:10292000F0B5B7B0054600246846C0213094319414
:10293000329433943494FDF775FD286812262F4D98
:102940000427A0F18041B1F5A84130D0A0F1B041F9
:10295000B1F5E0511CBF37B0F0BD10210020269426
:10296000CDE90010684600F08BFE002818BFFDF787
:1029700092FE286840F008002860286830A900F01E
:10298000080035904FF440503090CDE931641C4838
:10299000CDE93347FFF7C2FB1A48016841F08001D7
:1029A0000160006800F08000359037B0F0BD002075
:1029B00021940821CDE90010684600F061FE00284E
:1029C00018BFFDF768FE286840F0020028602868FC
:1029D00030A900F002003590C0203090CDE931647C
:1029E0000948CDE93347FFF799FB0848016841F4EE
:1029F00000110160006800F40010D5E7E0440258BF
:102A0000000C0258F444025800040258E8440258EA
:102A100002488168027811448160704710000024E8
:102A2000032010B500F0C4F801F094FD0F4A1049DE
:102A300013681268C3F3032302F00F02CB5C895CB6
:102A400003F01F0201F01F01D0400A4A20FA01F1F1
:102A50001160094908600F2000F010F800281CBF21
:102A6000012010BD00F052F8002010BD184402589B
:102A700090850008200000241C00002410B51028B8
:102A800004468AB02ED2002201461C2000F060F8D5
:102A90001C2000F04DF8194804601948016841F005
:102AA00001010160006809A900F001000890684672
:102AB00001F09AFC0598C0B101F0F0FC4000114A09
:102AC000002140F2E733B0FBF2F20F484FF0804CA8
:102AD000C0F800C0C0E90331521EC0E9012102F074
:102AE000F7F928B10AB0012010BD01F0D7FCE6E7E4
:102AF000054802F01FFA0AB010BD000014000024BF
:102B0000E844025840420F0084040024074882B081
:102B1000016841F002010160006800220F2100F00D
:102B200002000090901E02B000F012B8F444025867
:102B30000028B8BF7047410900F01F008A0001213A
:102B400002F1E02201FA00F0C2F800017047000033
:102B5000164B30B41B68C3F30223C3F1070CBCF15E
:102B6000040F88BF4FF0040C1C1D072C34BF00233A
:102B7000DB1E012404FA0CFC04FA03F5ACF1010499
:102B80002140A5F1010C99400CEA020211430028F2
:102B90004FEA0111B8BF00F00F0000F1E020ACBF18
:102BA00080F8001480F8141D30BC70470CED00E074
:102BB000074900F007004FF6FF030A681A4042EA8F
:102BC000002040F0FD7040F0806008607047000019
:102BD0000CED00E014490A6812F0040F07D10968EF
:102BE00001F00701814214BF01200020704770B539
:102BF0000A6822F0070210430860FFF7AFFB0B4D95
:102C00000446286810F4005F0CD100BFFFF7A6FB54
:102C1000001BB0F57A7F01D9012070BD286810F43F
:102C2000005FF3D0002070BD0C48025804480258E1
:102C300010B501F00FFC05490968054AC1F30211FE
:102C4000515C01F01F01C84010BD00002044025833
:102C50009085000862494DF8044DDFF888C10B1DCE
:102C60000A6809681C68DCF800C002F0030304F07D
:102C70000102C1F30511CCF3CC0C00291CFB02F2BC
:102C800000EE102AF8EE400A7ED09FED571A9FED15
:102C9000572A574AB7EE000A23B1012B3BD0022B2B
:102CA0004FD024E0534BD3F800C01CF0200F1ED0AF
:102CB000DFF844C11B6801EE901AC3F3C101136829
:102CC000F8EE612A2CFA01F101EE901AC3F3080123
:102CD000F8EE611A81EEA22A01EE901AF8EE611A5E
:102CE00040EE811A71EE800A62EE200A3EE001EEAB
:102CF000901A1168F8EE611AC1F30801C2EE212A98
:102D000001EE901AF8EE611A40EE811A71EE800A17
:102D100062EEA00A2AE001EE901A1168DFED372A70
:102D2000F8EE611AC1F3080182EEA12A01EE901AB1
:102D3000F8EE611A40EE811A71EE800A62EE200A06
:102D400014E001EE901A1168DFED2D2AF8EE611AF9
:102D5000C1F3080182EEA12A01EE901AF8EE611A81
:102D600040EE811A71EE800A62EE200A1168C1F30A
:102D7000462101EE101AB8EE411A31EE001AC0EEEB
:102D8000811ABCEEE11A00E022E080ED001A116821
:102D9000C1F3064101EE101AB8EE411A31EE001AE5
:102DA000C0EE811ABCEEE11A80ED011A1168C1F380
:102DB000066101EE101AB8EE411A31EE000A80EEFB
:102DC000801ABCEEC10A80ED020A5DF8044B704720
:102DD00000210160416081605DF8044B7047000094
:102DE0002844025834440258000000390024744C2E
:102DF00030440258004402580090D0030024744A22
:102E000020BCBE4B61494DF8044DDFF884C10B1D59
:102E10000A6809681C68DCF800C002F00303C1F30B
:102E20000531C4F30012CCF3CC0C00291CFB02F2D8
:102E300000EE102AF8EE400A7DD09FED561A564A51
:102E4000B7EE000ACBB1DFED551A012B01D0022BF2
:102E50004ED002EE101A1168F8EE422AC1F30801B2
:102E600081EEA22A01EE901AF8EE611A40EE811A64
:102E700071EE800A62EE200A4FE0494BD3F800C0A1
:102E80001CF0200F1ED0DFF81CC11B6801EE901A49
:102E9000C3F3C1011368F8EE612A2CFA01F101EEC7
:102EA000901AC3F30801F8EE611A81EEA22A01EE2E
:102EB000901AF8EE611A40EE811A71EE800A62EE05
:102EC000200A2AE001EE901A1168DFED372AF8EEA9
:102ED000611AC1F3080182EEA12A01EE901AF8EE00
:102EE000611A40EE811A71EE800A62EE200A14E047
:102EF00001EE901A1168DFED2D2AF8EE611AC1F388
:102F0000080182EEA12A01EE901AF8EE611A40EE55
:102F1000811A71EE800A62EE200A1168C1F346211F
:102F200001EE101AB8EE411A31EE001AC0EE811A05
:102F3000BCEEE11A00E022E080ED001A1168C1F356
:102F4000064101EE101AB8EE411A31EE001AC0EE39
:102F5000811ABCEEE11A80ED011A1168C1F3066115
:102F600001EE101AB8EE411A31EE000A80EE801A16
:102F7000BCEEC10A80ED020A5DF8044B70470021E7
:102F80000160416081605DF8044B7047284402583D
:102F90003C44025800000039384402580024744A66
:102FA000004402580090D0030024744C20BCBE4B57
:102FB00061494DF8044DDFF884C10B1D0A680968AA
:102FC0001C68DCF800C002F00303C1F30551C4F330
:102FD0000022CCF3CC0C00291CFB02F200EE102ADC
:102FE000F8EE400A7DD09FED561A564AB7EE000A19
:102FF000CBB1DFED551A012B01D0022B4ED002EEE2
:10300000101A1168F8EE422AC1F3080181EEA22AD3
:1030100001EE901AF8EE611A40EE811A71EE800A04
:1030200062EE200A4FE0494BD3F800C01CF0200F9D
:103030001ED0DFF81CC11B6801EE901AC3F3C1015A
:103040001368F8EE612A2CFA01F101EE901AC3F32D
:103050000801F8EE611A81EEA22A01EE901AF8EE4C
:10306000611A40EE811A71EE800A62EE200A2AE0AF
:1030700001EE901A1168DFED372AF8EE611AC1F3FC
:10308000080182EEA12A01EE901AF8EE611A40EED4
:10309000811A71EE800A62EE200A14E001EE901AA5
:1030A0001168DFED2D2AF8EE611AC1F3080182EEF6
:1030B000A12A01EE901AF8EE611A40EE811A71EE23
:1030C000800A62EE200A1168C1F3462101EE101A4F
:1030D000B8EE411A31EE001AC0EE811ABCEEE11AC8
:1030E00000E022E080ED001A1168C1F3064101EE14
:1030F000101AB8EE411A31EE001AC0EE811ABCEE79
:10310000E11A80ED011A1168C1F3066101EE101A8F
:10311000B8EE411A31EE000A80EE801ABCEEC10A08
:1031200080ED020A5DF8044B7047002101604160A8
:1031300081605DF8044B70472844025844440258AB
:1031400000000039404402580024744A00440258E8
:103150000090D0030024744C20BCBE4B2DE9F043FA
:10316000FC4F80F48072FC4C03463D1FFB48FC4E34
:103170000A43FC4A89B04FEA241C2FD083F400781C
:1031800058EA01087BD0DFF8E08383F4806959EACC
:10319000010975D083F4006959EA010971D083F4FB
:1031A000805959EA01096DD083F400560E4300F0AE
:1031B0006A8183F400260E4300F0A48183F48036F4
:1031C0000E4300F0E38183F480450D4300F0F68167
:1031D00083F40043194300F032824CE0396801F077
:1031E0000701052947D2DFE801F003111F562D0022
:1031F000106810F0007004BF09B0BDE8F08306A8A5
:10320000FFF728FD079809B0BDE8F083106810F0BB
:10321000006004BF09B0BDE8F0836846FFF7F2FD27
:10322000009809B0BDE8F083106810F0005004BFAA
:1032300009B0BDE8F08303A8FFF7BAFE039809B010
:10324000BDE8F0832968136801F0405113F0040FC2
:1032500000D0C1B1136813F4807F02D0B1F1805F58
:1032600017D0126812F4003F05D0B1F1005F04BF1F
:1032700009B0BDE8F083002009B0BDE8F0830CE0A0
:1032800040E07BE0BDE01068C0F3C10024FA00F02C
:10329000F2E76046F0E73046EEE7396801F4E071A6
:1032A00080292AD007DC19B34029E4D1106810F036
:1032B0000060B2D1E0E7C029EDD0B1F5807FDAD16E
:1032C0002968136801F0405113F0040F01D0002960
:1032D000D9D0136813F4807F02D0B1F1805FD8D0C9
:1032E000126812F4003FC6D0B1F1005FC4D0C2E74B
:1032F000106810F0007082D1BEE7106810F0005026
:1033000099D1B9E7D8F8001001F46001B1F5800F48
:103310002ED009DC31B3B1F5001FACD1106810F02C
:1033200000607FF47AAFA7E7B1F5C00FB3D0B1F575
:10333000000FA0D12968136801F0405113F0040F69
:1033400001D000299FD0136813F4807F02D0B1F11F
:10335000805F9ED0126812F4003F8CD0B1F1005F04
:103360008AD088E7106810F000707FF448AF83E7D8
:10337000106810F000507FF45EAF7DE7D8F80010C1
:1033800001F0E061B1F1007F35D00ADC69B3B1F141
:10339000807F7FF470AF106810F000607FF43DAF65
:1033A0006AE7B1F1407F3FF476AFB1F1806F7FF40F
:1033B00062AF2968136801F0405113F0040F02D086
:1033C00000293FF460AF136813F4807F03D0B1F19C
:1033D000805F3FF45EAF126812F4003F3FF44BAFE2
:1033E000B1F1005F3FF448AF45E7106810F000709E
:1033F0007FF405AF40E7106810F000507FF41BAF7A
:103400003AE7396801F4E041B1F5005F35D00ADCF4
:1034100069B3B1F5805F7FF42EAF106810F00060E3
:103420007FF4FBAE28E7B1F5405F3FF434AFB1F570
:10343000804F7FF420AF2968136801F0405113F0EA
:10344000040F02D000293FF41EAF136813F4807FED
:1034500003D0B1F1805F3FF41CAF126812F4003F5B
:103460003FF409AFB1F1005F3FF406AF03E7106826
:1034700010F000707FF4C3AEFEE6106810F000504C
:103480007FF4D9AEF8E6396801F4E021B1F5403FA8
:103490002CD011DCE9B1B1F5803F1DD0B1F5003F72
:1034A0007FF4E9AE106810F000503FF4E5AE03A8D9
:1034B000FFF77EFD0498DFE6B1F5802F1CD0B1F553
:1034C000A02F7FF4D8AE116811F4003F7FF4D4AE82
:1034D000D1E600F0E3FFCFE6106810F000603FF4A3
:1034E000CBAE6846FFF78EFC0198C5E6106810F079
:1034F00004007FF4C8AEBFE6106810F480707FF45B
:10350000C8AEB9E6D8F8001011F440312ED0B1F5AC
:10351000803F31D0B1F5003F7FF4ADAE296813682C
:1035200001F0405113F0040F02D000293FF4ABAE7C
:10353000136813F4807F03D0B1F1805F3FF4A9AE2C
:10354000126812F4003F3FF496AEB1F1005F3FF411
:1035500093AE90E6504402580090D00340787D012D
:103560000080BB000044025858440258106810F014
:1035700000607FF452AE7FE6106810F000503FF418
:103580007BAE03A8FFF714FD059875E6286810F4D4
:1035900080300DD0B0F5803F7FF46DAE106810F034
:1035A00000603FF469AE6846FFF72CFC029863E6C2
:1035B000106810F000707FF422AE5DE6D8F80010BD
:1035C00001F0E041B1F1405F2DD00DDCC9B1B1F1A6
:1035D000805F22D0B1F1005F7FF44DAE106810F033
:1035E00000507FF464AF47E6B1F1804F21D0B1F1D4
:1035F000A04F7FF440AE116811F4003F7FF43CAE61
:1036000039E600F027FF1C4909681C4AC1F3021182
:10361000515C01F01F01C8402EE6106810F00060F8
:103620007FF45FAF28E6106810F004007FF42BAE43
:1036300022E6106810F480707FF42BAE1CE6396827
:1036400011F040510CD0B1F1805F0FD0B1F1005FAB
:103650007FF411AE106810F000607FF442AF0BE60B
:10366000116811F4003F7FF407AE04E6106810F013
:1036700000707FF4C4ADFFE5204402589085000837
:103680002DE9F05F044600680025FB4FDFF8EC836E
:10369000C04310F0006F2E4620D1A06E58B1B0F597
:1036A000801F0DD0B0F5001F10D0B0F5401F18BF1F
:1036B000012519D011E0386840F40030386013E07B
:1036C000022104F1080002F0D1FA04E0022104F121
:1036D000280002F06DFB050006D02E462088C0436E
:1036E00010F4807F09D025E0A06ED8F8001021F4F6
:1036F00040110843C8F80000F0E7A06D052817D274
:10370000DFE800F003080E141400386840F40030BD
:1037100038600BE0002104F1080002F0A7FA04E091
:10372000002104F1280002F043FB054645B100E00A
:1037300001252E462088C04310F4007F09D02BE0DD
:10374000A06DD8F8001021F007010843C8F8000068
:10375000F0E7E06D802817D004DC48B140280CD099
:10376000012518E0C02818BFB0F5807FF8D111E01E
:10377000386840F4003038600CE004F108004FF085
:10378000000102F073FA04E0002104F1280002F0C5
:103790000FFB054645B12E462088DFF8E492C04372
:1037A00010F4806F0AD030E0E06DD8F8001021F4FA
:1037B000E07141EA0000C8F80000EDE7D4F8A80085
:1037C000B0F5800F19D005DC58B1B0F5001F0DD051
:1037D000012519E0B0F5C00F18BFB0F5000FF7D103
:1037E00011E0386840F4003038600CE004F1080063
:1037F0004FF0000102F03AFA04E0002104F1280041
:1038000002F0D6FA054635B12E462088C04310F4A2
:10381000006F0BD031E0D4F8A800D9F8001021F4E3
:10382000600141EA0000C9F80000EEE7D4F8AC00FE
:10383000B0F1007F19D005DC58B1B0F1807F0DD018
:10384000012519E0B0F1407F18BFB0F1806FF7D1CA
:1038500011E0386840F4003038600CE004F10800F2
:103860004FF0000102F002FA04E0002104F1280008
:1038700002F09EFA054635B12E462068C04310F08E
:10388000007F0BD022E0D4F8AC00D9F8001021F072
:10389000E06141EA0000C9F80000EEE7E06C98B191
:1038A000102806D0202809D0302818BF01250BD0B9
:1038B0000BE0386840F40030386005E0022104F184
:1038C000080002F0D3F9054635B12E462088C043E2
:1038D00010F4805F08D02DE06A48E16C026822F0A5
:1038E000300211430160F1E7206EB0F5005F19D09E
:1038F00005DC58B1B0F5805F0DD0012519E0B0F5B9
:10390000405F18BFB0F5804FF7D111E0386840F440
:10391000003038600CE004F108004FF0000102F0C4
:10392000A5F904E0002104F1280002F041FA05465F
:1039300035B12E462088C04310F4005F0AD02DE038
:10394000206ED8F8001021F4E04141EA0000C8F8E8
:103950000000EFE7606EB0F5403F1DD008DCD8B145
:10396000B0F5803F0BD0B0F5003F0FD0012514E03B
:10397000B0F5802F18BFB0F5A02FF7D10CE004F1FF
:1039800008004FF0010102F071F904E0012104F197
:10399000280002F00DFA054635B12E462088C043B6
:1039A00010F4804F0AD02EE0606ED8F8001021F499
:1039B000E02141EA0000C8F80000EFE7D4F8B000C9
:1039C000B0F1405F1DD008DCD8B1B0F1805F0BD002
:1039D000B0F1005F0FD0012514E0B0F1804F18BFA7
:1039E000B0F1A04FF7D10CE004F108004FF0010155
:1039F00002F03CF904E0012104F1280002F0D8F9BA
:103A0000054635B12E462088C04310F4004F0BD038
:103A100022E0D4F8B000D9F8001021F0E04141EAEA
:103A20000000C9F80000EEE7206F98B1B0F1805FA8
:103A300005D0B0F1005F18BF012505D00BE0386854
:103A400040F40030386005E0012104F1080002F084
:103A50000DF9054635B12E462068C04310F0807F31
:103A600012D029E0206FD8F8001021F0405108430F
:103A7000C8F80000F0E700002C44025850440258F7
:103A8000584402584C440258A06C98B1012806D002
:103A9000022809D0032818BF01250BD00BE0386895
:103AA00040F40030386005E0022104F1080002F023
:103AB000DDF8054635B12E462068C04310F4800F6E
:103AC00008D026E0FC48A16C026822F003021143F2
:103AD0000160F1E7DFF8E4A3DAF8000040F4807059
:103AE000CAF80000FEF73AFC8346DAF8000010F44A
:103AF000807F0CD1FEF732FCA0EB0B00642801D9CB
:103B0000032505E0DAF8000010F4807FF2D045B11B
:103B10002E462078DFF8A8A3C04310F0010F52D042
:103B200070E0E848B4F8B410006801F4407100F4A3
:103B3000407088420CD0E3480268016822F4407269
:103B400041F480310160016821F48031016002603C
:103B5000D4F8B400B0F5807F18D1FEF7FFFB8246A1
:103B6000D848016811F0020F08BF41F2883B0DD11F
:103B7000FEF7F4FBA0EB0A00584502D903252E46B8
:103B8000C7E7D048006810F0020FF1D0D4F8B410A5
:103B90004FF440708843CC481CBF016821F47C512D
:103BA00009D00160C748B4F8B4100268C1F30B0132
:103BB00011430160ADE7C54A036802EA111123F41D
:103BC0007C521143EDE7E06F182819D006DCB8B13C
:103BD000082808D010280DD0012512E0202818BF91
:103BE0002828F9D10CE004F108004FF0010102F09F
:103BF0003DF804E0012104F1280002F0D9F805465F
:103C000035B12E462078C04310F0020F0AD021E0D3
:103C1000E06FDAF8001021F0380141EA0000CAF83C
:103C20000000EFE7A06F062812D2DFE800F00F03D4
:103C3000090F0F0F012104F1080002F017F804E04A
:103C4000012104F1280002F0B3F8054645B100E077
:103C500001252E462078C04310F0040F0AD022E040
:103C6000A06FDAF8001021F0070141EA0000CAF85D
:103C70000000EFE7D4F89400062812D2DFE800F045
:103C80000F03090F0F0F012104F1080001F0EEFFEF
:103C900004E0012104F1280002F08AF8054645B14C
:103CA00000E001252E462078C04310F0200F0BD0F5
:103CB0002FE0D4F89400D9F8001021F0070141EA70
:103CC0000000C9F80000EEE7D4F89000B0F1405FC2
:103CD0001DD008DCD8B1B0F1805F0BD0B0F1005F2F
:103CE0000FD0012514E0B0F1804F18BFB0F1A04F04
:103CF000F7D10CE004F108004FF0000101F0B6FF2D
:103D000004E0022104F1280002F052F8054635B122
:103D10002E462078C04310F0400F0BD02FE0D4F88F
:103D20009000DAF8001021F0E04141EA0000CAF802
:103D30000000EEE7D4F89C00B0F5406F1DD008DC21
:103D4000D8B1B0F5806F0BD0B0F5006F0FD0012562
:103D500014E0B0F5805F18BFB0F5A05FF7D10CE0BC
:103D600004F108004FF0000101F080FF04E002219F
:103D700004F1280002F01CF8054635B12E462078E3
:103D8000C04310F0800F0BD02FE0D4F89C00D9F87E
:103D9000001021F4E05141EA0000C9F80000EEE70C
:103DA000D4F8A000B0F5C04F1DD008DCD8B1B0F5F4
:103DB000005F0BD0B0F5804F0FD0012514E0B0F5B7
:103DC000004F18BFB0F5204FF7D10CE004F1080008
:103DD0004FF0000101F04AFF04E0022104F1280045
:103DE00001F0E6FF054635B12E462078C04310F0BD
:103DF000080F0BD020E0D4F8A000D9F8001021F46F
:103E0000604141EA0000C9F80000EEE7D4F8840000
:103E1000B0F5805F07D1022104F1280001F0C8FF4E
:103E2000002818BF0126D4F88400DAF8001021F425
:103E300040510843CAF800002078C04310F0100F2A
:103E400015D1D4F89800B0F5807F07D1022104F194
:103E5000280001F0ADFF002818BF0126D4F8980013
:103E6000D9F8001021F440710843C9F80000206817
:103E7000C04310F4002F19D1D4F8A40040B1B0F51C
:103E8000803F0BD0B0F5003F18BF01250CD00CE0EF
:103E9000002104F1080001F0E9FE04E0022104F130
:103EA000280001F085FF054695B12E462068C043E5
:103EB00010F4802F16D030E04C44025800480258CD
:103EC000544402587044025810440258CFFFFF0077
:103ED000D4F8A400D9F8001021F440310843C9F8FF
:103EE0000000E3E7D4F88800B0F5801F08D0B0F5F3
:103EF000001F0AD0B0F5401F18BF01250BD00BE002
:103F0000386840F40030386005E0012104F12800F1
:103F100001F04EFF054635B12E462068C04310F42F
:103F2000803F0AD01EE0D4F88800DAF8001021F4AF
:103F300040110843CAF80000EFE7206D28B1B0F542
:103F4000803F18BF012505D00BE0386840F40030F1
:103F5000386005E0022104F1080001F087FE054603
:103F600035B12E462068C04310F0005F10D107E045
:103F70007648216D026822F4803211430160F1E736
:103F8000022104F1280001F013FF002818BF0126C8
:103F90002068C04310F4003F13D1D4F8800070B102
:103FA000B0F5807F07D0B0F5007F1CBFB0F5407F33
:103FB000012504D004E0386840F4003038603DB199
:103FC0002E4620686FEA000010F4801F14D10AE02A
:103FD000D4F88000DAF8001021F4407141EA0000C2
:103FE000CAF80000EDE7606FD8F8001021F000413A
:103FF00041EA0000C8F8000020686FEA000010F0F5
:10400000805F08D15248D4F8B810026822F4804288
:1040100042EA0101016020686FEA000010F4001F0D
:1040200008D1E06ED8F8001021F0807141EA00005C
:10403000C8F8000020686FEA000010F0804F0AD135
:104040004348016821F4004101600168D4F8BC20B4
:1040500041EA0201016020686FEA000010F0004FA1
:1040600007D13A48616D026822F0405242EA0101EC
:10407000016020686FEA000010F4000F09D1D4F845
:104080008C00DAF8001021F4400141EA0000CAF87F
:10409000000020794FF000056FEA000000F00100F9
:1040A000284307D1002104F1080001F0DFFD0028BA
:1040B00018BF06462079C04300F00200284307D10C
:1040C000012104F1080001F0D1FD002818BF0646C7
:1040D0002079C04300F00400284307D1022104F1F5
:1040E000080001F0C3FD002818BF06462079C04330
:1040F00000F00800284307D1002104F1280001F056
:1041000057FE002818BF06462079C04300F0100073
:10411000284307D1012104F1280001F049FE0028BD
:1041200018BF06462079C04300F02000284305D17F
:10413000022104F1280001F03BFE20B9002E04BF4B
:104140000020BDE8F09F0120BDE8F09F4C440258DC
:1041500010440258002804BF012070472DE9F05F89
:10416000DFF85C9204468A46D9F8000000F00F00A0
:1041700050450DD2D9F8000020F00F0040EA0A00A7
:10418000C9F80000D9F8000000F00F0050457DD1BB
:1041900020788C4D10F0040F0AD02069296801F0B6
:1041A0007001884204D9296821F070010843286011
:1041B0002078854E10F0080F0AD06069316801F050
:1041C0007001884204D9316821F0700108433060E1
:1041D000207810F0100F0AD0A069316801F4E06176
:1041E000884204D9316821F4E061084330602078C6
:1041F00010F0200F0BD07548E169026802F07002E0
:10420000914204D9026822F07002114301602078C3
:1042100010F0020F0AD0E068296801F00F0188420F
:1042200004D9296821F00F0108432860207810F094
:10423000010F45D06648A1682A6822F470621143D4
:1042400029606168022926D0032929D00068012944
:104250002BD010F0040F56D05E4F386820F00700C6
:1042600008433860FEF77AF839688046606801F0E4
:104270003801B1EBC00F18BF41F2883B20D000BF1E
:10428000FEF76CF8A0EB0800584500E03BE010D9C1
:104290000320BDE8F09F006810F4003FDCD132E05D
:1042A000006810F0007FD7D12DE010F4807FD3D1CB
:1042B00029E06068396801F03801B1EBC00FDFD147
:1042C000207810F0020F0AD0E068296801F00F0191
:1042D000814204D9296821F00F0108432860D9F8E8
:1042E000000000F00F00504510D9D9F8000020F070
:1042F0000F0040EA0A00C9F80000D9F8000000F0F9
:104300000F00504502D00120BDE8F09F207810F04A
:10431000040F0AD02069296801F07001814204D994
:10432000296821F0700108432860207810F0080FF8
:104330000AD06069316801F07001814204D93168A6
:1043400021F0700108433060207810F0100F0AD07F
:10435000A069316801F4E061814204D9316821F437
:10436000E06108433060207810F0200F0BD0174830
:10437000E169026802F070028A4204D9026822F000
:1043800070021143016000F0E5F813492B682A68B8
:10439000C3F3032302F00F02CB5C895C03F01F021E
:1043A00001F01F01D0400D4A20FA01F111600C49C3
:1043B00008600C480068BDE8F05FFEF75FBB0000D6
:1043C00000200052184402581C440258204402584D
:1043D0000044025810440258908500082000002430
:1043E0001C00002414000024DFF85CC03F2230B41D
:1043F0000260164ADCF800C0131D0CF0070CC0F870
:1044000004C0DFF84CC01C1D156805F4706585609C
:10441000156805F00F05C560126802F070020261B0
:104420001A6802F0700242611A6802F4E062826166
:10443000226802F07002C261DCF8000000F00F0098
:10444000086030BC704700001044025818440258FD
:104450000020005210B500F07DF80C4A0C490D4BBD
:104460001468D2F800C0C4F303220CF00F0C8A5C6D
:1044700011F80CC002F01F01074A20FA01F10CF0FC
:104480001F0021FA00F01860116010BD1844025896
:1044900090850008200000241C00002410B500F0C6
:1044A00059F8104A1049114B1468D2F800C0C4F3EF
:1044B00003220CF00F0C8A5C11F80CC002F01F02F2
:1044C000D0400CF01F0220FA02F21A60084B18606C
:1044D00008480068C0F30210085C00F01F0022FAD0
:1044E00000F010BD184402589085000820000024F8
:1044F0001C0000241C44025810B500F02BF8104A90
:104500001049114B1468D2F800C0C4F303220CF018
:104510000F0C8A5C11F80CC002F01F02D0400CF0A6
:104520001F0220FA02F21A60084B1860084800685F
:10453000C0F30220085C00F01F0022FA00F010BD5A
:104540001844025890850008200000241C00002414
:104550001C4402585E4930B45E4809685E4B11F055
:1045600038020CD00111082A06D0102A02BF5B487D
:1045700030BC7047182A0ED030BC08467047196806
:1045800011F0200F04BF30BC7047196830BCC1F374
:10459000C101C84070475249524C01F1040C0A68ED
:1045A0000968DCF80050246802F0030C05F00102F1
:1045B000C1F30511C4F3CC04002914FB02F200EE90
:1045C000102AF8EE400A02BF002030BC7047BCF150
:1045D000000F9FED451A454AB7EE000A1BD0DFEDEC
:1045E000441ABCF1010F02D0BCF1020F4AD002EE16
:1045F000101A1068F8EE422AC0F3080081EEA22AD1
:1046000001EE900AF8EE611A40EE811A31EE800A4E
:1046100022EE000A4BE0D3F800C01CF0200F1BD0A4
:104620001B6801EE901A1168C3F3C103F8EE612A0A
:10463000D84001EE900AC1F30800F8EE611A81EE4D
:10464000A22A01EE900AF8EE611A40EE811A31EECC
:10465000800A22EE000A2AE001EE901A1068DFEDCF
:10466000252AF8EE611AC0F3080082EEA12A01EEB5
:10467000900AF8EE611A40EE811A31EE800A22EEBD
:10468000000A14E001EE901A1068DFED1B2AF8EE24
:10469000611AC0F3080082EEA12A01EE900AF8EE3A
:1046A000611A40EE811A31EE800A22EE000A10688B
:1046B00030BCC0F34620401C00EE900AF8EE600AC1
:1046C00080EE201ABCEEC10A10EE100A70470000FE
:1046D000104402580090D0030044025840787D01F5
:1046E000284402583444025800000039304402582B
:1046F0000024744A0024744C20BCBE4B002804BF24
:10470000012070472DE9F05F04460078DFF8F4835C
:10471000FD4F10F0010FFD4D58D0D8F8000039685A
:1047200000F03800102819D0182804BF01F0030049
:10473000022813D06068B0F5803F04BF286840F4B9
:10474000803014D010B1B0F5A02F1BD0286820F411
:1047500080302860286820F4802008E0286810F461
:10476000003F33D06068002800F0E5822EE028602A
:104770006068D0B1FDF7F2FD0646286810F4003FEE
:1047800008D023E0286840F480202860286840F49E
:104790008030ECE7FDF7E2FD801B642800F21B820D
:1047A000286810F4003FF5D010E0FDF7D7FD06466D
:1047B000286810F4003F09D0FDF7D0FD801B642865
:1047C00000F20982286810F4003FF5D1207841F208
:1047D0000309CF4E10F0020F7FD0D8F800003968DF
:1047E00010F0380014D0182808BF11F0030F0FD0B4
:1047F000E068D8B3296821F0190141EA0000286077
:10480000FDF7ACFD8246286810F0040F36D040E07A
:10481000286810F0040F03D0E068002800F08B82B5
:10482000E168286820F0190008432860FDF796FD2C
:104830008246286810F0040F0BD100BFFDF78EFDF3
:10484000A0EB0A00022800F2C681286810F0040FCD
:10485000F4D0FDF77DFD484509D8206940281FD0D8
:10486000316821F47C3141EA00301EE01FE0207CF9
:10487000316821F0FE4141EA006016E0FDF76EFD6F
:10488000A0EB0A00022800F2A681286810F0040FAD
:10489000F4D0FDF75DFD4845E9D820694028DFD117
:1048A000306820F47C3040F40030306015E0286837
:1048B00020F001002860FDF751FD8246286810F0C5
:1048C000040F0AD0FDF74AFDA0EB0A00022800F20F
:1048D0008281286810F0040FF4D1207810F0100FB6
:1048E0006FD0D8F80000DFF82CB2396800F038003B
:1048F000082814D0182804BF01F0030001280ED0A6
:10490000E0690028286848D040F080002860FDF762
:1049100025FD8246286810F4807F26D02FE0286885
:1049200010F4807F1CBFE069802840F00482FDF70E
:104930000FFD48450ED8206A202805D0316821F0A7
:10494000F84141EA806026E0306820F0F84040F00D
:10495000804020E094F82000DBF8001021F07C512A
:1049600041EA0060CBF800002BE0FDF7F7FCA0EB7C
:104970000A0002287AD8286810F4807FF5D0FDF765
:10498000E7FC4845E6D8216A2029DDD0306820F0D0
:10499000F84040EA8160306013E020F08000286039
:1049A000FDF7DCFC0646286810F4807F09D000BFC4
:1049B000FDF7D4FC801B022858D8286810F4807FAB
:1049C000F6D1207810F0080F34D0DFF84C916069F0
:1049D0000028D9F8000016D040F00100C9F8000006
:1049E000FDF7BCFC0646D9F8000010F0020F21D1FB
:1049F000FDF7B4FC801B022838D8D9F8000010F06D
:104A0000020FF5D016E020F00100C9F80000FDF714
:104A1000A5FC0646D9F8000010F0020F0AD000BF2E
:104A2000FDF79CFC801B022820D8D9F8000010F06C
:104A3000020FF5D1207810F0200F2CD0A0690028AB
:104A4000286814D040F480502860FDF787FC0646A3
:104A5000286810F4005F1ED1FDF780FC801B02283F
:104A600004D8286810F4005FF6D014E07FE020F44A
:104A700080502860FDF772FC0646286810F4005F3D
:104A800009D000BFFDF76AFC801B02286FD8286898
:104A900010F4005FF6D1207810F0040F7AD0DFF820
:104AA0007C90D9F8000040F48070C9F80000FDF750
:104AB00055FC0646D9F8000010F4807F0AD100BFEB
:104AC000FDF74CFC801B642851D8D9F8000010F485
:104AD000807FF5D0A068DFF84890012804BFD9F89E
:104AE000000040F001000CD008B1052829D0D9F809
:104AF000000020F00100C9F80000D9F8000020F003
:104B000004000FE0104402582844025800440258A0
:104B1000044402580C440258744402580048025895
:104B200070440258C9F8000041F2883AA068F8B110
:104B3000FDF714FC0646D9F8000010F0020F0BD068
:104B400028E0D9F8000040F00400C9F80000D9F8C6
:104B5000000040F00100D4E7FDF700FC801B504549
:104B600039D8D9F8000010F0020FF5D012E032E089
:104B7000FDF7F4FB0646D9F8000010F0020F09D04B
:104B8000FDF7ECFB801B504525D8D9F8000010F04C
:104B9000020FF5D1606A00287ED0DFF8E491D8F8E2
:104BA000001009F1040801F038011829A9F10406E0
:104BB00073D00228286820F0807028600ED0FDF79E
:104BC000CDFB0446286810F0007F65D0FDF7C6FBDA
:104BD000001B02287DD90320BDE8F09FFDF7BEFB36
:104BE0008246286810F0007F0AD000BFFDF7B6FBB0
:104BF000A0EB0A000228EED8286810F0007FF5D15B
:104C0000E16A3868A26A20F0F30020F4407040EABC
:104C100001101043386094F834004FF4FE0194F80A
:104C20003C70238E0A024FEA402AB4F838C0781E3E
:104C30005B1EAAF50077ACF1010C07F47E47C3F3C5
:104C400008033B4301EA0C41194302EA00600843B0
:104C5000C9F80000306820F001003060D8F800008A
:104C6000A16C6FF3CF0040EAC100C8F800003168C2
:104C7000206C21F00C01084330603068616C20F03A
:104C8000020008433060306840F4803030603068A3
:104C900040F40030306001E06FE025E0306840F41F
:104CA00080203060306840F001003060286840F0BB
:104CB00080702860FDF752FB0446286810F0007FE2
:104CC0005BD100BFFDF74AFB001B022883D8286890
:104CD00000E003E010F0007FF4D04EE0286810F010
:104CE000007F7FF473AF48E039680128D9F80000ED
:104CF00021D0A26A01F0030393421CD1E26AC1F3FE
:104D000005118A4217D1226BC0F30801521E91424D
:104D100011D1616BC0F34622491E91420BD1A16BA8
:104D2000C0F30642491E914205D1E16BC0F3066013
:104D3000491E814202D00120BDE8F09FA16CD8F845
:104D40000000C0F3CC00814217D0306820F0010091
:104D50003060FDF703FB0546FDF700FBA842FBD0E2
:104D6000A06CD8F800106FF3CF0141EAC000C8F87A
:104D70000000306840F0010030600020BDE8F09F86
:104D80003044025870477047704790F83C20012A21
:104D900004BF022070472DE9F001012280F83C2079
:104DA000D1E90252D1E90083D1E904C422F440726E
:104DB0000E8B2A438D6A22F480621A43036822F420
:104DC000006242EA080222F4805242EA0C0222F413
:104DD000005242EA040222F4804242EA0502A3F1B0
:104DE000804722F47022B7F5803742EA06421CBFA2
:104DF000A3F1804CBCF5823C0DD1B1F824C022F463
:104E00007005D1E9074245EA0C5121F08071214338
:104E100021F000710A435A64002180F83C10BDE87B
:104E2000F00108467047000090F83C20012A04BFBA
:104E300002207047F0B4244D4FF0010C80F83CC0C4
:104E4000022280F83D200268204C5368AA429668EE
:104E500018BFA24204D14F6823F4700347EA03034A
:104E60000F6823F0700347EA030353600268AA4205
:104E700018BFB2F1804F1AD0A2F18043B3F580631E
:104E80001CBFA2F18043B3F5006310D0A2F18043B0
:104E9000B3F5406318BFA24209D0A2F18043B3F535
:104EA000C0531CBFA2F18043B3F5A03304D18B687B
:104EB00026F0800119439160002180F83DC080F800
:104EC0003C100846F0BC704700000140000401405F
:104ED000002804BF0120704710B5044690F83D003B
:104EE00028B9002084F83C00204600F022F8022077
:104EF00084F83D002068211D01F01AF9012084F892
:104F0000480084F83E0084F83F0084F8400084F8AC
:104F1000410084F8420084F8430084F8440084F897
:104F2000450084F8460084F8470084F83D000020DE
:104F300010BD704790F83D1001291CBF012070473B
:104F4000022180F83D100168CB6843F00103CB607B
:104F50000068A0F18042B2F5803218BFB0F1804FF6
:104F600023D0A0F18041B1F580611CBFA0F1804148
:104F7000B1F5006119D0A0F18041B1F540611CBFCD
:104F8000A0F18041B1F582310FD0A0F18041B1F59F
:104F9000C0511CBFA0F18041B1F5A03105D001681E
:104FA00041F001010160002070478168034A11400F
:104FB000062918BFB1F5803FF5D0F0E707000100E2
:104FC000704770B5044600680025016911F0020FB2
:104FD0001CBFC16811F0020F13D001216FF0020253
:104FE000026121772068806910F0030F204602D00B
:104FF000FFF7E6FF04E000F0A8F8204600F08EFA84
:1050000025772068016911F0040F1CBFC16811F0F9
:10501000040F13D002216FF004020261217720688F
:10502000806910F4407F204602D0FFF7C9FF04E0FA
:1050300000F08BF8204600F071FA257720680169AE
:1050400011F0080F1CBFC16811F0080F13D0042124
:105050006FF00802026121772068C06910F0030F29
:10506000204602D0FFF7ACFF04E000F06EF82046C7
:1050700000F054FA25772068016911F0100F1CBF69
:10508000C16811F0100F13D008216FF010020261F7
:1050900021772068C06910F4407F204602D0FFF7D6
:1050A0008FFF04E000F051F8204600F037FA257732
:1050B0002068016911F0010F1CBFC16811F0010FD8
:1050C00005D06FF001010161204600F028FA206848
:1050D000016911F0800F1CBFC16811F0800F05D06D
:1050E0006FF0800101612046FFF74DFE20680169E5
:1050F00011F4807F1CBFC16811F0800F05D06FF4E0
:10510000807101612046FFF73DFE2068016911F0C2
:10511000400F1CBFC16811F0400F05D06FF0400177
:105120000161204600F002FA2068016911F0200FA9
:105130001ABFC16811F0200F70BD6FF0200101612E
:105140002046BDE87040FFF71FBE70472DE9F04FC5
:10515000054690F83C0000270C4601280DBF0220B0
:10516000012085F83C00BDE8F08F0C2ADFF808C369
:10517000C24EDFF80C83C349C34B00F0C78005DC87
:105180008AB1042A61D0082A74D005E0102A00F000
:10519000F980142A00F032810127002085F83C00B4
:1051A0003846BDE8F08F2868026A884222F0010282
:1051B0000262D0F820904268D0F818A029F00209C5
:1051C000D4F808E0D4F800B02AF0730A2AF4803A40
:1051D0004EEA09094BEA0A0A18BF984204D0604512
:1051E0001CBFB042404507D1D4F80CB029F00809E3
:1051F0004BEA090929F00409884218BF984204D0F3
:1052000060451CBFB042404507D122F44071D4E94B
:10521000053243EA010142EA01024260C0F818A0E7
:1052200061684163C0F820902868816941F00801F5
:1052300081612868816921F0040181612868216900
:10524000826942EA01018161A7E72868214600F0EE
:10525000D1FF2868816941F4006181612868816912
:1052600021F48061816128682169826942EA012113
:10527000E9E7FFE72868026A884222F48072026246
:10528000D0F820904268D0F81CA029F40079D4F816
:1052900008E0D4F800B02AF0730A2AF4803A49EA08
:1052A0000E294BEA0A0A18BF984207D1D4F80CB06D
:1052B00029F4006949EA0B2929F48069884218BF5A
:1052C000984204D060451CBFB042404507D122F44B
:1052D0004051D4E9053241EA031141EA0212426029
:1052E000C0F81CA06168C163C0F820902868C1693B
:1052F00041F00801C1612868C16921F00401C16160
:1053000028682169C26942EA010139E02868026A15
:10531000884222F480510162D0F820904168C2692D
:1053200029F40059D4F808B0D4F800A022F4E642D9
:1053300022F0807249EA0B3942EA0A2218BF9842E9
:1053400004D060451CBFB042404504D1636921F4DC
:10535000804141EA83114160C26161680164C0F823
:1053600020902868C16941F40061C1612868C16961
:1053700021F48061C16128682169C26942EA012182
:10538000C1610AE72868026A22F480320262D0F81A
:1053900020904268D0F854A08842B4F808E029F47C
:1053A0000039D4F800B02AF0700121F4803149EAC4
:1053B0000E494BEA010118BF984204D060451CBF5A
:1053C000B042404504D1636922F4803242EA0322AC
:1053D0004260416561688165C0F820902868416D30
:1053E00041F0080141652868416D21F004014165E3
:1053F00028682169426D42EA01013AE02868026AA0
:1054000022F480120262D0F820904268D0F854A0B2
:105410008842B4F808E029F40019D4F800B02AF45E
:10542000E04121F0807149EA0E5941EA0B2118BF91
:10543000984204D060451CBFB042404504D1636926
:1054400022F4802242EA8322426041656168C1659C
:10545000C0F820902868416D41F4006141652868DA
:10546000416D21F48061416528682169426D42EAFD
:105470000121416591E600000040014000440140E7
:10548000004801400000014000040140002804BF22
:105490000120704710B5044690F83D0028B900205F
:1054A00084F83C00204600F023F8022084F83D00F8
:1054B0002068211D00F03CFE012084F8480084F89B
:1054C0003E0084F83F0084F8400084F8410084F8EE
:1054D000420084F8430084F8440084F8450084F8CE
:1054E000460084F8470084F83D00002010BD00000D
:1054F000006881B0A0F18041B1F580311CBF01B0DE
:1055000070470548016841F001010160006800F042
:105510000100009001B07047F044025870470068E5
:10552000B0F1804F18BF7047FDF772BA704790F81E
:105530008410012904BF022070474DF8044D012258
:1055400080F8842024214FF0200C0022C0F888101D
:1055500001680B680C6823F0005324F001040C6010
:10556000426601680B60C0F888C080F8842010464D
:105570005DF8044B7047000090F88420012A04BFB6
:105580000220704730B4012280F884202423C0F820
:1055900088300368D3F800C01C6824F001041C6044
:1055A00003689C6824F0606421439960416E00297F
:1055B00008BFA0F86A2014D00168114B03F1080459
:1055C0008A688968C2F34262490F5D5C615C2D01A3
:1055D000B5FBF1F5A0F86A50995CA25C0901B1FB3A
:1055E000F2F2A0F86820202203680021C3F800C06E
:1055F000C0F8882080F88410084630BC704700004E
:105600008085000890F88420012A04BF022070479A
:1056100030B4012280F884202423C0F88830036845
:10562000D3F800C01C6824F001041C6003689C6867
:1056300024F0604421439960416E002908BFA0F81E
:105640006A2014D00168114B03F108048A68896844
:10565000C2F34262490F5D5C615C2D01B5FBF1F55F
:10566000A0F86A50995CA25C0901B1FBF2F2A0F8C3
:105670006820202203680021C3F800C0C0F88820F9
:1056800080F88410084630BC704700008085000810
:10569000002804BF0120704710B50446D0F88800E8
:1056A00028B9002084F88400204600F029F824203E
:1056B000C4F888002068016821F0010101602046DB
:1056C00000F0AAFE012808BF10BDA06A00281CBF78
:1056D000204600F0D7FD2068416821F490414160E8
:1056E0002068816821F02A0181602068016841F00A
:1056F000010101602046BDE8104000F030BE00000E
:1057000030B5B7B0054600246846C02130943194C6
:10571000329433943494FAF785FE2868A0F18041DE
:10572000B1F588311CBF37B030BD012100201F9476
:10573000CDE900106846FDF7A3FF002818BFFAF76F
:10574000AAFF1048016841F010010160006800F0F4
:10575000100035900C48016841F0020101600068BA
:105760000221042200F0020035904FF440403090B6
:10577000CDE93114054830A9CDE93342FCF7CEFC20
:1057800037B030BDF0440258E044025800040258DB
:10579000FEE7000030B58BB022480024204A0425E3
:1057A00007940121089409940094019402940394AD
:1057B000049405940694C0E900248460C0E903457C
:1057C000047544758161047744628462C462046331
:1057D000446380F83840FBF733FA002818BFFAF723
:1057E0005AFF07A90F480794FAF758FF002818BF77
:1057F000FAF751FF0C480621009040F2FF72039225
:10580000CDE9011407486946CDE904548DF81940E3
:10581000FAF7CAFF002818BFFAF73DFF0BB030BDFA
:1058200000200240A40000240800900C094808B59C
:10583000016841F00101016000680022052100F0CB
:10584000010000900B20FDF783F9BDE808400B2014
:10585000FDF76EB9D84402581748002110B5154C11
:105860004FF0020C01220460102481600423C16007
:105870000174417481744461C0E9062CC0E908C216
:105880008262C262C0E90C218163C163C0E9101366
:10589000C0E91213C0E914138165C1650166C0E94E
:1058A0001913FCF7BFF9002808BF10BDBDE8104070
:1058B000FAF7F1BE00A00040800100240D4A00214B
:1058C0000D4810B501F094F80C4C00210C4A2060F2
:1058D0000C4801F08DF8606000210B4A0B4801F084
:1058E00087F8A06000210A4A0A4801F081F8E060C8
:1058F00010BD000074840008055F0008000000244B
:1059000098840008FD5E0008BC840008F55E00086D
:10591000E08400080D5F0008194881B0016841F07B
:1059200004010160016801F004010091016841F087
:1059300080010160016801F080010091016841F07F
:1059400001010160016801F001010091016841F06D
:1059500010010160016801F010010091016841F03F
:1059600002010160016801F002010091016841F04B
:1059700008010160006800F00800009001B0704765
:10598000E044025810B59AB0002468465421169499
:10599000179418941994FAF745FD1B481949C0E962
:1059A00000148460FCF7E0FC002818BFFAF773FECF
:1059B0004FF6FD7008220521CDE91604CDE9181235
:1059C000114816AAFCF75CFD002818BFFAF763FE21
:1059D000012000940194052102946A46CDE9034018
:1059E0000594069407940848089409940A940B9423
:1059F0000C94FCF78AFD002818BFFAF74CFE1AB089
:105A000010BD00000074014020020024154801224E
:105A10000021154B10B5DFF848C0C0E90212016142
:105A200041618161C1610162C0E900C3FCF71EFFF1
:105A3000002818BFFAF72FFE00210A48FCF7B4FE31
:105A4000002818BFFAF727FE00210648FCF7DEFE03
:105A5000002808BF10BDBDE81040FAF71CBE0000CA
:105A600000540040FC020024B1757030154801223A
:105A70000021154B10B5DFF848C0C0E902120161E2
:105A800041618161C1610162C0E900C3FCF7EEFEC2
:105A9000002818BFFAF7FFFD00210A48FCF784FE32
:105AA000002818BFFAF7F7FD00210648FCF7AEFE04
:105AB000002808BF10BDBDE81040FAF7ECBD00009B
:105AC000001C005850030024B175703070B59CB0B4
:105AD000464D00244FF6FF70434E199417941894C6
