:020000040800F2
:10000000D85500246D0300088D7200082F6D00087C
:100010008972000859060008E78400080000000003
:10002000000000000000000000000000AD02000819
:10003000630900080000000009030008817500083A
:100040008703000887030008870300088703000868
:100050008703000887030008870300088703000858
:100060008703000887030008870300085D0600086F
:100070008703000887030008870300088703000838
:100080008703000887030008870300088703000828
:100090008703000887030008870300088703000818
:1000A0008703000887030008870300088703000808
:1000B000CD7700088703000887030008870300083E
:1000C00087030008870300088703000887030008E8
:1000D00087030008870300088703000887030008D8
:1000E000870300088703000800000000870300085A
:1000F00087030008870300088703000887030008B8
:1001000087030008870300088703000887030008A7
:100110008703000887030008870300088703000897
:100120008703000887030008870300088703000887
:100130008703000887030008870300088703000877
:1001400000000000000000000000000000000000AF
:100150008703000887030008870300088703000857
:100160008703000887030008870300088703000847
:100170008703000887030008870300088703000837
:100180008703000887030008870300088703000827
:100190008703000887030008870300088703000817
:1001A0008703000887030008870300088703000807
:1001B00087030008870300088703000887030008F7
:1001C00087030008870300088703000887030008E7
:1001D00087030008870300088703000887030008D7
:1001E00087030008870300088703000887030008C7
:1001F00087030008870300088703000887030008B7
:1002000087030008870300088703000887030008A6
:100210008703000887030008870300088703000896
:100220008703000887030008870300080000000018
:100230008703000887030008000000008703000808
:100240008703000887030008870300088703000866
:100250008703000887030008870300088703000856
:100260008703000887030008870300088703000846
:1002700087030008870300088703000800000000C8
:1002800087030008870300088703000800000000B8
:100290000000000087030008DFF80CD000F0ECF845
:1002A0000048004749850008D85500242C4B1968A0
:1002B0000868B0E8F04F80F30988BFF36F8F4FF004
:1002C000000080F3118870470000000008480068B3
:1002D000006880F308884FF0000080F3148862B64D
:1002E00061B6BFF34F8FBFF36F8F00DF00BF00BF5A
:1002F00008ED00E0DFF80C00016841F470010160D6
:10030000704700BF88ED00E0EFF30980BFF36F8F07
:10031000134B1A681EF0100F08BF20ED108A20E959
:10032000F04F106009B44FF0500080F31188BFF314
:100330004F8FBFF36F8F09F051F94FF0000080F33A
:10034000118809BC19680868B0E8F04F1EF0100F5A
:1003500008BFB0EC108A80F30988BFF36F8F704735
:1003600038040024EFF305807047000006488047FA
:1003700006480047FEE7FEE7FEE7FEE7FEE7FEE78A
:10038000FEE7FEE7FEE7FEE7D176000899020008E7
:100390002DE9F05F0546002092469B4688460646BA
:1003A000814640241BE0284641464746224600F04D
:1003B00053F853465A46C01A914110D31146184675
:1003C000224600F03AF82D1A67EB01084F46224604
:1003D0000120002100F031F817EB00094E41201EEA
:1003E000A4F10104DFDC484631462A464346BDE815
:1003F000F09F40EA01039B0703D009E008C9121FE0
:1004000008C0042AFAD203E011F8013B00F8013BCE
:10041000521EF9D27047D2B201E000F8012B491EFA
:10042000FBD270470022F6E710B513460A46044691
:100430001946FFF7F0FF204610BD202A04DB203AC2
:1004400000FA02F1002070479140C2F1200320FA27
:1004500003F3194390407047202A04DB203A21FA25
:1004600002F00021704721FA02F3D040C2F12002CD
:100470009140084319467047064C074D06E0E06876
:1004800040F0010394E8070098471034AC42F6D3DB
:10049000FFF706FFA4A50008C4A5000870B58C18D6
:1004A00010F8015B15F0070301D110F8013B2A1188
:1004B00006D110F8012B03E010F8016B01F8016B75
:1004C0005B1EF9D12B0705D40023521E0DD401F871
:1004D000013BFAE710F8013BCB1A921C03E013F83A
:1004E000015B01F8015B521EF9D5A142D8D300206F
:1004F00070BD000070B504464F492068884203D0A3
:100500004E492068884208D14D48006800F44030C8
:1005100008B1012009E0002007E04A48006800F423
:10052000403008B1012000E00020B8B105F05AF8D1
:1005300005466068B0F5803F06D0B0F5003F04D0B6
:10054000B0F5403F08D105E000BF6068000CB5FB86
:10055000F0F502E0AD0800E000BF2BE04FF4002012
:10056000002103F06DFB05466068C0F31101F9B985
:1005700080140C281CD2DFE800F01B060708090ACB
:100580000B111315171900BF00BF00BF00BF00BF3C
:100590006068800C4000B5FBF0F50AE02D0908E02A
:1005A0006D0906E0AD0904E0ED0902E02D0A00E066
:1005B00000BF00BF02F024FC41F20301884210D8C2
:1005C0002148854206D92068806840F480702168FF
:1005D00088602FE02068806820F48070216888603F
:1005E00028E06D081948854206D82068806820F404
:1005F0004070216888601DE01548854208D8206851
:10060000806820F4407040F480702168886011E0B8
:100610001048854208D82068806820F4407040F473
:1006200000702168886005E02068806840F44070B0
:100630002168886070BD0000002002400021024057
:100640000823024008630258002D3101105E5F004C
:1006500020BCBE0040787D0100BFFEE710B5024817
:1006600001F094F810BD00001C0500240146374A33
:100670000868904249D0354A18320868904244D000
:10068000324A3032086890423FD0304A48320868D7
:1006900090423AD02D4A60320868904235D02B4AB9
:1006A00078320868904230D0284A903208689042E8
:1006B0002BD0264AA8320868904226D0244A0868DF
:1006C000904222D0224A1832086890421DD0204A17
:1006D00030320868904218D01D4A4832086890426B
:1006E00013D01B4A6032086890420ED0184A783204
:1006F0000868904209D0164A90320868904204D0A7
:10070000134AA8320868904201D1012000E000207D
:10071000B0B10A78103A1823B2FBF3F000F00702E8
:100720000C4B9A5CCA65032805D90A686FF3090265
:10073000121D8A6503E00A686FF309028A6503E007
:10074000086820F0FF008865886D7047100002403F
:1007500010040240D4A4000810B502682B4C0368B2
:10076000A34222D0294C14340368A3421DD0274C45
:1007700028340368A34218D0244C3C340368A342B5
:1007800013D0224C50340368A3420ED01F4C643463
:100790000368A34209D01D4C78340368A34204D0F7
:1007A0001A4C8C340368A34201D1012300E00023DA
:1007B0008BB10378083B1424B3FBF4F1144B03EB27
:1007C00081030366124B8033436601F01F0401234B
:1007D000A340836618E00378103B1824B3FBF4F1C0
:1007E0000C4B9A4204D80B4BA83B9A4200D30831D9
:1007F000094B03EB81030366074B8033436601F02B
:100800001F040123A340836610BD00000854025852
:1008100000580258B8040240000802400179A9B308
:10082000082940D8204B02689A4222D01E4B14332C
:1008300002689A421DD01C4B283302689A4218D095
:10084000194B3C3302689A4213D0174B503302685D
:100850009A420ED0144B643302689A4209D0124B6C
:10086000783302689A4204D00F4B8C3302689A4264
:1008700001D1012200E000224AB14A1E0B4B03EBDA
:100880008202C266094A4032026708E00BE04A1E53
:10089000074B03EB8202C266054A403202674A1EDA
:1008A0000123934043677047085402580059025887
:1008B00000090240014600208A69D2B98A6A32B131
:1008C000012A0DD0022A03D0032A10D10EE000BF66
:1008D000CA6A02F08072B2F1807F00D1012007E085
:1008E000CA6AB2F1C07F00D1012001E000E000BF80
:1008F00036E08A69B2F5005F1BD18A6A32B1012AFB
:1009000007D0022A03D0032A11D10AE000BF012038
:100910000EE0CA6A02F08072B2F1807F00D101203D
:1009200006E0CA6AB2F1C07F00D1012000E000BF3A
:1009300016E08A6A32B1012A05D0022A04D0032ABD
:100940000CD103E000BF00BF012008E0CA6A02F03A
:100950008072B2F1807F00D1012000E000BF00BFB3
:100960007047704772B600BFFEE7000010B5014641
:100970004A6B0868D0F884004FF6FC74A04340EA44
:1009800082000C68C4F884000868D0F8840020F461
:100990007F04088F44EA00400C68C4F88400886B28
:1009A00002440868D0F888004FF6FC74A04340EA7F
:1009B00082000C68C4F888000868D0F8880020F429
:1009C000FE04888F44EA00400C68C4F88800C86BB5
:1009D00002EB40020868D0F8A0004FF6FC74A04378
:1009E00040EA82000C68C4F8A0000868D0F8A000B3
:1009F00020F4FE044020405A44EA00400C68C4F849
:100A0000A000D1E9104004FB00220868D0F8B00033
:100A10004FF6FC74A04340EA82000C68C4F8B000B2
:100A20000868D0F8B00020F4FE04B1F8480044EAA9
:100A300000400C68C4F8B000D1E9124004FB002269
:100A40000868D0F8AC004FF6FC74A04340EA82007E
:100A50000C68C4F8AC00D1E9144004FB002208681B
:100A6000D0F8F0004FF6FC74A04340EA82000C6816
:100A7000C4F8F0000868D0F8F00020F47C14B1F855
:100A8000580044EA00400C68C4F8F000886D02EB9E
:100A900040020868D0F8C0004FF6FC74A04340EA5A
:100AA00082000C68C4F8C0000868D0F8C00020F4C8
:100AB0007C14B1F85C0044EA00400C68C4F8C00043
:100AC0000868D0F8C00020F07C5491F8600044EA37
:100AD00000600C68C4F8C0002A4C486B04EB80002E
:100AE000C866CC6E886B04EB80040C670C6FC86B17
:100AF00004EBC0044C67D1E9100460434C6F04EB75
:100B000080048C67D1E9120460438C6F04EB80048D
:100B1000CC67D1E914046043CC6F04EB80048020DF
:100B200044504458886D04EBC004842044508C6EBB
:100B3000C86D60438424645804EB800488204450CA
:100B40008C6E086E60438824645804EB8004902007
:100B5000445040580C4CA04209D99831486840F0A4
:100B600020004860032001F89809012010BDCB6ED9
:100B700002E0002018601B1D902040589842F8D8D1
:100B80000020F3E700AC0040FCD300402DE9F04723
:100B9000002489460427054602F038F9184E80469D
:100BA000306937EA00000DD1B5F1FF3F06D002F001
:100BB0002DF9A0EB0800A84210D87DB1306937EAC2
:100BC0000000F1D0B9F1010F0BD0B4B10D4881692B
:100BD0002143816174610120BDE8F0870320BDE8F5
:100BE000F0870948316911EA0004EFD1306910F447
:100BF000803F1CBF4FF4803070610020BDE8F0875B
:100C000000200052E40800240000EE1710B504464E
:100C1000204600F06FF810BD2DE9F05F05462888EA
:100C20004FF0006101EB404000F5FE3601F0D2FFCD
:100C30002D482E49486100244DE0281D00EB441248
:100C400006EB4411012001F07BFF002842D0082769
:100C500006EB4418281D00EB44194FF0010A5146D9
:100C60004CF25030FFF792FF83462048C06840F0B6
:100C700002001E49C86000BF00BF00BFBFF36F8FF6
:100C800000BF00BF00BF00BF00BF00BFBFF34F8F5A
:100C900000BF00BF00BF00BFD9F80000C8F80000C7
:100CA00008F1040809F10409781EC7B2002FF3D136
:100CB00051464CF25030FFF769FF83460B48C0683D
:100CC00020F002000949C86000BF002008490875EB
:100CD00000BF00BF641C202CAFD301F023FF2846C7
:100CE00000F008F8BDE8F09F010003020020005268
:100CF000E408002470B5044601F06CFF0A480B4973
:100D000048612088890301EB404000F5FE35002052
:100D100003E02A5C211D0A54401CB0F5806FF8D313
:100D200001F000FF70BD000001000302002000522E
:100D30002DE9F04107460E4614461D466019B0F5F0
:100D4000806F01D9FFF70EFE002004E0325C23180B
:100D5000391DCA54401CA842F8D3BDE8F0810000F8
:100D60002DE9F04399B004460E464FF00008306874
:100D700000B100BF00BF94F85000012803D1022049
:100D800019B0BDE8F083012084F8500000BF0020B6
:100D90001590169046492068884202D14548009037
:100DA00001E000200090009850B9606D40F02000F4
:100DB000606500BF002084F8500000BF0120DFE71D
:100DC000009805F0CFFF0746206805F0CBFF00280C
:100DD00061D1002F5FD136492068884203D0354960
:100DE0002068884201D1344800E034480546306824
:100DF00058B3A86820F4404071680843A8602C49A3
:100E00002068884203D02B492068884201D12A48B3
:100E100000E02A482849884209D1254805F093FF77
:100E20008146244805F08FFF49EA000002E024488B
:100E300005F089FF70BBB16830680843A96840F6C7
:100E40001F7291430843A8602BE0A86820F440403B
:100E5000A86017492068884203D016492068884254
:100E600001D1154800E015481349884209D11048BE
:100E700005F069FF81460F4805F065FF49EA00006B
:100E800002E00F4805F05FFF20B9A86840F61F7127
:100E90008843A86005E0606D40F0200060654FF079
:100EA000010800BF002084F8500000BF404667E7FB
:100EB000002002400021024000230240006302584B
:100EC000006002582DE9F84F04460D464FF0000A25
:100ED0000020009094F83800012800D100E000BF05
:100EE000F849E868884200D00EE0F7492068884257
:100EF00000D100BFF5492068884200D100BFF44905
:100F00002068884200D100BF00BF94F8500001283B
:100F100002D10220BDE8F88F012084F8500000BF04
:100F2000206805F01AFF00287ED12068C169286872
:100F3000C0F3130018B92868C0F3846004E028687F
:100F400090FAA0F0B0FA80F000F01F02012090406B
:100F500001432068C1612168D5E9002001F1300C0E
:100F6000C0F3012B0CEB8B03D3F800C000F01F0E75
:100F70004FF01F0B0BFA0EFB2CEA0B0C00F01F0BB3
:100F8000C2F3846E0EFA0BFE4CEA0E0CC3F800C0DE
:100F900000BF206805F0E1FE8146206805F0C9FE2B
:100FA0008046B9F1000F6FD1B8F1000FFBD1AA68EC
:100FB0002968206805F0DBFEC648006800F0704034
:100FC000B0F1805F07D168692168C968C1F3820107
:100FD0004900884014E02068C06800F0100038B96B
:100FE00068692168C968C1F382014900884007E047
:100FF00068692168C96801F01001890849008840C2
:1010000007462869042840D020682A68296900F129
:10101000600C0CEB8103D3F800C00CF0004C02F024
:10102000F84B4BEA070B00E0CCE14CEA0B0CC3F8A1
:1010300000C000BF20686A7E2969012A01D1D20759
:1010400000E00022134600F1600C0CEB8102D2F8A4
:1010500000C02CF0004C4CEA030CC2F800C000BFEA
:1010600020682B7E2969012B01D1DB0200E00023DF
:101070001A46036923F4F04301F01F0C02FA0CFC3A
:1010800043EA0C03036100BF37E02068006E00F004
:10109000F8402978B0EB816F05D12068006E20F010
:1010A0000040216808662068406E00F0F84029780A
:1010B000B0EB816F05D12068406E20F000402168C0
:1010C00048662068806E00F0F8402978B0EB816FA8
:1010D00005D12068806E20F0004021688866206875
:1010E000C06E00F0F8402978B0EB816F05D1206820
:1010F000C06E20F000402168C866206805F01EFE22
:10110000002872D12068EA682968D0F8C030C1F39D
:10111000130C23EA0C0302F0180BDFF8BCC12CFA05
:101120000BFC0CEA010C43EA0C03C0F8C03000BF12
:101130006449E86888427DD12B68C3F313031BB967
:101140002B68C3F3846304E02B6893FAA3F3B3FA28
:1011500083F35B1C03F01F03092B3ED82B68C3F3FA
:1011600013031BB92B68C3F3846304E02B6893FA61
:10117000A3F3B3FA83F35B1C03F01F034FF0010CDE
:101180000CFA03FC2B68C3F313031BB92B68C3F3DE
:10119000846304E02B6893FAA3F3B3FA83F35B1C34
:1011A00003F01F034CEA836C2B68C3F313031BB9D2
:1011B0002B68C3F3846304E02B6893FAA3F3B3FAB8
:1011C00083F35B1C03F01F0303EB43034FF0000B9F
:1011D0004BEA03534CEA030341E02B68C3F31303C8
:1011E00023B92B68C3F3846305E0A9E02B6893FA65
:1011F000A3F3B3FA83F35B1C03F01F034FF0010C5E
:101200000CFA03FC2B68C3F313031BB92B68C3F35D
:10121000846304E02B6893FAA3F3B3FA83F35B1CB3
:1012200003F01F034CEA836C2B68C3F313032BB941
:101230002B6800E018E0C3F3846304E02B6893FAA2
:10124000A3F3B3FA83F35B1C03F01F030A3B03EB26
:1012500043034FF0007B4BEA03534CEA0303194668
:10126000AA68206805F083FD286800F00040002887
:1012700066D0154A2168914203D0144A21689142F0
:1012800001D1164900E016490846816801F0E07670
:1012900000BF0D492068884203D00C49206888426D
:1012A00001D10E4800E00E480C4988421AD1064888
:1012B00005F044FD8346054805F040FD4BEA00007B
:1012C00013E000000000FF47002002400021024020
:1012D000006002580010005CFFFF0F000023024076
:1012E000006302583E4805F029FDE8BB3D492868E7
:1012F000884226D106F4000018BB3949206888428C
:1013000066D1394B22689A4203D0384B22689A4200
:1013100001D1374A00E0374A104646F4000105F093
:101320003AFD354800683549B0FBF1F0401C4000FB
:10133000009002E00098401E009000980028F9D12B
:1013400046E02F492868884219D106F08070B0B96C
:101350002349206888423BD1234B22689A4205D01A
:10136000224B22689A4200E025E001D1204A00E0A9
:10137000204A104646F0807105F00DFD28E0214915
:101380002868884224D106F4800008BB14492068EC
:1013900088421DD1144B22689A4203D0134B226815
:1013A0009A4201D1124A00E0124A104646F48001E6
:1013B00005F0F1FC0CE0606D40F0200060654FF03E
:1013C000010A05E0606D40F0200060654FF0010A01
:1013D00000BF002084F8500000BF50469AE500008E
:1013E00000600258000084CB00200240002102402F
:1013F000002302400063025830040024400D030023
:10140000000052C70000B8CF2DE9F84F04464FF056
:1014100000090020009014B90120BDE8F88FE068B1
:1014200018B1207F012800D100BF606D30B920467F
:1014300000F030F90020A06584F850002068816831
:10144000C1F3407131B120688168874A11408160E1
:1014500000BF00BF206805F07BFCA8B92068816848
:10146000824A114041F08051816000BF804800688D
:101470008049B0FBF1F0401C009002E00098401E53
:10148000009000980028F9D1206805F061FC48B967
:10149000606D40F010006065A06D40F00100A06537
:1014A0004FF00109206805F058FC0646606D00F019
:1014B000100000287ED1002EFCD1606D20F48070D9
:1014C00040F002006065206805F038FC78BB6A498E
:1014D0002068884203D069492068884201D1684861
:1014E00000E068486649884209D1634805F026FC57
:1014F0008246624805F022FC4AEA000002E06248A7
:1015000005F01CFC98B95C4B22689A4203D05B4BF7
:1015100022689A4201D15A4A00E05A4A104661684C
:10152000826822F47C120A43826000BF00BF01F08F
:1015300067FC41F2030188420ED9A06810280BD144
:10154000607D216B41EA4030A168084340F00C0106
:10155000207F41EA004508E0607D216B41EA403090
:10156000A1680843217F40EA0145207F012803D17B
:10157000208C401E45EA4045606A28B1A08C00F4EA
:101580007870A16A084305432068C0683F49084055
:1015900028432168C860206805F0DFFB804620688A
:1015A00005F0C7FB0746B8F1000F3BD1D7BB207D44
:1015B000E16A00E050E041EA80352068C06844F20A
:1015C0000301884328432168C86094F83800012843
:1015D00017D1606A08B1A06A00B900BFA08F401E91
:1015E000012141EA0041206C0843616C0843A16C71
:1015F000084321680969264A1140084321680861A7
:1016000005E02068006920F0010021680861206879
:10161000006920F07040616B084321680861204632
:10162000FEF768FFE068012809D12068006B20F010
:101630000F00A169491E08432168086305E020687E
:10164000006B20F00F0021680863606D20F002003D
:1016500040F00100606505E0606D40F010006065DD
:101660004FF001094846D8E6C0FFFF5FC0FFFF7F8B
:1016700030040024400D03000020024000210240FD
:1016800000230240006302580060025803C0F0FFCC
:101690001EF800FC10B5B8B00446142132A8FEF7BD
:1016A000C1FEC02102A8FEF7BDFE33492068884272
:1016B00060D14FF400210020CDE9021002200490F7
:1016C0000C2105910221069107910891C0210991F1
:1016D00020210A9100210B9100202B9002A802F0FA
:1016E00007FF08B1FFF73EF900BF2448006840F04B
:1016F0002000224908600846006800F020000190A0
:1017000000BF00BF00BF1D480830006840F0010066
:101710001A49083108600846006800F0010001908D
:1017200000BF00BF4020329003203390002034904F
:1017300032A9134801F066FA1248134908600920DB
:101740004860002110488160C1604FF480610161F0
:1017500049004161890081610021C16101624162EA
:1017600000F090FD08B1FFF7FDF800BF0648E06407
:10177000846300BF38B010BD00200240D844025836
:1017800000000258100002401C0500242DE9F84F0B
:10179000044600200090FE4800684FF41651B0FB4C
:1017A000F1FAA66DD4F858803768D8F80090F94956
:1017B0002068884249D0F74918312068884244D0CF
:1017C000F4493031206888423FD0F24948312068DE
:1017D00088423AD0EF4960312068884235D0ED49DF
:1017E00078312068884230D0EA49903120688842B8
:1017F0002BD0E849A8312068884226D0E6492068E5
:10180000884222D0E4491831206888421DD0E2493C
:1018100030312068884218D0DF494831206888423A
:1018200013D0DD496031206888420ED0DA49783122
:101830002068884209D0D84990312068884204D075
:10184000D549A8312068884201D1012000E000205C
:1018500000287DD094F85C0000F01F01082088402B
:101860003840002868D0CB492068884249D0C9490F
:1018700018312068884244D0C649303120688842F7
:101880003FD0C4494831206888423AD0C1496031CC
:101890002068884235D0BF4978312068884230D0EE
:1018A000BC499031206888422BD0BA49A8312068C1
:1018B000884226D0B8492068884222D0B6491831DB
:1018C000206888421DD0B44930312068884218D041
:1018D000B14948312068884213D0AF49603120684F
:1018E00088420ED0AC4978312068884209D0AA4994
:1018F00090312068884204D0A749A83120688842E6
:1019000004D12068006800F0040003E0206800684B
:1019100000F0080080B12068006820F00400216811
:10192000086094F85C0000F01F0108208840B06057
:10193000606D40F00100606594F85C0000F01F01EC
:10194000012088403840E8B392492068884200E08E
:10195000B7E24BD08F4918312068884246D08D4974
:1019600030312068884241D08A4948312068884215
:101970003CD0884960312068884237D08549783129
:101980002068884232D083499031206888422DD027
:101990008049A8312068884228D07F492068884241
:1019A00024D07D491831206888421FD07A493031CF
:1019B000206888421AD0784948312068884215D07A
:1019C000754900E026E06031206888420ED07249F7
:1019D00078312068884209D06F4990312068884268
:1019E00004D06D49A8312068884204D1206840693C
:1019F00000F0800002E020680068002050B194F8F8
:101A00005C0000F01F0101208840B060606D40F074
:101A10000200606594F85C0000F01F01042088401B
:101A20003840E8B35B49206888424BD059491831A7
:101A30002068884246D0574930312068884241D0DA
:101A400054494831206888423CD05249603120686E
:101A5000884237D04F4978312068884232D04D498A
:101A60009031206888422DD04A49A83120688842A8
:101A700028D049492068884224D047491831206835
:101A800088421FD044493031206888421AD04249E8
:101A900048312068884215D03F496031206800E015
:101AA00024E088420ED03C4978312068884209D031
:101AB000394990312068884204D03749A8312068DC
:101AC000884204D12068006800F0020002E020682B
:101AD0000068002050B194F85C0000F01F01042061
:101AE0008840B060606D40F00400606594F85C0070
:101AF00000F01F01102088403840E8B325492068D5
:101B0000884251D023491831206888424CD021495D
:101B100030312068884247D01E49483120688842C9
:101B200042D01C496031206888423DD01949783143
:101B30002068884238D0174990312068884233D0D5
:101B40001449A831206888422ED013492068884261
:101B50002AD0114918312068884225D00E493031E9
:101B60002068884220D00C494831206888421BD028
:101B700009496031206800E04DE0884214D00649F0
:101B80007831206888420FD003499031206805E001
:101B9000300400241000024010040240884203D0A8
:101BA000FE492068884204D12068006800F00800DF
:101BB00003E02068006800F0040060B394F85C0063
:101BC00000F01F0110208840B0602068006800F419
:101BD000802080B12068006800F4002028B9206CC3
:101BE000C8B12046216C884715E0A06C98B120460A
:101BF000A16C88470FE02068006800F4807028B965
:101C00002068006820F0080021680860206C10B18E
:101C10002046216C884794F85C0000F01F012020CA
:101C20008840384000287DD0DD492068884249D06E
:101C3000DB4918312068884244D0D94930312068C6
:101C400088423FD0D6494831206888423AD0D449AA
:101C500060312068884235D0D14978312068884287
:101C600030D0CF499031206888422BD0CC49A83160
:101C70002068884226D0C949A8392068884221D0E6
:101C8000C6499039206888421CD0C44978392068F8
:101C9000884217D0C14960392068884212D0BF49B4
:101CA0004839206888420DD0BC49303920688842C4
:101CB00008D0BA4918392068884203D0B74920684B
:101CC000884204D12068006800F0100003E020681A
:101CD000006800F0020028B394F85C0000F01F01D7
:101CE00020208840B06094F8350004282DD1206869
:101CF000006820F01600216808602068406920F024
:101D0000800021684861206C08B9A06C28B1206867
:101D1000006820F008002168086094F85C0000F07A
:101D20001F0100E03FE03F208840B060012084F8C0
:101D3000350000BF002084F8340000BF206D10B1D2
:101D40002046216D8847BDE8F88F2068006800F4C0
:101D5000802080B12068006800F4002028B9606C01
:101D600008B32046616C88471DE0E06BD8B120467F
:101D7000E16B884717E02068006800F4807068B95C
:101D80002068006820F0100021680860012084F8B5
:101D9000350000BF002084F8340000BFE06B10B1B4
:101DA0002046E16B8847606D00287AD0606D00F0B6
:101DB0000100E8B3042084F835007949206888429E
:101DC0004BD0774918312068884246D07449303169
:101DD0002068884241D072494831206888423CD00E
:101DE0006F4960312068884237D06D49783120686A
:101DF000884232D06A499031206888422DD06849A3
:101E0000A8312068884228D06449A83920688842CF
:101E100023D062499039206888421ED05F497839C2
:101E20002068884219D05D4960392068884200E006
:101E300040E012D059494839206888420DD05749AE
:101E400030392068884208D05449183920688842BF
:101E500003D052492068884206D12068006820F0EB
:101E600001002168086005E02068006820F001009A
:101E70002168086000BF0098401C0090504500D9C0
:101E800005E02068006800F001000028F3D100BFE1
:101E90002068006800F0010020B1032084F83500BC
:101EA00003E00DE0012084F8350000BF002084F835
:101EB000340000BFE06C002802D02046E16C884767
:101EC000D9E138492068884222D036491431206847
:101ED00088421DD0334928312068884218D03149C2
:101EE0003C312068884213D02E4950312068884206
:101EF0000ED02C4964312068884209D029497831B4
:101F00002068884204D027498C312068884201D15A
:101F1000012000E000200028D2D02068056894F855
:101F20005C0000F01F010420884000EA0900D8B3DB
:101F300005F00400C0B394F85C0000F01F01042019
:101F40008840C8F8040005F4004080B105F48030F2
:101F500030B9A06C0028B3D02046A16C88478AE134
:101F6000206C0028ACD02046216C884783E105F026
:101F70002000E8BB0A492068884253D0084918313C
:101F8000206888424ED0064930312068884249D0C6
:101F9000034948312068884244D006E0B804024032
:101FA00010000240085402584FE0B44960312068E4
:101FB000884237D0B14978312068884232D0AF4961
:101FC0009031206888422DD0AC49A83120688842E1
:101FD00028D0AB492068884224D0A949183120680C
:101FE00088421FD0A6493031206888421AD000E0CC
:101FF00025E0A34948312068884213D0A0496031C8
:10200000206888420ED09E4978312068884209D0E5
:102010009B4990312068884204D09949A8312068B2
:10202000884206D12068006820F008002168086016
:1020300005E02068006820F0040021680860206C3A
:1020400010B32046216C884715E194F85C0000F03D
:102050001F010220884000EA0900E8B305F00200F1
:10206000D0B394F85C0000F01F0102208840C8F84B
:10207000040005F4004070B105F4803028B9606CAC
:1020800010B12046616C8847F5E0E06BF0B3204664
:10209000E16B8847EFE005F02000C0BB774920687E
:1020A00088424ED0754918312068884249D073491A
:1020B00030312068884244D07049483120688842D5
:1020C0003FD06E496031206888423AD06B49783100
:1020D0002068884235D000E04EE0684990312068A1
:1020E00088422ED06549A8312068884229D06449A9
:1020F0002068884225D0624918312068884220D063
:102100005F493031206888421BD001E06EE02DE04D
:102110005B4948312068884213D0594960312068B2
:1021200088420ED0564978312068884209D05449F7
:1021300090312068884204D05149A83120688842F3
:1021400006D12068006820F014002168086005E0CE
:102150002068006820F00A0021680860012084F8E7
:10216000350000BF002084F8340000BFE06BE8B306
:102170002046E16B88477EE094F85C0000F01F0188
:102180000820884000EA090080B305F0080068B321
:102190003A49206888424BD0384918312068884233
:1021A00046D0364930312068884241D033494831E1
:1021B000206888423CD0314960312068884237D05D
:1021C0002E4978312068884232D02C4990312068DD
:1021D00088422DD02949A8312068884228D0284932
:1021E0002068884224D02649183100E043E0206866
:1021F00088421DD0224930312068884218D02049B9
:1022000048312068884213D01D49603120688842D7
:102210000ED01B4978312068884209D01849903186
:102220002068884204D01649A8312068884206D127
:102230002068006820F01C002168086005E0206824
:10224000006820F00E002168086094F85C0000F03F
:102250001F0101208840C8F804000120606584F84F
:10226000350000BF002084F8340000BFE06C10B1DE
:102270002046E16C884700BF65E500001000024081
:10228000100402402DE9F041044600F0BFFD8046F5
:1022900014B90120BDE8F081FE492068884249D088
:1022A000FC4918312068884244D0FA49303120680E
:1022B00088423FD0F7494831206888423AD0F549F2
:1022C00060312068884235D0F249783120688842F0
:1022D00030D0F0499031206888422BD0ED49A831A8
:1022E0002068884226D0EC492068884222D0EA49FA
:1022F0001831206888421DD0E74930312068884273
:1023000018D0E54948312068884213D0E24960314D
:10231000206888420ED0E04978312068884209D090
:10232000DD4990312068884204D0DB49A83120681B
:10233000884201D1012000E00020002873D0606AAB
:1023400000B100BF022084F8350000BF002084F8EF
:10235000340000BFCF492068884249D0CD491831A8
:102360002068884244D0CB493031206888423FD031
:10237000C8494831206888423AD0C649603120684F
:10238000884235D0C34978312068884230D0C1496D
:102390009031206888422BD0BE49A83120688842FD
:1023A00026D0BD492068884222D0BB491831206818
:1023B00088421DD0B84930312068884218D0B649CB
:1023C00048312068884213D0B34960312068884280
:1023D0000ED0B14978312068884209D0AE49903199
:1023E0002068884204D0AC49A8312068884206D1D0
:1023F0002068006820F001002168086005E020687E
:10240000006820F00100216808600DE000F0FEFC8B
:10241000A0EB0800052807D920206065032084F878
:102420003500012036E76AE02068006800F001000E
:102430000028EBD12068056898480540D4E90201DE
:1024400008432169084361690843A1690843E169B8
:102450000843216A08430543606A042803D1D4E98C
:102460000B01084305438E4800686FF30F00B0F17D
:10247000005F1DD36068292802D360682E2811D917
:1024800060683F2802D3606842280BD960684728FB
:1024900002D36068482805D960684F2804D3606873
:1024A000522801D8012000E0002008B145F4801531
:1024B000206805602068456925F00705606A0543C6
:1024C000606A04280DD1A06A0543E06A48B120463D
:1024D000FEF7F0F928B140206065012084F835004E
:1024E000D8E6206845612046FEF7C0F8064694F815
:1024F0005C0000F01F013F208840B0609EE0694909
:102500002068884222D067491431206888421DD053
:10251000644928312068884218D062493C312068DB
:10252000884213D05F495031206888420ED05D49FF
:1025300064312068884209D05A497831206888423D
:1025400004D058498C312068884201D1012000E034
:102550000020E0B353492068884222D05149143109
:10256000206888421DD04F4928312068884218D001
:102570004C493C312068884213D04A495031206888
:1025800088420ED0474964312068884209D04549C5
:1025900078312068884204D042498C3120688842D2
:1025A00001D1012000E0002000B100BF022084F82A
:1025B000350000BF002084F8340000BF20680568A3
:1025C00039480540A068402802D1102106E02EE0DD
:1025D000A068802801D1C10100E00021E06841EA43
:1025E000D001206941EAD001606941EAD001A069C7
:1025F00041EAD001E06941EAD001206A41EA1010C5
:1026000005432068056027492068401A1421B0FB63
:10261000F1F08000E0652046FEF728F8074694F8C0
:102620005C0000F01F0101208840786006E0402037
:102630006065032084F8350001202BE615492068E9
:1026400088427FD013491831206888427AD01149D6
:1026500030312068884275D00E4948312068884260
:1026600070D00C496031206888426BD009497831BC
:102670002068884266D0074990312068884261D03E
:102680000449A831206888425CD003492068884208
:1026900058D00BE010000240100402403F8010FEB2
:1026A0000010005C085402580F00FEFF3B4918312F
:1026B0002068884246D0394930312068884241D06C
:1026C00036494831206888423CD03449603120681E
:1026D000884237D0314978312068884232D02F493A
:1026E0009031206888422DD02C49A831206888423A
:1026F00028D02B492068884224D0294914312068E9
:1027000088421FD026492831206888421AD024499F
:102710003C312068884215D02149503120688842D8
:1027200010D01F496431206888420BD01C49783191
:102730002068884206D01A498C312068884200E01F
:1027400000E001D1012000E0002000B32046FEF7A8
:1027500003F8A068802801D1002060602079216EF4
:102760000860D4E919104860606860B160680828A2
:1027700009D82046FEF752F80020E16E0860D4E93F
:102780001C10486003E00020E066206760670020BE
:102790006065012084F8350000207BE510040240CC
:1027A0000854025870B594B004464C22B34901A8AD
:1027B000FDF71FFE14B9012014B070BDB0492068A8
:1027C000884203D1206800F580706060A068B0F591
:1027D000407F00D100BF206C00B100BFA06C00B1F1
:1027E00000BF206D00B100BF206E00B100BFD4E972
:1027F0001710084400B100BF94F8980028B90020D1
:1028000084F89900204600F03DF92068806920F0A6
:1028100010002168886100F0F9FA05460EE000F02A
:10282000F5FA401B0A2809D99834606840F0010085
:102830006060032004F898090120BDE720688069E2
:1028400000F008000828EAD02068806940F0010004
:102850002168886100F0DAFA05460EE000F0D6FA49
:10286000401B0A2809D99834606840F00100606074
:10287000032004F8980901209EE72068806900F091
:1028800001000028EAD02068806940F00200216839
:102890008861207C012806D12068806920F04000F2
:1028A0002168886105E02068806940F04000216867
:1028B0008861607C012806D12068806940F48040EE
:1028C0002168886105E02068806920F480402168E3
:1028D0008861A07C012806D12068806920F480509E
:1028E0002168886105E02068806940F48050216893
:1028F00088612068806920F44070A16808432168DD
:1029000088612068806920F0A400216888612068BF
:10291000006920F0100021680861E068012806D1F4
:102920002068806940F004002168886120E0E06848
:10293000F0B1E068022815D02068806940F080007E
:10294000216888612068006940F0100021680861F2
:10295000E06803280CD12068806940F020002168DD
:10296000886105E02068806940F020002168886166
:10297000207E401E4106E069401E41EA0020216A97
:10298000491E0843A18A491E40EA01402168C861E6
:10299000A068B0F5407F0FD1A06A401EE16A491ED1
:1029A00040EA0121206B401E41EA0011A08C401E2C
:1029B00041EA00402168C860206E38B12068D0F834
:1029C000C000616E08432168C1F8C000D4E9171047
:1029D000084460B12068D0F8C80020F0070001AAC0
:1029E000A16E52F8211008432168C1F8C800206C7C
:1029F00060B12068D0F8BC0020F0070001AA616C2B
:102A000052F8211008432168C1F8BC00A06C68B1DD
:102A10002068D0F8BC0020F0700101AAE06C52F8E8
:102A2000200041EA00102168C1F8BC00206D68B1A7
:102A30002068D0F8BC0020F4E06101AA606D52F873
:102A4000200041EA00202168C1F8BC000C49206840
:102A5000884205D16068806820F003006168886062
:102A6000002044F8940FA06001202071943C20467F
:102A7000FDF77CFF064630469EE60000ECA4000809
:102A800000A0004010B5B8B00446142132A8FDF7EC
:102A9000C9FCC02102A8FDF7C5FC1F492068884277
:102AA00037D14FF400410020CDE9021048031E90B9
:102AB00002A801F01DFD08B1FDF754FF00BF174843
:102AC000006840F48070154908600846006800F40A
:102AD0008070019000BF00BF00BF10480C38006834
:102AE00040F008000D490C3908600846006800F005
:102AF0000800019000BF00BF0320329002203390F5
:102B00000020349035900920369032A9044800F016
:102B100079F838B010BD000000A00040EC44025825
:102B2000000C02580548C16841F00101C160C0684D
:102B300010F0010F0CBF0120002070470020005250
:102B40002DE9F041214C0F469046207D012804BF1D
:102B50000220BDE8F0810120A7F10061B1F5003F3E
:102B6000207524BF0120BDE8F0810026A661012167
:102B70004CF25030FEF70AF820BB154DE86840F0E3
:102B80000200E860BFF36F8FBFF34F8FD8F80010DB
:102B900007200123396008F10402391D52F804CBE3
:102BA0005B1C834241F804CBF8DDBFF36F8FBFF3AA
:102BB0004F8F01214CF25030FDF7E8FFE96821F01A
:102BC0000201E9602675BDE8F0810000E4080024F8
:102BD000002000520848C16811F0010F09D00749D0
:102BE000074A41604260C06810F0010F1CBF01201D
:102BF0007047002070470000002000522301674505
:102C0000AB89EFCDF8B502460B4600216F4DD7E0FA
:102C100001278F401E6806EA0704002C72D01E7937
:102C200006F00306012E04D01E7906F00306022EDC
:102C300013D190684F000326BE40B0434F00DE68BA
:102C4000BE4030439060506801268E40B0431E79EC
:102C5000C6F300168E40304350601E7906F003061E
:102C6000032E09D0D0684F000326BE40B0434F006A
:102C70009E68BE403043D0601E7906F00306022EE7
:102C800013D1CF0802F1200656F827004E07F70EA1
:102C90000F26BE40B0434F07FF0E1E69BE403043B3
:102CA000CF0802F1200646F8270010684F000326DF
:102CB000BE40B0431E7906F003064F00BE403043CD
:102CC00010605E6806F44036002E78D000BF404E9B
:102CD000366846F002063E4F3E603E46366806F0D5
:102CE0000206009600BF00BF3A4E8F0856F8270034
:102CF0008E07370F0F26BE40B043374EB24202D187
:102D000000262EE05BE0354EB24201D1012628E0DC
:102D1000334EB24201D1022623E0324EB24201D1FB
:102D200003261EE0304EB24201D1042619E02F4E98
:102D3000B24201D1052614E02D4EB24201D1062641
:102D40000FE02C4EB24201D107260AE02A4EB242D1
:102D500001D1082605E0294EB24201D1092600E042
:102D60000A268F073F0FBE4030431A4E8F0846F8A1
:102D700027004FF0B0463068A0435E6806F4801626
:102D800006B120434FF0B04630607068A0435E68E3
:102D900006F4001606B120434FF0B0467060686834
:102DA000A0435E6806F4003606B1204368602868D8
:102DB000A0435E6806F4803606B120432860491CB3
:102DC0001E68CE40002E7FF423AFF8BD800000586F
:102DD000F444025808040058000002580004025845
:102DE00000080258000C0258001002580014025843
:102DF00000180258001C02580020025800240258F3
:102E000001480068000C70470010005C0148006831
:102E10007047000024040024F8B504460CB90120D2
:102E2000F8BD0220C43404F8030C00202060606068
:102E3000A060E06020616061C43C207A00F0010085
:102E400008B33549206888420DD100BF3348006877
:102E500040F00050314908600846006800F000501A
:102E6000009000BF00BF2068066826F44046208A14
:102E700000F44040064326F44056A08A00F4405037
:102E8000064320680660204600F04AF8207A00F0E9
:102E9000020048B12068066826F44076A08900F454
:102EA0004070064320680660012084F8C10000BF1E
:102EB000002084F8C00000BF002529E00021C5EBF8
:102EC000C50204F1180040F82210C5EBC50200EB62
:102ED00082004160C5EBC50204F1180000EB8200DE
:102EE0008160C5EBC50204F1180000EB8200C160EF
:102EF000C5EBC50204F1180000EB82000161C5EBCF
:102F0000C50204F1180000EB82008161681CC5B2A3
:102F1000052DD3D9002083E700740140F044025806
:102F200010B5B2B00446C02102A8FDF77BFA1049E3
:102F3000206888421AD14FF080510020CDE902105C
:102F40008813309002A801F0D3FA08B1FDF70AFD0A
:102F500000BF0848006840F0005006490860084675
:102F6000006800F00050019000BF00BF32B010BDFB
:102F700000740140F044025870B504460D461646F0
:102F800094F8C100022800D170BD022084F8C1006D
:102F9000052D04D13146204603F076FD04E032468B
:102FA0002946204603F0B2FD012084F8C10000202C
:102FB000EAE770B504460D46164694F8C1000228AB
:102FC00000D170BD00BF94F8C000012801D10220DB
:102FD000F7E7012084F8C00000BF022084F8C10098
:102FE000052D04D13146204603F062FD04E032464F
:102FF0002946204603F0AAFDC5EBC50204F11800DE
:1030000000EB820031688160C5EBC50204F1180055
:1030100000EB82007168C160C5EBC50204F11800C5
:1030200000EB8200B1680161C5EBC50204F1180034
:1030300000EB8200F1684161C5EBC50204F11800A4
:1030400000EB8200316981612946204603F0DCFCF7
:10305000012084F8C10000BF002084F8C00000BF38
:1030600000BFAEE7024692F8410020282DD100BFF4
:1030700092F84000012801D102207047012082F817
:10308000400000BF242082F841001068006820F052
:103090000100136818601068006820F480501368FD
:1030A00018601068006808431368186010680068AA
:1030B00040F0010013681860202082F8410000BF32
:1030C000002082F8400000BFD7E70220D5E710B506
:1030D00002460B4692F8410020282AD100BF92F800
:1030E0004000012801D1022010BD012082F84000DB
:1030F00000BF242082F841001068006820F0010021
:10310000146820601068016821F4706141EA0321AD
:10311000106801601068006840F0010014682060C9
:10312000202082F8410000BF002082F8400000BF4C
:10313000DAE70220D8E7000010B504460CB90120F8
:1031400010BD94F8410028B9002084F840002046C2
:1031500000F054F8242084F841002068006820F032
:10316000010021680860606820F0706021680861D3
:103170002068806820F4004021688860E0680128A9
:1031800005D1A06840F400402168886004E0A06890
:1031900040F4044021688860E068022802D180027F
:1031A00021684860206840681349084321684860E6
:1031B0002068C06820F400402168C860D4E9040198
:1031C0000843A16940EA01202168C860D4E90701E9
:1031D0000843216808602068006840F00100216809
:1031E000086000206064202084F8410000202063F3
:1031F00084F8420000BFA3E70080000210B5B8B019
:103200000446142132A8FDF70DF9C02102A8FDF7EC
:1032100009F93C492068884235D108210020CDE9D0
:103220000210239002A801F063F908B1FDF79AFBA0
:1032300000BF3548006840F0020033490860084686
:10324000006800F00200019000BF00BFC020329073
:10325000122033900020349035900420369032A90B
:103260002A48FFF7CFFC00BF27480830006840F429
:1032700000102549083108600846006800F4001075
:10328000019000BF3BE022492068884237D11020DE
:103290000021CDE902010020289002A801F028F9C0
:1032A00008B1FDF75FFB00BF1748006840F0080059
:1032B000154908600846006800F00800019000BF4A
:1032C00000BF4FF4405032901220339000203490D1
:1032D00035900420369032A90E48FFF793FC00BFCA
:1032E00009481430006840F0800007491431086034
:1032F0000846006800F08000019000BF00BF38B0B1
:1033000010BD000000540040E04402580004025880
:10331000001C0058000C0258034800680349097853
:103320000844014908607047240400242C04002448
:1033300010B5032000F0E6F802F09EF91049096884
:10334000C1F303210F4A515C01F01F0120FA01F47F
:103350000B48006800F00F001146085C00F01F00E9
:1033600024FA00F008490860084804600F2000F0C3
:103370000FF808B1012010BD00F05AF80020FAE75C
:103380001844025860A500083404002430040024C6
:10339000F0B58BB00446102C0AD2002221461C2026
:1033A00000F072F81C2000F05BF81D48046002E099
:1033B00001200BB0F0BD00BF1A48006840F00100CA
:1033C000184908600846006800F00100019000BF3D
:1033D00000BF02A903A802F0CFF8089E1EB902F0B0
:1033E00027F9054602E002F023F945000E48B5FB37
:1033F000F0F0471E4FF080400C49086040F2E73182
:103400000A48C160476000210161816002F03AFF13
:1034100018B9064802F06EFFCBE70120C9E70000AB
:1034200028040024E844025840420F009808002471
:1034300008B500BF0948006840F00200074908606D
:103440000846006800F00200009000BF00BF0022A4
:103450000F21901E00F018F808BD0000F444025837
:103460000146084600280DDB00BF00BF00F01F0327
:1034700001229A4043099B0003F1E023C3F8002195
:1034800000BF00BF00BF70472DE9F05F80460D46CA
:10349000164605F02BF8074639462A46334601F012
:1034A0000700C0F1070ABAF1040F02D94FF0040A6D
:1034B00001E0C0F1070AD14600F1040ABAF1070F92
:1034C00002D24FF0000A01E0A0F1030AD4464FF007
:1034D000010A0AFA09FAAAF1010A0AEA020A0AFA30
:1034E0000CFA4FF0010B0BFA0CFBABF1010B0BEAE2
:1034F000030B4AEA0B042146404604F0FFFFBDE8F7
:10350000F09F000000BF00F00702064B19684FF65D
:10351000FF031940044B0B4343EA0221014B19609E
:1035200000BF70470CED00E00000FA0570B50446DE
:1035300015480068C0F3800048B91348006800F0DF
:103540000700A04201D0012070BD0020FCE70E481A
:10355000006820F0070020430B490860FFF756FC85
:10356000054607E0FFF752FC401BB0F57A7F01D912
:103570000120E9E7044808380068C0F3403000281B
:10358000F0D00020E0E700000C48025810B502F02F
:1035900029F805490968C1F30211044A515C01F098
:1035A0001F01C84010BD00002044025860A500085B
:1035B00070B50146844D2D6805F00303824D2D68DA
:1035C000C5F30510804D2D1D2D6805F001047E4DBD
:1035D0000C352D68C5F3CC0515FB04F501EE105A2A
:1035E000B8EE411AF0EE410A00286FD023B1012B4A
:1035F0004ED0022B6BD16BE0734D283D2D68C5F387
:1036000040153DB3704D283D2D68C5F3C1066F4D83
:1036100025FA06F201EE102AF8EE411A01EE100A20
:10362000B8EE411A81EE812A9FED691AC0EE811A27
:10363000654D08352D68C5F3080501EE105AB8EE42
:10364000411A31EE811AF7EE001A31EE211A22EEFC
:10365000010A1CE001EE100AB8EE411ADFED5D1A16
:1036600081EE812A9FED5A1AC0EE811A564D083517
:103670002D68C5F3080501EE105AB8EE411A31EE77
:10368000811AF7EE001A31EE211A22EE010A5BE0F0
:1036900001EE100AB8EE411ADFED4F1A81EE812AD1
:1036A0009FED4B1AC0EE811A474D08352D68C5F3C2
:1036B000080501EE105AB8EE411A31EE811AF7EE04
:1036C000001A31EE211A22EE010A3DE077E01DE0FA
:1036D00001EE100AB8EE411A9FED402AC2EE011A1F
:1036E0009FED3B1A80EE812A374D08352D68C5F3D2
:1036F000080501EE105AB8EE411A32EE011AB7EE83
:10370000002A31EE021A21EE810A1DE001EE100AB4
:10371000B8EE411ADFED2F1A81EE812A9FED2C1AA7
:10372000C0EE811A284D08352D68C5F3080501EE55
:10373000105AB8EE411A31EE811AF7EE001A31EE46
:10374000211A22EE010A00BF00BF1F4D08352D6867
:10375000C5F3462501EE105AB8EE411AF7EE001AED
:1037600031EE211AC0EE011ABCEEE11A81ED001A09
:10377000154D08352D68C5F3064501EE105AB8EE13
:10378000411AF7EE001A31EE211AC0EE011ABCEE12
:10379000E11A81ED011A0C4D08352D68C5F3066557
:1037A00001EE105AB8EE411AF7EE001A31EE211A66
:1037B000C0EE011ABCEEE11A81ED021A03E0002509
:1037C0000D604D608D6070BD284402580090D0039C
:1037D000000000460024744C0024744A20BCBE4BF8
:1037E00070B50146844D2D6805F00303824D2D68A8
:1037F000C5F30530804D2D1D2D68C5F300147E4D99
:1038000014352D68C5F3CC0515FB04F501EE105AEF
:10381000B8EE411AF0EE410A00286FD023B1012B17
:103820004ED0022B6BD16BE0734D283D2D68C5F354
:1038300040153DB3704D283D2D68C5F3C1066F4D51
:1038400025FA06F201EE102AF8EE411A01EE100AEE
:10385000B8EE411A81EE812A9FED691AC0EE811AF5
:10386000654D10352D68C5F3080501EE105AB8EE08
:10387000411A31EE811AF7EE001A31EE211A22EECA
:10388000010A1CE001EE100AB8EE411ADFED5D1AE4
:1038900081EE812A9FED5A1AC0EE811A564D1035DD
:1038A0002D68C5F3080501EE105AB8EE411A31EE45
:1038B000811AF7EE001A31EE211A22EE010A5BE0BE
:1038C00001EE100AB8EE411ADFED4F1A81EE812A9F
:1038D0009FED4B1AC0EE811A474D10352D68C5F388
:1038E000080501EE105AB8EE411A31EE811AF7EED2
:1038F000001A31EE211A22EE010A3DE077E01DE0C8
:1039000001EE100AB8EE411A9FED402AC2EE011AEC
:103910009FED3B1A80EE812A374D10352D68C5F397
:10392000080501EE105AB8EE411A32EE011AB7EE50
:10393000002A31EE021A21EE810A1DE001EE100A82
:10394000B8EE411ADFED301A81EE812A9FED2C1A74
:10395000C0EE811A284D10352D68C5F3080501EE1B
:10396000105AB8EE411A31EE811AF7EE001A31EE14
:10397000211A22EE010A00BF00BF1F4D10352D682D
:10398000C5F3462501EE105AB8EE411AF7EE001ABB
:1039900031EE211AC0EE011ABCEEE11A81ED001AD7
:1039A000154D10352D68C5F3064501EE105AB8EED9
:1039B000411AF7EE001A31EE211AC0EE011ABCEEE0
:1039C000E11A81ED011A0C4D10352D68C5F306651D
:1039D00001EE105AB8EE411AF7EE001A31EE211A34
:1039E000C0EE011ABCEEE11A81ED021A03E00025D7
:1039F0000D604D608D6070BD284402580090D0036A
:103A0000000000460024744C0024744A20BCBE4BC5
:103A100070B50146844D2D6805F00303824D2D6875
:103A2000C5F30550804D2D1D2D68C5F300247E4D36
:103A30001C352D68C5F3CC0515FB04F501EE105AB5
:103A4000B8EE411AF0EE410A00286FD023B1012BE5
:103A50004ED0022B6BD16BE0734D283D2D68C5F322
:103A600040153DB3704D283D2D68C5F3C1066F4D1F
:103A700025FA06F201EE102AF8EE411A01EE100ABC
:103A8000B8EE411A81EE812A9FED691AC0EE811AC3
:103A9000654D18352D68C5F3080501EE105AB8EECE
:103AA000411A31EE811AF7EE001A31EE211A22EE98
:103AB000010A1CE001EE100AB8EE411ADFED5D1AB2
:103AC00081EE812A9FED5A1AC0EE811A564D1835A3
:103AD0002D68C5F3080501EE105AB8EE411A31EE13
:103AE000811AF7EE001A31EE211A22EE010A5BE08C
:103AF00001EE100AB8EE411ADFED4F1A81EE812A6D
:103B00009FED4B1AC0EE811A474D18352D68C5F34D
:103B1000080501EE105AB8EE411A31EE811AF7EE9F
:103B2000001A31EE211A22EE010A3DE077E01DE095
:103B300001EE100AB8EE411A9FED402AC2EE011ABA
:103B40009FED3B1A80EE812A374D18352D68C5F35D
:103B5000080501EE105AB8EE411A32EE011AB7EE1E
:103B6000002A31EE021A21EE810A1DE001EE100A50
:103B7000B8EE411ADFED301A81EE812A9FED2C1A42
:103B8000C0EE811A284D18352D68C5F3080501EEE1
:103B9000105AB8EE411A31EE811AF7EE001A31EEE2
:103BA000211A22EE010A00BF00BF1F4D18352D68F3
:103BB000C5F3462501EE105AB8EE411AF7EE001A89
:103BC00031EE211AC0EE011ABCEEE11A81ED001AA5
:103BD000154D18352D68C5F3064501EE105AB8EE9F
:103BE000411AF7EE001A31EE211AC0EE011ABCEEAE
:103BF000E11A81ED011A0C4D18352D68C5F30665E3
:103C000001EE105AB8EE411AF7EE001A31EE211A01
:103C1000C0EE011ABCEEE11A81ED021A03E00025A4
:103C20000D604D608D6070BD284402580090D00337
:103C3000000000460024744C0024744A20BCBE4B93
:103C40002DE9F04389B006460F464FF4807186EAAD
:103C50000100384370D1F748006800F00709B9F156
:103C6000050F65D2DFE809F0031221623000F14848
:103C70005038006800F00070B0F1007F04D106A851
:103C8000FFF796FC079C00E0002453E0E948503819
:103C9000006800F00060B0F1006F04D103A8FFF7E6
:103CA0009FFD039C00E0002444E0E2485038006897
:103CB00000F00050B0F1005F04D16846FFF7A8FEA5
:103CC000009C00E0002435E0DA48001F006800F0A6
:103CD0004055D8485038006800F00400042809D145
:103CE00045B9D44850380068C0F3C101D24820FA21
:103CF00001F41AE0CF485038006800F48070B0F545
:103D0000807F04D1B5F1805F01D1CC4C0DE0C94872
:103D10005038006800F40030B0F5003F04D1B5F130
:103D2000005F01D1C64C00E0002403E0C54C01E077
:103D3000002400BFD4E3FFE74FF4007186EA0100DE
:103D400038437AD1BB48006800F4E079B9F1800FBC
:103D50002CD006DCB9F1000F0AD0B9F1400F69D1BF
:103D600015E0B9F1C00F63D0B9F5807F62D12CE0C6
:103D7000B0485038006800F00070B0F1007F04D106
:103D800006A8FFF715FC079C00E0002454E0A948B2
:103D90005038006800F00060B0F1006F04D103A853
:103DA000FFF71EFD039C00E0002445E0A1485038C9
:103DB000006800F00050B0F1005F04D16846FFF7E2
:103DC00027FE009C00E0002436E09A48001F0068AF
:103DD00000F0405597485038006800F0040004286F
:103DE00009D145B9934850380068C0F3C1019248E1
:103DF00020FA01F41BE08F485038006800F480700E
:103E0000B0F5807F04D1B5F1805F01D18B4C0EE01D
:103E100088485038006800F40030B0F5003F05D104
:103E2000B5F1005F02D1864C01E006E0002403E01A
:103E3000844C01E0002400BF52E34FF4806186EA25
:103E4000010038437BD17B480830006800F46009EA
:103E5000B9F5800F2CD006DCB9F1000F0AD0B9F506
:103E6000001F69D115E0B9F5C00F63D0B9F5000F97
:103E700062D12CE06F485038006800F00070B0F15B
:103E8000007F04D106A8FFF793FB079C00E0002405
:103E900054E068485038006800F00060B0F1006FEE
:103EA00004D103A8FFF79CFC039C00E0002445E03C
:103EB00060485038006800F00050B0F1005F04D155
:103EC0006846FFF7A5FD009C00E0002436E0594855
:103ED000001F006800F0405556485038006800F058
:103EE0000400042809D145B9524850380068C0F38D
:103EF000C101514820FA01F41BE04E4850380068D7
:103F000000F48070B0F5807F04D1B5F1805F01D1FD
:103F10004A4C0EE047485038006800F40030B0F5D5
:103F2000003F05D1B5F1005F02D1454C01E006E04C
:103F3000002403E0434C01E0002400BFD0E24FF432
:103F4000006186EA0100384373D13A4808300068BE
:103F500000F0E069B9F1007F2CD006DCB9F1000F68
:103F60000AD0B9F1807F75D115E0B9F1407F6FD0EB
:103F7000B9F1806F6ED12CE02E485038006800F007
:103F80000070B0F1007F04D106A8FFF711FB079C79
:103F900000E0002460E027485038006800F000602E
:103FA000B0F1006F04D103A8FFF71AFC039C00E0F6
:103FB000002451E01F485038006800F00050B0F174
:103FC000005F04D16846FFF723FD009C00E0002459
:103FD00042E01848001F006800F04055154850386E
:103FE000006800F00400042809D145B91148503890
:103FF0000068C0F3C101104820FA01F427E00D4821
:104000005038006800F48070B0F5807F04D1B5F1BD
:10401000805F01D1094C1AE006485038006800F46E
:104020000030B0F5003F11D1B5F1005F0ED1044C66
:104030000DE012E0504402580090D00300093D000A
:1040400040787D010080BB0004E001E0002403E033
:10405000F74C01E0002400BF42E24FF4805186EAB1
:10406000010038437AD1F348006800F4E048B8F51D
:10407000005F2CD006DCB8F1000F0AD0B8F5805FE5
:1040800069D115E0B8F5405F63D0B8F5804F62D1D3
:104090002CE0E8485038006800F00070B0F1007F74
:1040A00004D106A8FFF784FA079C00E0002454E03E
:1040B000E0485038006800F00060B0F1006F04D1B3
:1040C00003A8FFF78DFB039C00E0002445E0D948DE
:1040D0005038006800F00050B0F1005F04D168462D
:1040E000FFF796FC009C00E0002436E0D148001F5A
:1040F000006800F04055CF485038006800F00400D8
:10410000042809D145B9CB4850380068C0F3C10133
:10411000C94820FA01F41BE0C6485038006800F492
:104120008070B0F5807F04D1B5F1805F01D1C34CC0
:104130000EE0C0485038006800F40030B0F5003F91
:1041400005D1B5F1005F02D1BD4C01E006E00024CD
:1041500003E0B74C01E0002400BFC1E14FF400517F
:1041600086EA0100384367D1B248006800F4E028CD
:10417000B8F5403F33D009DCB8F1000F0DD0B8F5E9
:10418000803F0ED0B8F5003F53D119E0B8F5802F2D
:1041900037D0B8F5A02F4CD13FE001F049FA0446E2
:1041A00049E0A4485038006800F00060B0F1006FAA
:1041B00004D103A8FFF714FB049C00E000243AE0BC
:1041C0009C485038006800F00050B0F1005F04D106
:1041D0006846FFF71DFC019C00E000242BE0954899
:1041E0005038006800F00400042808D19148503885
:1041F0000068C0F3C101904820FA01F400E00024F7
:1042000019E08C485038006800F48070B0F5807F69
:1042100001D18A4C00E000240DE086485038006847
:1042200000F40030B0F5003F01D1854C00E00024DF
:1042300001E0002400BF53E14FF4002186EA0100B1
:10424000384361D17B480830006800F44038B8F149
:10425000000F06D0B8F5803F12D0B8F5003F50D11E
:104260001DE074485038006800F00060B0F1006F45
:1042700004D103A8FFF7B4FA039C00E0002442E055
:104280006C485038006800F00050B0F1005F04D175
:104290006846FFF7BDFB029C00E0002433E0654860
:1042A000001F006800F0405562485038006800F078
:1042B0000400042809D145B95E4850380068C0F3AD
:1042C000C1015D4820FA01F41AE05A4850380068EC
:1042D00000F48070B0F5807F04D1B5F1805F01D12A
:1042E000564C0DE053485038006800F40030B0F5EB
:1042F000003F04D1B5F1005F01D1514C00E0002432
:1043000001E0002400BFEBE04FF4803186EA0100B9
:1043100038432CD14748001F006800F48038B8F1BA
:10432000000F03D0B8F5803F1ED10EE04148503851
:10433000006800F00070B0F1007F04D106A8FFF71C
:1043400037F9079C00E0002410E03A485038006834
:1043500000F00060B0F1006F04D103A8FFF740FA4D
:10436000059C00E0002401E0002400BFB8E04FF409
:10437000804186EA0100384372D12E480830006837
:1043800000F0E048B8F1405F33D009DCB8F1000F2D
:104390000DD0B8F1805F0ED0B8F1005F5DD119E0AB
:1043A000B8F1804F37D0B8F1A04F56D14AE0FFF7AF
:1043B000EDF8044653E01F485038006800F00060F4
:1043C000B0F1006F04D103A8FFF70AFA049C00E0E3
:1043D000002444E017485038006800F00050B0F165
:1043E000005F04D16846FFF713FB019C00E0002446
:1043F00035E010485038006800F00400042808D167
:104400000C4850380068C0F3C1010B4820FA01F491
:1044100000E0002423E007485038006800F4807072
:10442000B0F5807F01D1054C00E0002417E017E0D3
:104430000080BB00504402580090D00300093D00AA
:1044400040787D012848006800F40030B0F5003F56
:1044500001D1264C00E0002401E0002400BF3FE031
:104460004FF4004186EA0100384338D11E485030ED
:10447000006800F04058B8F1000F06D0B8F1805F36
:104480000ED0B8F1005F27D118E01748006800F49B
:104490000030B0F5003F01D1144C00E000241DE0D5
:1044A0001148006800F00070B0F1007F04D106A848
:1044B000FFF77EF8079C00E000240FE00A48006840
:1044C00000F00060B0F1006F04D103A8FFF788F995
:1044D000049C00E0002401E0002400BF00E0002470
:1044E000204609B0BDE8F0830044025840787D01C1
:1044F0002DE9F04104460025A8464FF00062D4E9BA
:10450000001011400020134659404040014331D172
:10451000A06E48B1B0F5801F0DD0B0F5001F11D0CE
:10452000B0F5401F16D114E0F948006840F400309F
:10453000F749086010E0022104F1080002F0A8FE2B
:10454000054609E0022104F1280002F053FF054668
:1045500002E001E0012500BF00BF55B9EC4824305E
:10456000006820F44010A16E0843E9492431086036
:1045700000E0A8464FF48073D4E9001019400020F1
:104580005940404001432ED1A06D05281BD2DFE8E1
:1045900000F0030A11181900DD48006840F40030EB
:1045A000DB49086011E0002104F1080002F070FE10
:1045B00005460AE0002104F1280002F01BFF054631
:1045C00003E002E001E0012500BF00BF55B9D0487B
:1045D0002430006820F00700A16D0843CC49243145
:1045E000086000E0A8464FF40073D4E900101940B9
:1045F000002059404040014334D1E06D802818D05C
:1046000003DC40B140281DD10CE0C02818D0B0F523
:10461000807F17D115E0BE48006840F40030BC49E7
:10462000086011E0002104F1080002F031FE0546A7
:104630000AE0002104F1280002F0DCFE054603E058
:1046400002E001E0012500BF00BF55B9B0482430A9
:10465000006820F4E070E16D0843AD492431086042
:1046600000E0A8464FF48063D4E900101940002010
:1046700059404040014339D1D4F8A800B0F5800F2B
:104680001AD004DC50B1B0F5001F1ED10DE0B0F51A
:10469000C00F18D0B0F5000F17D115E09C48006886
:1046A00040F400309A49086011E0002104F108004C
:1046B00002F0EEFD05460AE0002104F1280002F0B8
:1046C00099FE054603E002E001E0012500BF00BFBE
:1046D0005DB98F482C30006820F46000D4F8A81031
:1046E00008438B492C31086000E0A8464FF4006273
:1046F000D4E90010114000201346594040400143C6
:1047000039D1D4F8AC00B0F1007F1AD004DC50B13C
:10471000B0F1807F1ED10DE0B0F1407F18D0B0F134
:10472000806F17D115E07A48006840F4003078496E
:10473000086011E0002104F1080002F0A9FD05461F
:104740000AE0002104F1280002F054FE054603E0CF
:1047500002E001E0012500BF00BF5DB96C482C30CC
:10476000006820F0E060D4F8AC10084368492C31B0
:10477000086000E0A8464FF00073D4E9000118403B
:10478000002158404940084328D1E06CA8B11028C6
:1047900004D0202809D0302810D10DE05C480068F2
:1047A00040F400305A4908600AE0022104F1080090
:1047B00002F06EFD054603E002E001E0012500BFC6
:1047C00000BF55B952482030006820F03000E16C3D
:1047D00008434F492031086000E0A8464FF4805359
:1047E000D4E900101940002059404040014337D11E
:1047F000206EB0F5005F1AD004DC50B1B0F5805FD8
:104800001ED10DE0B0F5405F18D0B0F5804F17D144
:1048100015E03F48006840F400303D49086011E071
:10482000002104F1080002F033FD05460AE00021F2
:1048300004F1280002F0DEFD054603E002E001E09D
:10484000012500BF00BF55B931482430006820F46D
:10485000E040216E08432E492431086000E0A8465C
:104860004FF40053D4E90010194000205940404053
:10487000014335D1606EB0F5403F1ED007DC68B112
:10488000B0F5803F0BD0B0F5003F19D10EE0B0F588
:10489000802F13D0B0F5A02F12D110E012E001212B
:1048A00004F1080002F0F4FC05460BE0012104F1DC
:1048B000280002F09FFD054604E003E002E001E06D
:1048C000012500BF00BF55B911482430006820F40D
:1048D000E020616E08430E492431086000E0A846DC
:1048E0004FF48043D4E9000118400021584049406A
:1048F000084337D1D4F8B000B0F1405F20D009DCD4
:1049000078B1B0F1805F0DD0B0F1005F1BD110E045
:104910002C440258B0F1804F13D0B0F1A04F12D107
:1049200010E012E0012104F1080002F0B1FC05469C
:104930000BE0012104F1280002F05CFD054604E0D3
:1049400003E002E001E0012500BF00BF4DB9FE48D1
:10495000006820F0E040D4F8B0100843FA4908603D
:1049600000E0A8464FF40042D4E9001011400020B6
:10497000134659404040014329D1206FB0B1B0F1F6
:10498000805F03D0B0F1005F11D108E0EE482C3811
:10499000006840F40030EC492C39086009E001213E
:1049A00004F1080002F074FC054602E001E0012574
:1049B00000BF00BF55B9E4480838006820F04050F7
:1049C000216F0843E0490839086000E0A8464FF02D
:1049D0008072D4E900101140002013465940404035
:1049E00001432AD1A06CB8B1012804D002280BD011
:1049F000032812D10FE0D4482C38006840F400306E
:104A0000D1492C3908600AE0022104F1080002F0C3
:104A10003FFC054603E002E001E0012500BF00BFC6
:104A200055B9C9480C38006820F00300A16C084350
:104A3000C5490C39086000E0A8464FF48002D4E96B
:104A400000011040002113465840494008437DD1E1
:104A5000BE48006840F48070BC490860FEF7D6F993
:104A6000064606E0FEF7D2F9801B642801D903252B
:104A700005E0B648006800F480700028F2D000BF5E
:104A800085BBB1481830006800F44070B4F8B41029
:104A900001F44071884213D0AB481830006820F40C
:104AA0004077A9481830006840F48030A649183192
:104AB00008600846006820F48030086008460760F7
:104AC000D4F8B400B0F5807F15D1FEF79FF9064603
:104AD00009E0FEF79BF9801B41F28831884202D938
:104AE000032507E038E0984818300068C0F340001C
:104AF0000028EED000BF55BB00BFB4F8B40000F4EE
:104B00004070B0F5407F0ED18F484838006820F4DF
:104B10007C518F4AD4F8B400104041EA10108A4901
:104B20004839086007E088484838006820F47C501D
:104B3000854948390860844818300068B4F8B410D2
:104B4000C1F30B0108438049183101E005E001E0A1
:104B5000086002E0A84600E0A8460122D4E900016E
:104B600010400021134658404940084330D1E06FBF
:104B700018281AD005DC48B1082808D0102817D109
:104B80000CE0202812D0282812D110E012E00121D8
:104B900004F1080002F07CFB05460BE0012104F162
:104BA000280002F027FC054604E003E002E001E0F3
:104BB000012500BF00BF55B96348001F006820F001
:104BC0003800E16F08436049091F086000E0A8460B
:104BD0000222D4E900011040002113465840494008
:104BE000084329D1A06F062816D2DFE800F003049D
:104BF0000B12131412E0012104F1080002F048FB2B
:104C000005460BE0012104F1280002F0F3FB054604
:104C100004E003E002E001E0012500BF00BF55B958
:104C20004948001F006820F00700A16F084346496B
:104C3000091F086000E0A8460423D4E900101940C9
:104C4000002059404040014329D1D4F8940006285F
:104C500016D2DFE800F003040B12131412E0012156
:104C600004F1080002F014FB05460BE0012104F1F9
:104C7000280002F0BFFB054604E003E002E001E08B
:104C8000012500BF00BF4DB92F48006820F0070084
:104C9000D4F8941008432C49086000E0A84620236B
:104CA000D4E900011840002158404940084337D159
:104CB000D4F89000B0F1405F1ED007DC68B1B0F1CD
:104CC000805F0BD0B0F1005F19D10EE0B0F1804FE2
:104CD00013D0B0F1A04F12D110E012E0002104F186
:104CE000080002F0D5FA05460BE0022104F1280085
:104CF00002F080FB054604E003E002E001E001254C
:104D000000BF00BF5DB91048001F006820F0E04000
:104D1000D4F8901008430C49091F086000E0A84629
:104D20004023D4E90010194000205940404001437D
:104D30003CD1D4F89C00B0F5406F25D00EDCA0B17A
:104D4000B0F5806F12D005E0584402580048025870
:104D5000FFFCFF0FB0F5006F19D10EE0B0F5805FDA
:104D600013D0B0F5A05F12D110E012E0002104F1E1
:104D7000080002F08DFA05460BE0022104F128003C
:104D800002F038FB054604E003E002E001E0012503
:104D900000BF00BF4DB9FE48006820F4E050D4F8D1
:104DA0009C100843FA49086000E0A8468023D4E933
:104DB00000101940002059404040014335D1D4F83B
:104DC000A000B0F5C04F1ED007DC68B1B0F5005FA1
:104DD0000BD0B0F5804F19D10EE0B0F5004F13D0D5
:104DE000B0F5204F12D110E012E0002104F10800CC
:104DF00002F04EFA05460BE0022104F1280002F011
:104E0000F9FA054604E003E002E001E0012500BFF5
:104E100000BF4DB9DE48006820F46040D4F8A0100F
:104E20000843DB49086000E0A8460823D4E90010E5
:104E30001940002059404040014317D1D4F8840064
:104E4000B0F5805F07D1022104F1280002F0D2FA08
:104E500008B14FF00108CE48001F006820F4405010
:104E6000D4F884100843CA49091F08601023D4E904
:104E700000101940002059404040014315D1D4F89A
:104E80009800B0F5807F07D1022104F1280002F0DC
:104E9000B1FA08B14FF00108BD48006820F4407035
:104EA000D4F898100843BA4908604FF40022D4E9B6
:104EB000000110400021134658404940084327D1C3
:104EC000D4F8A40030B1B0F5803F0AD0B0F5003F6F
:104ED0000FD10DE0002104F1080002F0D9F90546D8
:104EE00009E0022104F1280002F084FA054602E0FC
:104EF00001E0012500BF00BF4DB9A548006820F4BE
:104F00004030D4F8A4100843A149086000E0A84646
:104F10004FF48023D4E90001184000215840494053
:104F200008432DD1D4F88800B0F5801F06D0B0F525
:104F3000001F0CD0B0F5401F11D10FE094482C3861
:104F4000006840F4003092492C39086009E00121E2
:104F500004F1280002F04EFA054602E001E00125C6
:104F600000BF00BF5DB98A48001F006820F44010F0
:104F7000D4F8881008438649091F086000E0A84655
:104F80004FF48032D4E9000110400021134658400C
:104F90004940084325D1206D18B1B0F5803F10D1AC
:104FA00008E07B482C38006840F4003078492C3900
:104FB000086008E0022104F1080002F069F90546E2
:104FC00001E0012500BF00BF55B971480C380068E9
:104FD00020F48030216D08436D490C39086000E0F1
:104FE000A8464FF00052D4E90010114000201346AB
:104FF00059404040014307D1022104F1280002F04A
:10500000F9F908B14FF001084FF40033D4E9000179
:105010001840002158404940084329D1D4F8800065
:10502000A0B1B0F5807F06D0B0F5007F0CD0B0F510
:10503000407F0CD109E056482C38006840F400301D
:1050400053492C39086004E003E002E001E0012547
:1050500000BF00BF5DB94E48001F006820F44070DB
:10506000D4F8801008434A49091F086000E0A846A8
:105070004FF48012D4E9001011400020134659402B
:105080004040014309D142480838006820F0004000
:10509000616F08433E49083908604FF08052D4E9F7
:1050A00000101140002013465940404001430AD1EE
:1050B00037484838006820F48040D4F8B8100843D6
:1050C0003349483908604FF40012D4E90010114008
:1050D0000020134659404040014309D12C4808386C
:1050E000006820F08070E16E0843294908390860A3
:1050F0004FF08042D4E9001011400020134659407F
:105100004040014311D100BF21484838006820F4D5
:1051100000401F494839086008460068D4F8BC10B0
:1051200008431B494839086000BF4FF00042D4E9EA
:10513000001011400020134659404040014309D15E
:1051400013480C38006820F04050616D0843104946
:105150000C3908604FF40002D4E90010114000201F
:1051600013465940404001430AD10948001F0068D6
:1051700020F44000D4F88C1008430549091F08604A
:10518000012300216068184001224940504001E09D
:1051900058440258014306D104F1080002F078F89F
:1051A000054605B1A846022200216068104049402A
:1051B0005040014307D1012104F1080002F068F8D2
:1051C000054605B1A8460423002061681940042261
:1051D00040405140084307D1022104F1080002F089
:1051E00057F8054605B1A846082300216068184015
:1051F000082249405040014306D104F1280002F042
:10520000F9F8054605B1A846102200216068104053
:1052100049405040014307D1012104F1280002F028
:10522000E9F8054605B1A846202200206168114032
:1052300040405140084307D1022104F1280002F008
:10524000D9F8054605B1A846B8F1000F02D10020F3
:10525000BDE8F0810120FBE72DE9F04104460D4651
:1052600014B90120BDE8F081BD48006800F00F00CE
:10527000A8420ED2BA48006820F00F002843B8496F
:1052800008600846006800F00F00A84201D0012025
:10529000E8E7207800F0040004280ED1B149206925
:1052A000096801F07001884207D9AE48006820F013
:1052B000700021690843AB490860207800F00800BD
:1052C000082811D1A749091D6069096801F070011A
:1052D000884209D9A348001D006820F07000616968
:1052E0000843A049091D0860207800F0100010282C
:1052F00011D19C49091DA069096801F4E061884247
:1053000009D99848001D006820F4E060A1690843AD
:105310009449091D0860207800F02000202811D150
:1053200090490831E069096801F07001884209D9A3
:105330008C480830006820F07000E1690843894912
:1053400008310860207800F0020002280ED185495B
:10535000E068096801F00F01884207D981480068B8
:1053600020F00F00E16808437E490860207800F0D3
:105370000100002850D07B48006820F47060A168CC
:105380000843784908606068022807D175481838D2
:105390000068C0F34040F8B9012063E76068032863
:1053A00007D1704818380068C0F34060A0B90120E8
:1053B00058E76068012807D16A4818380068C0F3C8
:1053C000002048B901204DE7664818380068C0F34E
:1053D000800008B9012045E762480838006820F0DD
:1053E0000700616808435F4908390860FDF70EFD52
:1053F000064608E0FDF70AFD801B41F2883188422D
:1054000001D903202EE757480838006800F038001B
:105410006168B0EBC10FEDD1207800F002000228E6
:105420000ED15049E068096801F00F01884207D2A7
:105430004C48006820F00F00E168084349490860C3
:105440004748006800F00F00A8420ED944480068A1
:1054500020F00F002843424908600846006800F029
:105460000F00A84201D00120FCE6207800F00400E3
:1054700004280ED13B492069096801F07001884277
:1054800007D23848006820F0700021690843354988
:105490000860207800F00800082811D13149091D62
:1054A0006069096801F07001884209D22D48001D29
:1054B000006820F07000616908432A49091D0860EE
:1054C000207800F01000102811D12649091DA0698C
:1054D000096801F4E061884209D22248001D006891
:1054E00020F4E060A16908431E49091D0860207886
:1054F00000F02000202811D11A490831E06909681C
:1055000001F07001884209D216480830006820F086
:105510007000E169084313490831086000F0ACF8F5
:1055200010490968C1F303210F4A515C01F01F01C2
:1055300020FA01F70B48006800F00F001146085CE4
:1055400000F01F0027FA00F00849086008480760CB
:1055500008480068FDF71CFF8046404682E60000D0
:10556000002000521844025860A5000834040024AA
:1055700030040024280400243F220260174A1268E5
:1055800002F007024260154A0832126802F47062A3
:105590008260124A0832126802F00F02C2600F4A9B
:1055A0000832126802F0700202610C4A0C32126872
:1055B00002F070024261094A0C32126802F4E062A1
:1055C0008261064A1032126802F07002C261044A17
:1055D000126802F00F020A6070470000104402587F
:1055E0000020005210B500F047F80D490968C1F3DA
:1055F00003210C4A515C01F01F0120FA01F4084814
:10560000006800F00F001146085C00F01F0024FA4B
:1056100000F005490860054804600846006810BDB0
:105620001844025860A50008340400243004002403
:1056300000B5FFF7D7FF05490968C1F30211044A15
:10564000515C01F01F01C84000BD00001C4402581D
:1056500060A5000800B5FFF7C5FF05490968C1F35B
:105660000221044A515C01F01F01C84000BD000046
:105670001C44025860A50008F0B5824E366806F05A
:10568000380636B1082E15D0102E15D0182E7DD123
:1056900014E07C4E103E3668C6F3401646B1794E93
:1056A000103E3668C6F3C107774E26FA07F000E0D1
:1056B0007548E5E07548E3E07548E1E0714E18365D
:1056C000366806F003046F4E18363668C6F30511C7
:1056D0006C4E1C36366806F001056A4E2436366874
:1056E000C6F3CC0616FB05F601EE106AB8EE410AC9
:1056F000002971D024B1012C50D0022C6DD16DE065
:10570000604E103E3668C6F340163EB35D4E103E06
:105710003668C6F3C1075C4E26FA07F301EE103A6D
:10572000F8EE411A01EE101AB8EE411A81EE812A04
:105730009FED581AC0EE011A524E20363668C6F355
:10574000080601EE106AB8EE411A31EE811AF7EE42
:10575000001A31EE211A62EE010A1EE001EE101A63
:10576000B8EE411ADFED4C1A81EE812A9FED491AFD
:10577000C0EE011A434E20363668C6F3080601EE25
:10578000106AB8EE411A31EE811A00E076E0F7EEC9
:10579000001A31EE211A62EE010A5BE001EE101AE6
:1057A000B8EE411A9FED3D2AC2EE011A9FED391A5B
:1057B00080EE012A334E20363668C6F3080601EE25
:1057C000106AB8EE411A32EE011AB7EE002A31EE35
:1057D000021A61EE810A3DE04EE01DE001EE101A72
:1057E000B8EE411ADFED2E1A81EE812A9FED291ABB
:1057F000C0EE011A234E20363668C6F3080601EEC5
:10580000106AB8EE411A31EE811AF7EE001A31EE45
:10581000211A62EE010A1DE001EE101AB8EE411ADB
:105820009FED1E2AC2EE011A9FED1A1A80EE012A80
:10583000144E20363668C6F3080601EE106AB8EE3C
:10584000411A32EE011AB7EE002A31EE021A61EE69
:10585000810A00BF00BF0B4E20363668C6F34626CD
:10586000721C01EE102AB8EE411AC0EE811ABCEE8D
:10587000E11A11EE100A00E0002001E0034800BF29
:1058800000BFF0BD104402580090D00300093D0055
:1058900040787D01000000460024744C0024744AC6
:1058A00020BCBE4B2DE9F047044614B90120BDE8E9
:1058B000F087207800F00100002870D0FA480068D6
:1058C00000F03808F8481830D0F80090B8F1100F00
:1058D00006D0B8F1180F0FD109F0030002280BD140
:1058E000F14810380068C0F3404000286AD0606872
:1058F000002867D10120DAE700BF6068B0F5803F7B
:1059000008D1E9481038006840F48030E649103981
:1059100008602EE0606868B9E3481038006820F439
:105920008030E149103908600846006820F4802082
:1059300008601EE06068B0F5A02F0DD1DA4810387D
:10594000006840F48020D849103908600846006893
:1059500040F4803008600CE0D3481038006820F430
:105960008030D149103908600846006820F4802052
:10597000086000BF606898B1FDF748FA054606E088
:10598000FDF744FA401B642801D903208FE7C6487D
:1059900010380068C0F340400028F1D012E012E057
:1059A000FDF734FA054606E0FDF730FA401B64289F
:1059B00001D903207BE7BC4810380068C0F34040A1
:1059C0000028F1D100BF207800F00200022874D135
:1059D000B548006800F03808B3481830D0F8009097
:1059E000B8F1000F05D0B8F1180F56D109F0030037
:1059F000D0BBAD4810380068C0F3800018B1E06833
:105A000008B9012053E7A8481038006820F01900B1
:105A1000E1680843A44910390860FDF7F7F9054625
:105A200006E0FDF7F3F9401B022801D903203EE709
:105A30009D4810380068C0F380000028F1D000BFF6
:105A4000FDF7DEF941F2030188421AD820694028A7
:105A50000BD195480C38006820F47C3040F40030BD
:105A600091490C39086017E017E08F480C3800683E
:105A700020F47C30216940EA01308B490C39086000
:105A80000AE089480C38006820F0FE40217C40EA9A
:105A9000016085490C39086066E0E06888B3824897
:105AA0001038006820F01900E16808437E49103979
:105AB0000860FDF7ABF9054607E056E0FDF7A6F9EB
:105AC000401B022801D90320F1E67748103800680E
:105AD000C0F380000028F1D000BFFDF791F941F23A
