:020000040800F2
:10000000F06400246D030008B36A0008B1650008BD
:10001000B16A000801060008E3950008000000002E
:10002000000000000000000000000000AD02000819
:10003000350700080000000009030008556D00089E
:100040008703000887030008870300088703000868
:100050008703000887030008870300088703000858
:100060008703000887030008870300084D0600087F
:100070008703000887030008870300088703000838
:100080008703000887030008870300088703000828
:100090008703000887030008870300088703000818
:1000A0008703000887030008870300088703000808
:1000B000756F00088703000887030008870300089E
:1000C00087030008870300088703000887030008E8
:1000D00087030008870300088703000887030008D8
:1000E000870300088703000800000000870300085A
:1000F00087030008870300088703000887030008B8
:1001000087030008870300088703000887030008A7
:100110008703000887030008870300088703000897
:100120008703000887030008870300088703000887
:100130008703000887030008870300088703000877
:1001400000000000000000000000000000000000AF
:100150008703000887030008870300088703000857
:100160008703000887030008870300088703000847
:100170008703000887030008870300088703000837
:100180008703000887030008870300088703000827
:100190008703000887030008870300088703000817
:1001A0008703000887030008870300088703000807
:1001B00087030008870300088703000887030008F7
:1001C00087030008870300088703000887030008E7
:1001D00087030008B56A0008870300088703000842
:1001E00087030008870300088703000887030008C7
:1001F00087030008870300088703000887030008B7
:1002000087030008870300088703000887030008A6
:100210008703000887030008870300088703000896
:100220008703000887030008870300080000000018
:100230008703000887030008000000008703000808
:100240008703000887030008870300088703000866
:100250008703000887030008870300088703000856
:100260008703000887030008870300088703000846
:1002700087030008870300088703000800000000C8
:1002800087030008870300088703000800000000B8
:100290000000000087030008DFF80CD000F0ECF845
:1002A0000048004703960008F06400242C4B1968AE
:1002B0000868B0E8F04F80F30988BFF36F8F4FF004
:1002C000000080F3118870470000000008480068B3
:1002D000006880F308884FF0000080F3148862B64D
:1002E00061B6BFF34F8FBFF36F8F00DF00BF00BF5A
:1002F00008ED00E0DFF80C00016841F470010160D6
:10030000704700BF88ED00E0EFF30980BFF36F8F07
:10031000134B1A681EF0100F08BF20ED108A20E959
:10032000F04F106009B44FF0500080F31188BFF314
:100330004F8FBFF36F8F09F007FD4FF0000080F380
:10034000118809BC19680868B0E8F04F1EF0100F5A
:1003500008BFB0EC108A80F30988BFF36F8F704735
:1003600080000024EFF305807047000006488047B6
:1003700006480047FEE7FEE7FEE7FEE7FEE7FEE78A
:10038000FEE7FEE7FEE7FEE7716E0008990200084F
:100390002DE9F05F0546002092469B4688460646BA
:1003A000814640241BE0284641464746224600F04D
:1003B00053F853465A46C01A914110D31146184675
:1003C000224600F03AF82D1A67EB01084F46224604
:1003D0000120002100F031F817EB00094E41201EEA
:1003E000A4F10104DFDC484631462A464346BDE815
:1003F000F09F40EA01039B0703D009E008C9121FE0
:1004000008C0042AFAD203E011F8013B00F8013BCE
:10041000521EF9D27047D2B201E000F8012B491EFA
:10042000FBD270470022F6E710B513460A46044691
:100430001946FFF7F0FF204610BD202A04DB203AC2
:1004400000FA02F1002070479140C2F1200320FA27
:1004500003F3194390407047202A04DB203A21FA25
:1004600002F00021704721FA02F3D040C2F12002CD
:100470009140084319467047064C074D06E0E06876
:1004800040F0010394E8070098471034AC42F6D3DB
:10049000FFF706FF94A30008B4A3000870B58C18FA
:1004A00010F8015B15F0070301D110F8013B2A1188
:1004B00006D110F8012B03E010F8016B01F8016B75
:1004C0005B1EF9D12B0705D40023521E0DD401F871
:1004D000013BFAE710F8013BCB1A921C03E013F83A
:1004E000015B01F8015B521EF9D5A142D8D300206F
:1004F00070BD000070B53B490546006888421CBFCE
:10050000394A904205D1D1F8080310F4403F06D192
:1005100015E03648D0F8080310F4403F0FD004F03F
:10052000A9FE04466868B0F5803F14BFB0F5003FEF
:10053000000C1CD0B0F5403F08BFA40823E0002108
:100540004FF4002003F01AFD044668688103890B0C
:1005500019D180140C2816D2DFE800F01506060623
:100560000606060C0E1012146868800C4000B4FBDE
:10057000F0F408E0240906E0640904E0A40902E0BC
:10058000E40900E0240A01F047FF41F20301884238
:1005900008D81748A0422868816828BF21F48071D4
:1005A00012D20FE013496008884204D82868816895
:1005B00021F4407108E01049884207D82868816812
:1005C00021F4407141F48071816070BD0B49884213
:1005D000286881689ABF21F4407141F4007141F4A8
:1005E0004071F1E700200240002102400060025803
:1005F000002D3101105E5F0020BCBE0040787D01FF
:10060000FEE70020704700207047000005490022E7
:10061000054810B507F0BBFA0449034807F0AAFAE9
:10062000002010BDD4140024F8070024D40C0024AA
:100630000146044810B507F09DFA024807F06CFA2D
:10064000002010BDF807002400207047014800F08A
:10065000F7BC000030040024244A016891421CBF0A
:10066000234A91422CD0234A91421CBF224A9142F4
:1006700026D0224A91421CBF214A914220D0214AD1
:1006800091421CBF204A91421AD0204A91421CBF7D
:100690001F4A914214D01F4A91421CBF1E4A9142E8
:1006A0000ED01E4A91421CBF1D4A914208D01D4ADD
:1006B00091421FBF1C4A914221F0FF01816512D176
:1006C0001A4ACBB2A3F110036FF30901A2FB033264
:1006D0004FEA1212032A02F00703154AD25CC265E0
:1006E00088BF091D81650846704700001000024060
:1006F00028000240400002405800024070000240C2
:1007000088000240A0000240B800024010040240ED
:100710002804024040040240580402407004024091
:1007200088040240A0040240B8040240ABAAAAAA6E
:10073000ECA20008704772B6FEE700002DE9F00158
:1007400090F85020002599B0012A01BF022019B06D
:10075000BDE8F00170474FF0000C012280F85020F6
:10076000CDF854C0344BCDF858C002689A4218D125
:10077000324C0094A668926812F0040FC6F380020F
:1007800008BF002A19D0416D4FF0010541F020014A
:10079000C0F8541080F850C019B02846BDE8F001E8
:1007A0007047416D80F850C041F02001416519B09B
:1007B0004FF00100BDE8F0017047214A214E0F685B
:1007C0000FB3D2F808804F6828F4404848EA07077A
:1007D000976007689F4211BFA7429C68D3F8083111
:1007E000234318BFB36813F0010FD3D10B68896896
:1007F000946843EA010124F01F0323F4706341EA83
:1008000003019160C6E7916821F44041916001685D
:10081000994219BFA142B1689968D3F8083108BF5D
:10082000194311F0010F02BF916821F01F0121F45B
:100830007061AFD1E5E700000020024000210240D6
:1008400000230240006002582DE9F00F84B000251B
:10085000AC46019590F85020012A01BF022004B057
:10086000BDE8F00F7047012380F8503002689468AB
:1008700014F0040F0DD0416D4FF0010C41F0200138
:10088000C0F8541080F8505004B06046BDE8F00F36
:1008900070470C68D66927033F0B1ABF94FAA4F47B
:1008A000B4FA84F4C4F3846404F01F0403FA04F477
:1008B0003443D461D1E900720C2406684FF01F085C
:1008C00004EA921902F01F0409EB0602C7F38466DA
:1008D00008FA04F706FA04F4166BBE4334431463B3
:1008E0000268042407269768D2F80890C7F38008A6
:1008F000C9F3C00758EA070762D10F68D1F808802A
:1009000004EAD759C7F304574A4406FA07F908FA24
:1009100007F7D2F8148028EA090848EA0707576160
:10092000E54A126802F07042B2F1805F026848D076
:10093000D768D26817F0100F4F6907BFC2F3820261
:10094000520002F01002520807FA02F20F69042F57
:100950003FD0D0F80090D1F8008009EB870708F06D
:10096000F849D7F8608049EA020208F0004848EAEE
:1009700002023A664F7E0268D1F81080012F0CBF48
:100980004FF00047002702EB8802D2F8608028F081
:10099000004848EA070717660F7E0268D1F8108002
:1009A000012F0CBF4FF400670027D2F8109008F019
:1009B0001F0807FA08F729F4F04848EA0707176103
:1009C0003BE04F69D268C2F38202520007FA02F29A
:1009D000BCE702680F78D2F8608008F0F848B8EBFE
:1009E000876F03D1176E27F00047176602680F78EC
:1009F000D2F8648008F0F848B8EB876F03D1576EDF
:100A000027F00047576602680F78D2F8688008F030
:100A1000F848B8EB876F03D1976E27F000479766C9
:100A200002680F78D2F86C8008F0F848B8EB876F4E
:100A300003D1D76E27F00047D7660268976817F092
:100A4000010F7FF41FAFD2F8C09091F80C800F68AF
:100A5000DFF868A208F0180BC7F313082AFA0BFA9C
:100A600029EA08080AEA070748EA0707C2F8C07037
:100A7000CF68A7F18E42B2F57F027DD10A68076880
:100A8000C2F31308B8F1000F1ABF92FAA2F8B8FA2D
:100A900088F8C2F3846808F1010808F01F08B8F16B
:100AA000090FC2F313082BD8B8F1000F1ABF92FA3E
:100AB000A2F8B8FA88F8C2F3846808F1010808F0CF
:100AC0001F0803FA08F80EBFC2F3846392FAA2F378
:100AD000B3FA83F303F1010303F01F0348EA8363CE
:100AE0000EBFC2F3846292FAA2F2B2FA82F202F16B
:100AF000010202F01F0202EB420243EA025230E01E
:100B0000B8F1000F0EBFC2F3846892FAA2F8B8FAE7
:100B100088F808F1010808F01F0803FA08F80EBF6A
:100B2000C2F3846392FAA2F3B3FA83F303F10103ED
:100B300003F01F0348EA83630EBFC2F3846292FA94
:100B4000A2F2B2FA82F2DFF8788102F1010202F039
:100B50001F0202EB420208EB025243EA020242F099
:100B600000728B6804EAD254C2F30452274406FA96
:100B700002F403FA02F300E005E07E6926EA0404C9
:100B800044EA03037B610C6814F0004F3FF47AAE33
:100B90004C4F01684C4EDFF83491B942DFF8308198
:100BA00016BF414532464A469268B942494B02F067
:100BB000E07211BF4145D7F808A0D7F808B14AEA5A
:100BC0000B0A18BFD3F808A01AF0010F7FF453AE38
:100BD00004F1505A1AF5F80A08BF12F4000F1ED09B
:100BE00004F1605A1AF52E0A08BF12F0807F4ED029
:100BF00004F1405A1AF5900A04BF12F4800F99428A
:100C00007FF440AEB9421CBF41454E46B36842F442
:100C1000800123F0E07242EA0101B16032E69942BC
:100C20007FF430AEB9421CBF41454E46B36842F432
:100C3000000123F0E07242EA0101B160274A26492F
:100C40001268B2FBF1F14FEA4101891C0191009158
:100C50003FF418AEB1F1004F29D20029D8BF0021CE
:100C600005DD11F0010102D0019A521E0192009A95
:100C7000491C521C9142B8BF019BBFF603AE5B1EDC
:100C8000891C9142A3F101030193F8DBFAE5994233
:100C90007FF4F8ADB9421CBF41454E46B36842F0FF
:100CA000807123F0E07242EA0101B160EAE5019946
:100CB000491E0191FCD1E5E50010005CFFFF0F002B
:100CC000000020FE00200240002302400063025882
:100CD0000021024000600258400D03001000002473
:100CE000F0B583B04FF0000604003546029602BF0F
:100CF000012003B0F0BD606D28B9204600F02EF948
:100D0000A66584F8506020688168C1F3407129B1FC
:100D1000816821F03F0121F02041816020688168D5
:100D2000C1F3007161BB816821F03F0121F00041F6
:100D300041F08051816080497E480968B1FBF0F044
:100D4000401C029000901BD0B0F1004F80F0EC806E
:100D50000028D8BF002005DD10F0010002D0029964
:100D6000491E02910099401C491C8842B8BF029A52
:100D700006DA521E801C8842A2F101020292F8DBC0
:100D800020688168C1F3007141B9616D012541F0AE
:100D900010016165A16D41F00101A1658168626D7D
:100DA00012F0100FC1F3800108BF002905D0606D5B
:100DB0004FF0010540F0100097E0616D21F4807163
:100DC00041F002016165816811F0010F16D000BF8A
:100DD00001F022FB41F20301884202D9A0681028E9
:100DE00029D0617D237FA268206B490341EA03413A
:100DF00010430843217F012931D12AE04F49504A4D
:100E000088421DBF90424F4B9B688B6804BFD1F84E
:100E100008C143EA0C0313F0010FD9D188421ABF6D
:100E20009042494849488268616822F47C1242EA4B
:100E300001018160CCE7607D227F216B4FEA403069
:100E400040EA024041F0100141EA000040F00C008D
:100E5000D0E7218C3E4A02EB414141EA0000616A41
:100E600031B1A26A01F4787141EA000042EA00005F
:100E70002168384ACB6803EA020242EA0000C860EF
:100E8000206881688368C1F38002C3F3C001114305
:100E90001DD1237DE16AC26841EA833122F0030259
:100EA00022F480421143C16094F83800012820D018
:100EB0002068016921F0010101612068616B02690C
:100EC00022F07042114301612046FFF713FBE068F6
:100ED000012820681CBF016B21F00F011DD00163A8
:100EE000606D20F0020040F00100606503B028460C
:100EF000F0BD2068D4E91012B4F83CC0164EA36CC3
:100F00000769ACF1010C114343EA0C42114307EAB3
:100F10000603194341F00101CEE7A269016B521E9D
:100F200021F00F011143DAE70298401E0290FCD134
:100F300026E70000400D03001000002400200240BE
:100F40000021024000600258006302580023024062
:100F50000000FEFF03C0F0FF1EF800FC70B5B6B045
:100F6000064600256846C021309531953295339567
:100F70003495FFF757FA3068A0F18041B1F5083198
:100F80001CBF36B070BD4FF400214FF0C00C0220E2
:100F9000002200910C23CDE90120CDE903302995F1
:100FA0002024CDE9060CCDE908450590684603F0FC
:100FB00077FA002818BFFFF7BEFB1C48016841F014
:100FC00020010160006800F0200035901848016899
:100FD00041F00101016000680321329500F0010039
:100FE00035904020CDE93001124830A901F0FAF8DF
:100FF000114C4FF48060DFF844C009234100C20067
:10100000C4F800C0C4E901356161C4E90350C4E912
:10101000062525622046656200F0B8FB002818BF4F
:10102000FFF789FBF464A66336B070BDD84402585C
:10103000E04402580000025830040024100002402E
:101040002DE9F84F0446DFF800840020DFF8009413
:1010500000904FF41652FD48A56DFE4EFE4F0168FC
:101060002068B1FBF2FBD5F800A0404529681CBF01
:10107000F74A90422BD0B04218BFB84227D0F74A67
:1010800090421CBFF64A904221D0F64A90421CBFC3
:10109000F54A90421BD0F54A90421CBFF44A904258
:1010A00015D0F44A90421CBFF34A90420FD0F34B44
:1010B00098421CBFDFF8C8C3604508D0DFF8C4E31E
:1010C00070451CBFDFF8C0E3704540F0308294F8F3
:1010D0005C204FF0080102F01F0201FA02F212EA4E
:1010E0000A0F41D0404518BF48452AD0B04218BF2A
:1010F000B84226D0D94A90421CBFD94A904220D04B
:10110000D84A90421CBFD84A90421AD0D74A90423F
:101110001CBFD74A904214D0D64A90421CBFD64A30
:1011200090420ED0D54A90421CBFD54A904208D07A
:10113000D44A90421FBFD44A9042026802F008028B
:1011400002D1026802F0040272B1026822F00402C5
:10115000026094F85C0000F01F0001FA00F0A86043
:10116000606D40F00100606594F85C0000F01F01C4
:101170004FF0010000FA01F111EA0A0F36D02068A1
:10118000404518BF484528D0B04218BFB84224D0C7
:10119000B24A90421CBFB24A90421ED0B14A90421D
:1011A0001CBFB14A904218D0B04A90421CBFB04A0E
:1011B000904212D0AF4A90421CBFAF4A90420CD02E
:1011C000AE4A90421CBFAE4A904206D0AD4A904211
:1011D0001EBFAD4A9042006808D1406910F0800FF0
:1011E00004D0A960606D40F00200606594F85C0076
:1011F00000F01F014FF0040000FA01F111EA0A0F9C
:1012000036D02068404518BF484528D0B04218BFA6
:10121000B84224D0914A90421CBF914A90421ED0BD
:10122000904A90421CBF904A904218D08F4A9042F8
:101230001CBF8F4A904212D08E4A90421CBF8E4AE9
:1012400090420CD08D4A90421CBF8D4A904206D0ED
:101250008C4A90421EBF8C4A9042006808D10068B8
:1012600010F0020F04D0A960606D40F004006065CA
:1012700094F85C104FF0100001F01F0100FA01F12A
:1012800011EA0A0F4FD02068404518BF48452AD0C0
:10129000B04218BFB84226D0704A90421CBF704A74
:1012A000904220D06F4A90421CBF6F4A90421AD0A1
:1012B0006E4A90421CBF6E4A904214D06D4A9042D2
:1012C0001CBF6D4A90420ED06C4A90421CBF6C4AC3
:1012D000904208D06B4A90421FBF6B4A9042006810
:1012E00000F0040002D1006800F00800D8B1A96045
:1012F0002068016811F4802F09D0006810F4002FD5
:1013000002D0A16C79B10CE0216C51B90BE00168FD
:1013100011F4807F03D1016821F008010160216C84
:1013200009B12046884794F85C10202001F01F0185
:1013300000FA01F111EA0A0F6ED02068404518BF8B
:1013400048452AD0B04218BFB84226D0434A9042FE
:101350001CBF434A904220D0424A90421CBF424A9E
:1013600090421AD0414A90421CBF414A904214D048
:10137000404A90421CBF404A90420ED03F4A9042A1
:101380001CBF3F4A904208D03E4A90421FBF3E4A8F
:101390009042006800F0020002D1006800F01000E6
:1013A000D0B3A96094F8350004282068016809D0FA
:1013B00011F4802F34D0006810F4002F2DD0E16B91
:1013C00051B33DE021F0160101602068416921F030
:1013D00080014161206C002804BFA06C002804D06B
:1013E0002068016821F00801016094F85C304FF03A
:1013F0003F024FF001004FF0000103F01F0302FA1B
:1014000003F2AA6084F8350084F83410216D0029B5
:1014100040F08C81BDE8F88F14E0616C81B911E077
:10142000016811F4807F09D103680121002223F0B3
:101430001003036084F8351084F83420E16B09B19F
:1014400020468847606D21E0100002401000002413
:101450002800024040000240580002407000024054
:1014600088000240A0000240B80002401004024080
:101470002804024040040240580402407004024024
:1014800088040240A0040240B8040240002808BFBB
:10149000BDE8F88F606D10F0010F43D02068042183
:1014A00084F83510404518BF484521D0B04218BFD8
:1014B000B8421DD0A04988421CBFA049884217D01D
:1014C0009F4988421CBF9F49884211D09E4988424B
:1014D0001CBF9E4988420BD09D4988421CBF9D4934
:1014E000884205D09C4988421EBF9C4988429C493D
:1014F000016821F0010101602068009901F10101FA
:101500000091594503D8016811F0010FF5D1006829
:1015100010F0010F14BF0320012084F835000020D3
:1015200084F83400E16C00293FD1BDE8F88FDFF882
:10153000349248451CBFDFF83092484518D0DFF898
:101540002C9248451CBFDFF82892484510D0DFF8A0
:10155000249248451CBFDFF82092484508D0DFF8A8
:101560001C9248451EBFDFF818924845BDE8F88F29
:1015700094F85CA04FF0040BD0F800900AF01F0A1A
:101580000BFA0AFB1BEA010F18BF19F0040F4BD02E
:1015900019F4004FC5F804B00DD019F4803F05D000
:1015A000216C002908BFBDE8F88FBFE0A16C0029BD
:1015B00076D1BDE8F88F19F0200F31D12068404571
:1015C0001CBF7049884227D0B04218BFB84223D010
:1015D000594988421CBF594988421DD05849884200
:1015E0001CBF5849884217D0574988421CBF5749E9
:1015F000884211D05649884218BF90420CD0984278
:1016000018BF604508D0564988421FBF5E498842CE
:10161000016821F0040102D1016821F00801016094
:10162000216CE9BBBDE8F88F4FF0020B0BFA0AFB07
:101630001BEA010F18BF19F0020F54D019F4004F24
:10164000C5F804B00CD019F4803F05D0E16B002937
:1016500008BFBDE8F88F69E0616C09BBBDE8F88F91
:1016600019F0200F3BD1206840451CBF45498842F6
:1016700029D0B04218BFB84225D02F4988421CBF9C
:101680002E4988421FD02E4988421CBF2D498842CE
:1016900019D02D4988421CBF2C49884213D000E044
:1016A00044E02B49884218BF90420CD0984218BFA2
:1016B000604508D02A4988421FBF334988420168E3
:1016C00021F00A0102D1016821F0140101604FF0FC
:1016D00001014FF0000084F8351084F83400E16B0C
:1016E00021BBBDE8F88F4FF0080202FA0AF20A4265
:1016F00014BF19F0080FBDE8F88F016821F00E0142
:10170000016094F85C104FF0010001F01F0100FA35
:1017100001F24FF000016A60606584F8350084F8DA
:101720003410E16C002908BFBDE8F88F204601B0F5
:10173000BDE8F04F084700007000024088000240FA
:10174000A0000240B80002401004024028040240F9
:1017500040040240580402407004024088040240E1
:10176000A0040240085402581C5402583054025835
:1017700044540258585402586C5402588054025829
:101780009454025828000240B80402402DE9F84F52
:10179000044600F047FE002C834600F04982FE49D3
:1017A0004FF0010620684FF00005FC4FDFF8F08392
:1017B0008842DFF8F093DFF8F0A31CBFFB498842B2
:1017C0002AD0FB4988421CBFFA49884224D0FA49F2
:1017D00088421CBFF94988421ED0F94988421CBF83
:1017E000F849884218D0F84988421CBFF749884216
:1017F00012D0F74988421CBFF64988420CD0F649FE
:1018000088421CBFF549884206D0F54988421CBF72
:10181000F449884240F0D980DF494FF0020284F851
:101820003520884284F834501CBFE049884223D0D8
:10183000DF4988421CBFDF4988421DD0DE4988420B
:101840001CBFDE49884217D0DD4988421CBFDD49F4
:10185000884211D0DC4988421CBFDC4988420BD049
:10186000DB4988421CBFDB49884205D0DA498842FF
:101870001EBFDA498842DA49016821F0010101609E
:101880002068006810F0010F13D000BF00F0CAFDFF
:10189000A0EB0B00052807D920216165032084F8FF
:1018A00035000120BDE8F88F2068006810F0010FB6
:1018B000ECD1D4E9021C2068D4E9042E009041EA5E
:1018C0000C01D4E9063CD4F820B042EA0E020068CC
:1018D0000A43C5491A43D4F824E042EA0C020840FE
:1018E00042EA0B01BEF1040F41EA000003D1D4E942
:1018F0000B1211430843BD4909686FF30F01B1F1A1
:10190000005F11D36168A1F12902052A84BFA1F10A
:101910003F02032A06D9A1F14702012A84BF4F39A9
:10192000032901D840F4801000990860D4F800C061
:10193000616ADCF81400042920F0070041EA000283
:1019400036D1D4E90A100A4318B3A36953B1B3F5E9
:10195000005F14D000291CBF0129022921D00329CE
:101960001CD025E019B1012905D0022920D110F0A1
:10197000807F1DD015E0B0F1C07F19D111E081B199
:10198000012907D002290CD0032908BFB0F1C07F7C
:1019900007D00DE010F0807F03D109E010F0807FC8
:1019A00006D04FF04000606584F8356000F040B923
:1019B000CCF814202046FEF74FFE94F85C203F211F
:1019C00002F01F029140816051E08949884218BFAE
:1019D000B8420FD0404518BF48450BD050451CBFFA
:1019E0008449884206D0844988421CBF8349884282
:1019F00040F016814FF0020184F8351084F834501D
:101A00000168A2686FF310110091402A08BF1022EC
:101A100004D0802A0CBF4FF480420022D4E903CEC8
:101A2000D4E9053142EADC02D4E907CB42EADE0E12
:101A3000734A4EEAD30E734B4EEAD10141EADC0100
:101A400041EA1B1C00994CEA010101602068104426
:101A5000A3FB001000098000E0652046FEF7FCFDB6
:101A600094F85C1001F01F0106FA01F141604A4947
:101A7000206888421CBF4D4988423DD04C4988426D
:101A80001CBF4C49884237D04B4988421CBF4B4948
:101A9000884231D04A4988421CBF4A4988422BD0EB
:101AA000494988421CBF4949884225D04849884253
:101AB0001CBF484988421FD0474988421CBF47493C
:101AC000884219D0464988421CBF4649884213D0F3
:101AD0004749884218BFB8420ED0404518BF484514
:101AE0000AD050451CBF4349884205D0424988422C
:101AF0001CBF424988424DD13D4A904218BFB8426E
:101B00000ED0404518BF48450AD050451CBF394942
:101B1000884205D0384988421CBF384988423AD1AA
:101B2000384BC0B2A0F108003749A3FB0030374B57
:101B300063664FEA101000F01F0301EB800006FA05
:101B400003F1A1662066A068802808BF656020793F
:101B5000216E0860D4E9190141606068411E0729BF
:101B60007DD8C1B24B1E072B7AD82068904218BF8F
:101B7000B8420ED0404518BF48450AD050451CBF5A
:101B80001C4A904205D01C4A90421CBF1B4A9042FE
:101B90006FD13DE07FE04FE0100002401C5402583E
:101BA00030540258445402585854025828000240F5
:101BB000400002405800024070000240880002408D
:101BC000A0000240B8000240100402402804024075
:101BD000400402405804024070040240880402405D
:101BE000A0040240B80402403F8010FE0010005CD8
:101BF000085402586C5402588054025894540258A5
:101C0000F8ABFDA7CDCCCCCC005802588058025878
:101C10002548244A02EB8101C4E91B102FE000BFD4
:101C20004FF040014FF00300616584F8350000BFBC
:101C30004FF00100BDE8F88F1C49C3B2A3F1100CAE
:101C40001B4BA1FB0CC11844A8284FEA111098BFE8
:101C50000830184900F01F0301EB800002E017E094
:101C600010E006E0144906FA03F3A366C4E918017C
:101C700069E71348114A02EB8101C4E91B1006FA17
:101C800003F06067E06E0560D4E91C01416002E08A
:101C9000E56625676567656584F835600020BDE801
:101CA000F88F0000FC58025840590258ABAAAAAA63
:101CB000F0FBFDBF0008024080080240FC08024023
:101CC0004009024070B5044600F0ACFBB4F1FF3FA0
:101CD000054602D004480078044400F0A3FB401BF2
:101CE000A042FAD370BD0000040000242DE9F043A7
:101CF00093B0FF494C2204466846FEF77AFB002C5D
:101D000002BF012013B0BDE8F083DFF8E88320684C
:101D1000404504BF00F58070606094F8980000278B
:101D200020B9204684F8997000F012FA2068816981
:101D300021F01001816100F075FB05462068032643
:101D4000806910F0080F09D000F06CFB401B0A28D6
:101D500017D82068806910F0080FF5D120688169D4
:101D600041F00101816100F05DFB0546206880695A
:101D700010F0010F16D100BF00F054FB401B0A28E1
:101D80000BD9D4F89C0040F00100C4F89C0084F802
:101D9000986013B00120BDE8F0832068806910F0DE
:101DA000010FE9D02068816941F002018161207C46
:101DB0000128206881690CBF21F0400141F04001F9
:101DC0008161607C0128206881690CBF41F48041F9
:101DD00021F480418161A07C0128206881690CBFC9
:101DE00021F4805141F4805181612068A1688269A9
:101DF00022F44072114381612068816921F0A401BD
:101E000081612068016921F010010161E068012809
:101E100010D0C8B1022812D02068816941F0800139
:101E200081612068016941F010010161E0680328C7
:101E300005D009E02068816941F0040103E02068D1
:101E4000816941F020018161227E6FF0FF00D4E9B9
:101E5000073C0102A58A5206A2F10079ACF1010209
:101E6000D4F800C000EB032349EA03031A4301EB53
:101E700005452A43CCF81C20A268B2F5407F13D157
:101E8000D4E90A320511B4F82490D4F830C05B1EAE
:101E900000EB0220034305EB0C1201EB094043EA7F
:101EA000020122680843D060206E30B12068616E64
:101EB000D0F8C0201143C0F8C010D4E9171268460A
:101EC000D1420AD02168A26ED1F8C83050F8222041
:101ED00023F007031A43C1F8C820216C51B12168CF
:101EE000626CD1F8BC3050F8222023F007031A436B
:101EF000C1F8BC20A16C59B12168E26CD1F8BC30AA
:101F000050F8222023F0700343EA0212C1F8BC20EB
:101F1000216D59B12168636DD1F8BC2050F82300C0
:101F200022F4E06242EA0020C1F8BC00206840458B
:101F300004D16068816821F003018160C4F8947065
:101F400001233846C4F89C7084F8983025686A4AA2
:101F5000DFF8A8C1616BD5F884706FF38F0747EA8B
:101F60008107C5F884702568278FD5F8848028F408
:101F70007F0848EA0747C5F884702568D4F8388098
:101F8000D5F8887041446FF38F0747EA8107C5F899
:101F900088702568A78FD5F8888028F4FE0848EA5D
:101FA0000747C5F888702568D4F83C80D5F8A0703C
:101FB00001EB48016FF38F0747EA8107C5F8A0706E
:101FC0002568B4F84070D5F8A08028F4FE0848EAE7
:101FD0000747C5F8A070D4E91078256807FB0811F9
:101FE000D5F8B0706FF38F0747EA8107C5F8B07076
:101FF0002568B4F84870D5F8B08028F4FE0848EA9F
:102000000747C5F8B070D4E91278256807FB0811B6
:10201000D5F8AC706FF38F0747EA8107C5F8AC704D
:10202000D4E91478256807FB0811D5F8F0706FF330
:102030008F0747EA8107C5F8F0702568B4F8587033
:10204000D5F8F08028F47C1848EA0747C5F8F07006
:102050002568D4F85880D5F8C07001EB48016FF3BB
:102060008F0747EA8101C5F8C0102168B4F85C50B9
:10207000D1F8C07027F47C1747EA0545C1F8C05075
:10208000216894F86050D1F8C07027F07C5747EA77
:102090000565C1F8C050616B02EB8101E166A26B7E
:1020A00001EB82022267E56B02EBC5026267D4E9AD
:1020B000105705FB07F502EB8502A267D4E912571A
:1020C00005FB07F502EB8502E267D4E9145705FB2F
:1020D00007F502EB8502C4F88020A56D02EBC5026E
:1020E000C4F88420E76DA56E07FB05F708E0000043
:1020F00004A3000800A0004000AC0040FCD3004056
:1021000002EB8702C4F88820276E07FB05F502EB77
:102110008502C4F8902062450BD9D4F89C1018466B
:1021200041F02001C4F89C1084F8986013B0BDE819
:10213000F083914224BF13B0BDE8F08341F8040B53
:10214000D4F890209142F9D313B0BDE8F083000099
:1021500030B5B7B0054600246846C02130943194AC
:10216000329433943494FEF75DF92868A0F18041ED
:10217000B1F520411CBF37B030BD4FF40041002005
:102180004A031C92CDE90010684602F089F9002844
:1021900018BFFEF7D0FA1048016841F48071016061
:1021A000006800F4807035900C48016841F0080127
:1021B000016000680221092200F008003590032028
:1021C0003090CDE93114064830A9CDE9334200F012
:1021D00009F837B030BD0000EC440258E044025822
:1021E000000C02580B680022DFF824C2002B08BF45
:1021F00070472DE9F84FDFF81CE2012703244FF068
:102200000F0800BF0B6807FA02F6334000F0F880B1
:102210000D7905F00305012D18BF022D1AD1D0F854
:1022200008904FEA4205D1F80CB004FA05FA29EA01
:102230000A090BFA05F545EA09058560456891F834
:10224000049025EA0605C9F3001909FA02F646EAE0
:10225000050545604D6834EA05050BD0C668550094
:10226000D1F808A004FA05F926EA09060AFA05F5E4
:102270003543C5600D7905F00305022D12D1D5084F
:10228000D1F810A04FEA427900EB85052E6A4FEA9B
:10229000D96908FA09FB0AFA09F926EA0B0649EA9C
:1022A00006062E6291F804900668550009F00309AD
:1022B00004FA05FA09FA05F526EA0A063543056027
:1022C0004D6815F4403F7DD0DEF8005045F0020522
:1022D000CEF80050DEF8005022F0030606F1B046BA
:1022E00005F0020500959507D6F808942D0FA0F18A
:1022F000B04B08FA05FABBF5003B29EA0A0908BF0A
:102300004FF0000A48D0A0F1B04ABAF5013A08BF30
:102310004FF0010A40D0A0F1B04ABAF5023A08BF26
:102320004FF0020A38D0A0F1B04ABAF5033A08BF1C
:102330004FF0030A30D0A0F1B04ABAF5043A08BF12
:102340004FF0040A28D0A0F1B04ABAF5053A08BF08
:102350004FF0050A20D0A0F1B04ABAF5063A08BFFE
:102360004FF0060A18D0A0F1B04ABAF5073A08BFF4
:102370004FF0070A10D0A0F1B04ABAF5083A08BFEA
:102380004FF0080A08D0A0F1B04ABAF5093A0CBFDC
:102390004FF0090A4FF00A0A0AFA05FA4FF0B04561
:1023A0004AEA0909C6F80894D1F804902E6819F48D
:1023B000801F26EA030618BF1E432E60D1F8049042
:1023C0006E6800E01CE019F4001F26EA030618BF3F
:1023D0001E436E60DCF804504E6825EA030516F4CF
:1023E000003F18BF1D43CCF80450DCF800504E6885
:1023F00025EA030516F4803F18BF1D43CCF80050B2
:102400000B68521CD3407FF4FDAEBDE8F88F00008E
:1024100080000058F444025801480068000C7047DE
:102420000010005C01488068704700000400002430
:10243000002804BF0120704738B50446007A002503
:10244000022110F0010F84F8C110C4F8C450C4F880
:10245000C850C4F8CC50C4F8D050C4F8D450C4F814
:10246000D8501ED02068A0F18041B1F5BA3108D112
:102470001F48016841F000510160006800F0005001
:1024800000902068228AA38A016802F4404C03F479
:10249000405221F440414CEA010121F440511143E2
:1024A0000160204600F026F8207A10F0020F08D0D4
:1024B0002068A289016802F4407221F4407111433E
:1024C0000160012084F8C100002184F8C050062278
:1024D000C1EBC100491C04EB8000521E8561C5613F
:1024E0000562456285620563F2D1002038BD0000B7
:1024F000F044025810B5B2B00446C0216846FDF75A
:1025000091FF2068A0F18041B1F5BA311CBF32B013
:1025100010BD4FF0805100208A132E92CDE900109B
:10252000684601F0BDFF002818BFFEF704F9054812
:10253000016841F000510160006800F000503090E7
:1025400032B010BDF044025870B490F8C130022B84
:1025500002BF022070BC7047022380F8C1300529F9
:1025600024D0D0F800C0802303EBC11395685CF839
:102570000340D66824F007042C4324F018043443A5
:1025800094254CF8034005EBC1130568D2F800C050
:10259000982445F803C0036804EBC11152685A50EF
:1025A000012180F8C11070BC002070470168D2E999
:1025B000024C0B6823F00703234323F018034CEA73
:1025C00003030B60036811685961516802689161E7
:1025D000E6E72DE9F04F90F8C13082B0022B19BF29
:1025E00090F8C030012B022002B008BFBDE8F08F88
:1025F0004FF0020C4FF0010380F8C030052980F83D
:10260000C1C063D00368802404EBC11B4FF0E40C0D
:10261000E82553F80B6005EBC1140CEBC11526F04F
:102620007046CDE9005443F80B6002F114060368CC
:1026300096E8C00353F80BC01C592CF0200C46EA56
:102640000C0CD2E909A62CF4006C47EA0C07D2F86E
:1026500030C05D5927F4806ED3F8A073BCF1005FE1
:1026600048EA0E0828F0C06C49EA0C0C2CF0006C0B
:102670004AEA0C0C2CF0704C46EA0C0C2CF4003698
:1026800008BF46F4003626F0400AD2F834C024F0E1
:102690001F0E166D4CEA0A0492F8388024F4802448
:1026A000D2F83CA046EA0404D2F8489008F01F088B
:1026B00048EA0E0626F0004824F0FC74BCF1000F36
:1026C00049EA04064AEA08083BD134E0D2E9058425
:1026D000D2E90795D2E909670368D3F800C02CF066
:1026E000200C48EA0C0CD2F830802CF4006C44EA40
:1026F0000C0CD3F8A0432CF4806C49EA0C0CD2F8F3
:102700002C902CF0C06C45EA0C0C2CF0006C46EAC6
:102710000C0C2CF0404C4CEA870C24F480342CF048
:10272000005C49EA040448EA0C0CC3F800C00368E2
:10273000C3F8A04350E0D2F8409025F4807449EAF1
:102740000405546CB4F5606F18BFB4F5F05F02D1A6
:10275000BCF1400F03D125F4F05C44EA0C05D2F83B
:102760004CC0052926D2DFE801F0030A11181F002A
:10277000D2F82C9027F4003444EA49071AE0D2F842
:102780002C9027F4802444EA890713E0D2F82C9097
:1027900027F4002444EAC9070CE0D2F82C9027F46F
:1027A000801444EA091705E0D2F82C9027F40014AD
:1027B00044EA491743F80B600668D424019B04EBF4
:1027C000C11446F803800668009BF550036843F87F
:1027D00004C00368C3F8A073C1EBC103D2F800C002
:1027E000062900EB8303C3F820C0D2F804C0C3F865
:1027F00024C0D2F808C0C3F828C0D2F80CC0C3F86F
:102800002CC012691A6311D2DFE801F0091A2026E0
:102810002C030168D1F8842342F0010204E001682E
:10282000D1F8842342F00202C1F88423012180F808
:10283000C110002280F8C02002B01046BDE8F08F21
:102840000168D1F8842342F00402EDE70168D1F871
:10285000842342F00802E7E70168D1F8842342F0BC
:102860001002E1E70168D1F8842342F02002DBE79F
:102870004DF8044D90F84120202A27D190F84020AF
:10288000012A23D0012380F8403024224FF0000C8D
:10289000202380F841200268146824F001041460A9
:1028A0000268146824F48054146002681468214398
:1028B000116001680A6842F001020A6080F8413044
:1028C00080F840C000205DF8044B70475DF8044B71
:1028D000022070474DF8044D90F84120202A25D160
:1028E00090F84020012A21D0012380F84030242292
:1028F0004FF0200C002480F841200268136823F078
:10290000010313600268136823F4706343EA012132
:10291000116001680A6842F001020A6080F841C053
:1029200080F8404000205DF8044B70475DF8044B90
:1029300002207047002804BF0120704770B504468C
:1029400090F84100002520B9204684F8405000F05E
:102950004BF8242084F841002068016821F001012F
:102960000160D4E9001020F070600861206881687F
:1029700021F400418160E06821680128A0680CBF53
:1029800040F4004040F404408860E068022802D12E
:1029900021688002486020212068426842F4004299
:1029A00042F0007242602068C26822F40042C260B5
:1029B000D4F800C0D4E90402A369104340EA03201C
:1029C000CCF80C002368D4E9070210431860206893
:1029D000026842F001020260656484F841102563D8
:1029E00084F84250002070BDF0B5B7B00546002411
:1029F0006846C02130943194329433943494FDF776
:102A000011FD286812262F4D0427A0F18041B1F551
:102A1000A84130D0A0F1B041B1F5E0511CBF37B0B2
:102A2000F0BD102100202694CDE90010684601F089
:102A300037FD002818BFFDF77EFE286840F008002B
:102A40002860286830A900F0080035904FF4405005
:102A50003090CDE931641C48CDE93347FFF7C2FB24
:102A60001A48016841F080010160006800F08000B0
:102A7000359037B0F0BD002021940821CDE9001039
:102A8000684601F00DFD002818BFFDF754FE2868C8
:102A900040F002002860286830A900F0020035905C
:102AA000C0203090CDE931640948CDE93347FFF7C4
:102AB00099FB0848016841F400110160006800F4C6
:102AC0000010D5E7E0440258000C0258F4440258C4
:102AD00000040258E8440258024881680278114410
:102AE0008160704704000024032010B500F0C4F892
:102AF00002F040FC0F4A104913681268C3F3032325
:102B000002F00F02CB5C895C03F01F0201F01F0191
:102B1000D0400A4A20FA01F11160094908600F20EB
:102B200000F010F800281CBF012010BD00F052F882
:102B3000002010BD1844025878A300081400002497
:102B40001000002410B5102804468AB02ED20022AE
:102B500001461C2000F060F81C2000F04DF81948D8
:102B600004601948016841F001010160006809A989
:102B700000F001000890684602F046FB0598C0B1DD
:102B800002F09CFB4000114A002140F2E733B0FB09
:102B9000F2F20F484FF0804CC0F800C0C0E903319A
:102BA000521EC0E9012103F0A3F828B10AB00120A8
:102BB00010BD02F083FBE6E7054803F0CBF80AB04E
:102BC00010BD000008000024E844025840420F00F5
:102BD000AC070024074882B0016841F0020101609F
:102BE000006800220F2100F002000090901E02B049
:102BF00000F012B8F44402580028B8BF70474109E9
:102C000000F01F008A00012102F1E02201FA00F029
:102C1000C2F8000170470000164B30B41B68C3F3C4
:102C20000223C3F1070CBCF1040F88BF4FF0040C62
:102C30001C1D072C34BF0023DB1E012404FA0CFCEE
:102C400004FA03F5ACF101042140A5F1010C99400F
:102C50000CEA0202114300284FEA0111B8BF00F04C
:102C60000F0000F1E020ACBF80F8001480F8141DC4
:102C700030BC70470CED00E0074900F007004FF64C
:102C8000FF030A681A4042EA002040F0FD7040F05D
:102C900080600860704700000CED00E001680123CF
:102CA000C0F80035002280F8F424886940F0006004
:102CB0008861486D40F0030040F080504865104640
:102CC000704770470068416200207047F0B4D0F848
:102CD00000C00029DCF8243004BF43EA0240CCF8ED
:102CE00028001CD0DCF8284000204D1E03EB1443C4
:102CF0001CBF2C464FF4827509D005EB8006471C9B
:102D0000F8B25CF80660844203EB1643F5D84FF442
:102D1000807000EB810043EA02424CF80020F0BCD6
:102D200000207047D0F8080505F0DAB901EBC102C0
:102D300000EB8202D0F80805926C05F025B901EB92
:102D4000C10200EB8202D0F80805D2F8882205F013
:102D50007DB9D0F8080505F0C5B901F00F034FF0B3
:102D6000010270B504464FF0000503EBC30011F0FB
:102D7000800F04EB800019BF00F13C0180F83D207A
:102D800000F51F7180F87D520B7094F8BC04012887
:102D900004BF022070BD84F8BC24206805F008FF41
:102DA000002084F8BC5470BD70B50446406801F042
:102DB0000F02824284BF012070BD01F00F004FF06E
:102DC000010311F0800F4FF0000500EBC00004EB91
:102DD000800019BF00F13C0180F83D3000F51F7103
:102DE00080F87D528D700A7094F8BC04012804BFED
:102DF000022070BD84F8BC34206806F069F8002019
:102E000084F8BC5470BD01F00F0101EBC10100EB6F
:102E10008100D0F89002704770B504464FF0010C65
:102E200001F00F004FF0000511F0800F00EBC00122
:102E300004EB810119BF81F83DC03C3181F87D521E
:102E400001F51F714E788A600B71002E087018BF53
:102E50004883022B08BF4D7194F8BC04012804BFBD
:102E6000022070BD84F8BCC4206805F0AFFD284680
:102E700084F8BC5470BD10B501F00F044FF0000C85
:102E800004EBC40100EB8101C1F88822C1E9A33C35
:102E900081F87DC281F87C4201F51F71C368012B66
:102EA00008BFCA61027B006806F06EF8002010BD02
:102EB00070B50446406801F00F020D46824284BF9F
:102EC000012070BD15F0800F4FF000064FF001009B
:102ED00014BF02EBC20105EBC50104EB810119BF70
:102EE00081F83D003C3181F87D6201F51F718870E9
:102EF0000A7094F8BC24012A04BF022070BD84F833
:102F0000BC04206806F011F815F00F0F05D1217BE5
:102F100004F2C442206805F0ADFF002084F8BC64D0
:102F200070BD01F00F0C70B50CEBCC01002500EB6F
:102F3000810101240D65C1E9122381F83D4001F8AA
:102F40003CCFC368012B08BFCA61027B006806F052
:102F50001BF8002070BD00002DE9F04F056883B01C
:102F60000446284606F00AFA00281CBF03B0BDE854
:102F7000F08F206806F02DFA002804BF03B0BDE8EA
:102F8000F08FD5F80808C0F30D20C4F8FC042068C1
:102F900006F01FFA10F0020F04D02068416901F01A
:102FA00002014161206806F014FA10F0100F35D0CC
:102FB0002068816921F0100181612F6A07F00F01FB
:102FC000C7F3434001EBC101022804EB810101F585
:102FD0001F7602D0062811D01BE047F6F07007429A
:102FE00017D0C7F30A12F1681746284606F0F5F91C
:102FF000F16870693944F160384409E008222846D4
:1030000004F2C44106F0E9F97069C7F30A110844F3
:1030100070612068816941F010018161206806F0CB
:10302000D8F910F4002F7CD02068002606F0B1F902
:103030005FEA00081CBFDFF8DCB6DFF8DC9670D072
:1030400018F0010F6ED02068F1B206F0BAF910F056
:10305000010F074656D005EB46110120C1F8080BB9
:103060002368D4F80CC003EB46111A6CD1F8080B96
:10307000BCF1010F05D05A4570D110F4004F1BD19F
:1030800064E010F0080F0AD04A453BD910F4004F15
:1030900018BF4FF4004035D0C1F8080B32E010F0F3
:1030A000200F18BF2020F7D110F0280F2AD14A4551
:1030B00007D910F4004F04D04FF40040C1F8080BBA
:1030C00020E0D1F8101B06EBC60204EB8200C1F32E
:1030D0001201D0F89C22A2EB0101C0F8901200F579
:1030E0001F705EB90269002A1DBFC2681144C16029
:1030F000206804BF04F2C44201213AD02046F1B254
:10310000FFF71DFE17F0080F3CD005EB4611082015
:10311000C1F8080B2068D0F840A000EB4610CA4563
:1031200001E071E06AE0D0F8081B06D911F4004F05
:103130001CBF4FF40041C0F8081B204600F00FFCF4
:10314000CA451FD9E06801281CD115E010F0200FF6
:103150001CBF2020C1F8080BD0E7FFE7002E04BFFA
:10316000D4F88C020028C9D104F2C4424FF0000107
:10317000184605F07FFEC1E72068012104F2C44231
:1031800005F078FE17F0100F05D005EB46104FF054
:103190001001C0F8081B17F0020F1ED0686910F06C
:1031A000800F05D0D5F8040840F48061C5F80418F4
:1031B00006EBC60004EB800090F87F1200F51F704C
:1031C000012905D10021C1702046F1B200F0AAFA10
:1031D00005EB46110220C1F8080B17F0200F04D0B0
:1031E00005EB46102021C0F8081B17F4005F05D03E
:1031F00005EB46114FF40050C1F8080B5FEA580880
:1032000006F101067FF41CAF206806F0E2F810F426
:10321000802F7DD0206806F0B5F85FEA00094FF0F6
:10322000000675D019F0010F73D02068F1B206F0D6
:10323000B7F810F0010F074628D0D5F8342801213F
:1032400006F00F0C05EB461301FA0CF08243C5F8AB
:103250003428C3F80819E068012813D106EBC6002A
:10326000002E04EB8000D0E911211144816404BFD9
:10327000E06C002806D1206804F2C4424FF001013E
:1032800005F0F8FD2046F1B2FFF750FD17F0080FEA
:1032900005D005EB46114FF00800C1F8080917F0FA
:1032A000100F05D005EB46114FF01000C1F80809CA
:1032B00017F0400F05D005EB46114FF04000C1F864
:1032C000080917F0020F17D03146284606F024F8F7
:1032D00006EBC60004EB800090F83F103C3001295B
:1032E00005D10021C1702046F1B200F017FA05EBBC
:1032F00046110220C1F8080917F0800F4FD006EBE5
:10330000C6002268029204EB800000F13C0701E055
:103310004BE044E0D7E90401019281423FD8BA680A
:10332000401A8242C0F0F281C21C019800EB461B99
:103330004FEA920A19E000BFBA68A1EB00084245C3
:10334000C0F0E681207B08F1030100901FFA88F3AA
:1033500002984FEA910AF968F2B206F027F9F86884
:103360004044F860786940447861DBF8180980B21D
:10337000504524BFD7E90410814201D90029DBD18F
:10338000D7E9040188420AD80199012006F00F020A
:10339000D1F83418904081430198C0F834185FEA9E
:1033A000590906F101067FF43DAF206806F011F8D7
:1033B00010F0004F11D0D5F8040820F00101C5F835
:1033C000041894F8F404012877D0204600F0ABFAF2
:1033D0002068416901F000414161206805F0F9FF72
:1033E00010F4006F0CD0D5F8080810F0010F1CBFC6
:1033F000204600F0DDFA2068416901F40061416176
:10340000206805F0E6FF10F0006F0AD020684169DF
:1034100001F00061416194F8F404E8B3204600F043
:10342000C7FA206805F0D5FF10F4805F7AD0D5F890
:10343000040820F00101C5F804182068102105F0E7
:103440006BFF60680022002888BF4FF67F311BD9D0
:1034500005EB4210C0F80819D0F8003923F4001326
:10346000C0F80039C0F8081BD0F8003B23F4001363
:10347000C0F8003BD0F8003B43F00063C0F8003BCD
:103480006068521C9042E3D8D5F81C0840F0011146
:10349000C5F81C18206B01E017E00EE018B3D5F852
:1034A000840840F00B01C5F88418D5F8440840F0B2
:1034B0000B012846C5F8441823E0002084F8F404E2
:1034C00001462046FFF7FDFB82E7012084F8F40463
:1034D0002068406D0121C0F38300C4F8F804204641
:1034E000FFF7EFFB9DE7D5F8140842F22B010143EB
:1034F000C5F81418D5F8100840F00B012846C5F897
:103500001018D0F8000820F4FE61C5F80018217BDF
:1035100004F2C442206805F0ADFC2068416901F462
:1035200080514161206805F054FF10F4005F16D00F
:10353000206805F099FA206805F014FF206101F079
:1035400099FE23680146227C184605F0BDFF2046FF
:1035500000F0D2F92068416901F40051416120680E
:1035600005F037FF10F0080F07D0204600F0DFF914
:103570002068416901F008014161206805F029FFD8
:1035800010F0800F24D0A869012620F08001A961E5
:10359000606801281CD900BF06EBC60004EB800060
:1035A00090F87F0201280FD1F1B211F0800F01F0E5
:1035B0000F0101EBC10104EB810114BF3C3101F5A6
:1035C0001F71206805F029FE6068761CB042E3D8C0
:1035D000206805F0FEFE10F4801F32D060680126DE
:1035E000012888BF012727D906EBC60005EB461343
:1035F00004EB8001D3F8000991F84020012A17D18B
:1036000010F0004F14D0F0B281F83F7040F080000D
:1036100010F0800F00F00F0000EBC00104EB810000
:103620000CBF00F51F7100F13C01206805F0F5FDAD
:103630006068761CB042D7D82068416901F48011D7
:103640004161206805F0C5FE10F4001F31D06168AB
:103650000120012988BF012326D900BF00EBC00249
:1036600005EB401104EB8202D1F8001B92F880C2F6
:10367000BCF1010F14D111F0004F11D094F8FCC42B
:1036800001F480310CF0010C614509D182F87F32E0
:10369000A96941F08002AA61696911F0800F2ED0FA
:1036A0006168401C8142D9D82068416901F4001149
:1036B0004161206805F08DFE10F0804F07D0204654
:1036C000FFF730FB2068416901F0804141612068CB
:1036D00005F07FFE10F0040F04BF03B0BDE8F08FCB
:1036E0002068456815F0040F1CBF2046FFF731FB2A
:1036F000206841682943416003B0BDE8F08FD5F8E8
:10370000040840F40070C5F80408CDE710460BE645
:10371000904617E60A31544F0A30544FD0F8080546
:1037200004F03ABDD0F8080504F04BBD002804BFF2
:10373000012070472DE9F047044690F8BD048AB097
:103740000025266820B9204684F8BC5400F080F893
:10375000032084F8BD04F06B10F4807F08BFE5609F
:10376000206805F081FB103494E8CF118DE8CF116B
:10377000D4E90801103CCDE9080194E80F0005F0F8
:1037800081F9022700284CD12068002105F05BFE5A
:103790006068012600281CBFC2B2002132D000BFE1
:1037A00001EBC100521E04EB800012F0FF0280F812
:1037B0003D6080F83C10A0F8561001F1010180F83E
:1037C000405045648564C564EAD1606800281CBF28
:1037D000C2B2002016D000BF00EBC001521E04EBA5
:1037E000810112F0FF0281F87D5281F87C0200F124
:1037F000010081F88052C1F88452C1F88852C1F8A2
:103800008C52E9D104F1100090E80F178DE80F17E2
:10381000D4E90C01CDE9080194E80F0005F054FA51
:1038200028B184F8BD740AB00120BDE8F087606A51
:1038300084F8385084F8BD64012804BF2046FFF79F
:103840002DFA206805F032FA0AB00020BDE8F087B2
:1038500030B5B7B0054600246846C0213094319495
:10386000329433943494FCF7DDFD2868A0F1804154
:10387000B1F500211CBF37B030BD4FF480210020CE
:103880008A002292CDE90010684600F009FE002867
:1038900018BFFCF750FF00F0D3F81448016841F05E
:1038A00001010160006802210A2200F00100359048
:1038B0004FF4C0503090CDE931140D4830A9CDE916
:1038C0003342FEF78FFC0B48016841F00061016054
:1038D00000680022052100F0006035906520FFF7A8
:1038E0009BF96520FFF788F937B030BDE0440258F6
:1038F00000000258D844025870B5044600690125FA
:10390000002808BF002503D0022818BFFCF713FFCA
:103910002946D4F8080504F0DCFCD4F80805BDE815
:10392000704004F08ABCD0F8080504F0B9BCD0F8A7
:10393000080504F0BFBC10B5044690F8BC0401288B
:1039400004BF022010BD012084F8381084F8BC04A4
:10395000206805F0A7FD002084F8BC0410BDD0F855
:10396000082500F2C441104604F0C8BC10B590F818
:10397000BC1404460068012904BF022010BD4FF0AA
:10398000010184F8BC14C16B11F4807F04BFA16AEB
:10399000012903D1816B41F480318163206805F0F6
:1039A00092FC206805F074F9002084F8BC0410BD76
:1039B00010B50446D0F8080504F0F6FC2068D0F8ED
:1039C000001E41F00101C0F8001E206A002808BF57
:1039D00010BD0348016841F00601016010BD000000
:1039E00010ED00E014490A6812F0040F07D10968CD
:1039F00001F00701814214BF01200020704770B51B
:103A00000A6822F0070210430860FEF70BFD0B4D19
:103A10000446286810F4005F0CD100BFFEF702FDD9
:103A2000001BB0F57A7F01D9012070BD286810F421
:103A3000005FF3D0002070BD0C48025804480258C3
:103A40000248016841F08071016070470C480258DB
:103A500010B501F00FFC05490968054AC1F30211D0
:103A6000515C01F01F01C84010BD00002044025805
:103A700078A3000862494DF8044DDFF888C10B1D9A
:103A80000A6809681C68DCF800C002F0030304F04F
:103A90000102C1F30511CCF3CC0C00291CFB02F28E
:103AA00000EE102AF8EE400A7ED09FED571A9FEDE7
:103AB000572A574AB7EE000A23B1012B3BD0022BFD
:103AC0004FD024E0534BD3F800C01CF0200F1ED081
:103AD000DFF844C11B6801EE901AC3F3C1011368FB
:103AE000F8EE612A2CFA01F101EE901AC3F30801F5
:103AF000F8EE611A81EEA22A01EE901AF8EE611A30
:103B000040EE811A71EE800A62EE200A3EE001EE7C
:103B1000901A1168F8EE611AC1F30801C2EE212A69
:103B200001EE901AF8EE611A40EE811A71EE800AE9
:103B300062EEA00A2AE001EE901A1168DFED372A42
:103B4000F8EE611AC1F3080182EEA12A01EE901A83
:103B5000F8EE611A40EE811A71EE800A62EE200AD8
:103B600014E001EE901A1168DFED2D2AF8EE611ACB
:103B7000C1F3080182EEA12A01EE901AF8EE611A53
:103B800040EE811A71EE800A62EE200A1168C1F3DC
:103B9000462101EE101AB8EE411A31EE001AC0EEBD
:103BA000811ABCEEE11A00E022E080ED001A1168F3
:103BB000C1F3064101EE101AB8EE411A31EE001AB7
:103BC000C0EE811ABCEEE11A80ED011A1168C1F352
:103BD000066101EE101AB8EE411A31EE000A80EECD
:103BE000801ABCEEC10A80ED020A5DF8044B7047F2
:103BF00000210160416081605DF8044B7047000066
:103C00002844025834440258000000390024744CFF
:103C100030440258004402580090D0030024744AF3
:103C200020BCBE4B61494DF8044DDFF884C10B1D2B
:103C30000A6809681C68DCF800C002F00303C1F3DD
:103C40000531C4F30012CCF3CC0C00291CFB02F2AA
:103C500000EE102AF8EE400A7DD09FED561A564A23
:103C6000B7EE000ACBB1DFED551A012B01D0022BC4
:103C70004ED002EE101A1168F8EE422AC1F3080184
:103C800081EEA22A01EE901AF8EE611A40EE811A36
:103C900071EE800A62EE200A4FE0494BD3F800C073
:103CA0001CF0200F1ED0DFF81CC11B6801EE901A1B
:103CB000C3F3C1011368F8EE612A2CFA01F101EE99
:103CC000901AC3F30801F8EE611A81EEA22A01EE00
:103CD000901AF8EE611A40EE811A71EE800A62EED7
:103CE000200A2AE001EE901A1168DFED372AF8EE7B
:103CF000611AC1F3080182EEA12A01EE901AF8EED2
:103D0000611A40EE811A71EE800A62EE200A14E018
:103D100001EE901A1168DFED2D2AF8EE611AC1F359
:103D2000080182EEA12A01EE901AF8EE611A40EE27
:103D3000811A71EE800A62EE200A1168C1F34621F1
:103D400001EE101AB8EE411A31EE001AC0EE811AD7
:103D5000BCEEE11A00E022E080ED001A1168C1F328
:103D6000064101EE101AB8EE411A31EE001AC0EE0B
:103D7000811ABCEEE11A80ED011A1168C1F30661E7
:103D800001EE101AB8EE411A31EE000A80EE801AE8
:103D9000BCEEC10A80ED020A5DF8044B70470021B9
:103DA0000160416081605DF8044B7047284402580F
:103DB0003C44025800000039384402580024744A38
:103DC000004402580090D0030024744C20BCBE4B29
:103DD00061494DF8044DDFF884C10B1D0A6809687C
:103DE0001C68DCF800C002F00303C1F30551C4F302
:103DF0000022CCF3CC0C00291CFB02F200EE102AAE
:103E0000F8EE400A7DD09FED561A564AB7EE000AEA
:103E1000CBB1DFED551A012B01D0022B4ED002EEB3
:103E2000101A1168F8EE422AC1F3080181EEA22AA5
:103E300001EE901AF8EE611A40EE811A71EE800AD6
:103E400062EE200A4FE0494BD3F800C01CF0200F6F
:103E50001ED0DFF81CC11B6801EE901AC3F3C1012C
:103E60001368F8EE612A2CFA01F101EE901AC3F3FF
:103E70000801F8EE611A81EEA22A01EE901AF8EE1E
:103E8000611A40EE811A71EE800A62EE200A2AE081
:103E900001EE901A1168DFED372AF8EE611AC1F3CE
:103EA000080182EEA12A01EE901AF8EE611A40EEA6
:103EB000811A71EE800A62EE200A14E001EE901A77
:103EC0001168DFED2D2AF8EE611AC1F3080182EEC8
:103ED000A12A01EE901AF8EE611A40EE811A71EEF5
:103EE000800A62EE200A1168C1F3462101EE101A21
:103EF000B8EE411A31EE001AC0EE811ABCEEE11A9A
:103F000000E022E080ED001A1168C1F3064101EEE5
:103F1000101AB8EE411A31EE001AC0EE811ABCEE4A
:103F2000E11A80ED011A1168C1F3066101EE101A61
:103F3000B8EE411A31EE000A80EE801ABCEEC10ADA
:103F400080ED020A5DF8044B70470021016041607A
:103F500081605DF8044B704728440258444402587D
:103F600000000039404402580024744A00440258BA
:103F70000090D0030024744C20BCBE4B2DE9F043CC
:103F8000FC4F80F48072FC4C03463D1FFB48FC4E06
:103F90000A43FC4A89B04FEA241C2FD083F40078EE
:103FA00058EA01087BD0DFF8E08383F4806959EA9E
:103FB000010975D083F4006959EA010971D083F4CD
:103FC000805959EA01096DD083F400560E4300F080
:103FD0006A8183F400260E4300F0A48183F48036C6
:103FE0000E4300F0E38183F480450D4300F0F68139
:103FF00083F40043194300F032824CE0396801F049
:104000000701052947D2DFE801F003111F562D00F3
:10401000106810F0007004BF09B0BDE8F08306A876
:10402000FFF728FD079809B0BDE8F083106810F08D
:10403000006004BF09B0BDE8F0836846FFF7F2FDF9
:10404000009809B0BDE8F083106810F0005004BF7C
:1040500009B0BDE8F08303A8FFF7BAFE039809B0E2
:10406000BDE8F0832968136801F0405113F0040F94
:1040700000D0C1B1136813F4807F02D0B1F1805F2A
:1040800017D0126812F4003F05D0B1F1005F04BFF1
:1040900009B0BDE8F083002009B0BDE8F0830CE072
:1040A00040E07BE0BDE01068C0F3C10024FA00F0FE
:1040B000F2E76046F0E73046EEE7396801F4E07178
:1040C00080292AD007DC19B34029E4D1106810F008
:1040D0000060B2D1E0E7C029EDD0B1F5807FDAD140
:1040E0002968136801F0405113F0040F01D0002932
:1040F000D9D0136813F4807F02D0B1F1805FD8D09B
:10410000126812F4003FC6D0B1F1005FC4D0C2E71C
:10411000106810F0007082D1BEE7106810F00050F7
:1041200099D1B9E7D8F8001001F46001B1F5800F1A
:104130002ED009DC31B3B1F5001FACD1106810F0FE
:1041400000607FF47AAFA7E7B1F5C00FB3D0B1F547
:10415000000FA0D12968136801F0405113F0040F3B
:1041600001D000299FD0136813F4807F02D0B1F1F1
:10417000805F9ED0126812F4003F8CD0B1F1005FD6
:104180008AD088E7106810F000707FF448AF83E7AA
:10419000106810F000507FF45EAF7DE7D8F8001093
:1041A00001F0E061B1F1007F35D00ADC69B3B1F113
:1041B000807F7FF470AF106810F000607FF43DAF37
:1041C0006AE7B1F1407F3FF476AFB1F1806F7FF4E1
:1041D00062AF2968136801F0405113F0040F02D058
:1041E00000293FF460AF136813F4807F03D0B1F16E
:1041F000805F3FF45EAF126812F4003F3FF44BAFB4
:10420000B1F1005F3FF448AF45E7106810F000706F
:104210007FF405AF40E7106810F000507FF41BAF4B
:104220003AE7396801F4E041B1F5005F35D00ADCC6
:1042300069B3B1F5805F7FF42EAF106810F00060B5
:104240007FF4FBAE28E7B1F5405F3FF434AFB1F542
:10425000804F7FF420AF2968136801F0405113F0BC
:10426000040F02D000293FF41EAF136813F4807FBF
:1042700003D0B1F1805F3FF41CAF126812F4003F2D
:104280003FF409AFB1F1005F3FF406AF03E71068F8
:1042900010F000707FF4C3AEFEE6106810F000501E
:1042A0007FF4D9AEF8E6396801F4E021B1F5403F7A
:1042B0002CD011DCE9B1B1F5803F1DD0B1F5003F44
:1042C0007FF4E9AE106810F000503FF4E5AE03A8AB
:1042D000FFF77EFD0498DFE6B1F5802F1CD0B1F525
:1042E000A02F7FF4D8AE116811F4003F7FF4D4AE54
:1042F000D1E600F0E3FFCFE6106810F000603FF475
:10430000CBAE6846FFF78EFC0198C5E6106810F04A
:1043100004007FF4C8AEBFE6106810F480707FF42C
:10432000C8AEB9E6D8F8001011F440312ED0B1F57E
:10433000803F31D0B1F5003F7FF4ADAE29681368FE
:1043400001F0405113F0040F02D000293FF4ABAE4E
:10435000136813F4807F03D0B1F1805F3FF4A9AEFE
:10436000126812F4003F3FF496AEB1F1005F3FF4E3
:1043700093AE90E6504402580090D00340787D01FF
:104380000080BB000044025858440258106810F0E6
:1043900000607FF452AE7FE6106810F000503FF4EA
:1043A0007BAE03A8FFF714FD059875E6286810F4A6
:1043B00080300DD0B0F5803F7FF46DAE106810F006
:1043C00000603FF469AE6846FFF72CFC029863E694
:1043D000106810F000707FF422AE5DE6D8F800108F
:1043E00001F0E041B1F1405F2DD00DDCC9B1B1F178
:1043F000805F22D0B1F1005F7FF44DAE106810F005
:1044000000507FF464AF47E6B1F1804F21D0B1F1A5
:10441000A04F7FF440AE116811F4003F7FF43CAE32
:1044200039E600F027FF1C4909681C4AC1F3021154
:10443000515C01F01F01C8402EE6106810F00060CA
:104440007FF45FAF28E6106810F004007FF42BAE15
:1044500022E6106810F480707FF42BAE1CE63968F9
:1044600011F040510CD0B1F1805F0FD0B1F1005F7D
:104470007FF411AE106810F000607FF442AF0BE6DD
:10448000116811F4003F7FF407AE04E6106810F0E5
:1044900000707FF4C4ADFFE52044025878A3000803
:1044A0002DE9F05F044600680025FB4FDFF8EC8340
:1044B000C04310F0006F2E4620D1A06E58B1B0F569
:1044C000801F0DD0B0F5001F10D0B0F5401F18BFF1
:1044D000012519D011E0386840F40030386013E04D
:1044E000022104F1080002F0EBFA04E0022104F1D9
:1044F000280002F087FB050006D02E462088C04326
:1045000010F4807F09D025E0A06ED8F8001021F4C7
:1045100040110843C8F80000F0E7A06D052817D245
:10452000DFE800F003080E141400386840F400308F
:1045300038600BE0002104F1080002F0C1FA04E049
:10454000002104F1280002F05DFB054645B100E0C2
:1045500001252E462088C04310F4007F09D02BE0AF
:10456000A06DD8F8001021F007010843C8F800003A
:10457000F0E7E06D802817D004DC48B140280CD06B
:10458000012518E0C02818BFB0F5807FF8D111E0F0
:10459000386840F4003038600CE004F108004FF057
:1045A000000102F08DFA04E0002104F1280002F07D
:1045B00029FB054645B12E462088DFF8E492C0432A
:1045C00010F4806F0AD030E0E06DD8F8001021F4CC
:1045D000E07141EA0000C8F80000EDE7D4F8A80057
:1045E000B0F5800F19D005DC58B1B0F5001F0DD023
:1045F000012519E0B0F5C00F18BFB0F5000FF7D1D5
:1046000011E0386840F4003038600CE004F1080034
:104610004FF0000102F054FA04E0002104F12800F8
:1046200002F0F0FA054635B12E462088C04310F45A
:10463000006F0BD031E0D4F8A800D9F8001021F4B5
:10464000600141EA0000C9F80000EEE7D4F8AC00D0
:10465000B0F1007F19D005DC58B1B0F1807F0DD0EA
:10466000012519E0B0F1407F18BFB0F1806FF7D19C
:1046700011E0386840F4003038600CE004F10800C4
:104680004FF0000102F01CFA04E0002104F12800C0
:1046900002F0B8FA054635B12E462068C04310F046
:1046A000007F0BD022E0D4F8AC00D9F8001021F044
:1046B000E06141EA0000C9F80000EEE7E06C98B163
:1046C000102806D0202809D0302818BF01250BD08B
:1046D0000BE0386840F40030386005E0022104F156
:1046E000080002F0EDF9054635B12E462088C0439A
:1046F00010F4805F08D02DE06A48E16C026822F077
:10470000300211430160F1E7206EB0F5005F19D06F
:1047100005DC58B1B0F5805F0DD0012519E0B0F58A
:10472000405F18BFB0F5804FF7D111E0386840F412
:10473000003038600CE004F108004FF0000102F096
:10474000BFF904E0002104F1280002F05BFA0546FD
:1047500035B12E462088C04310F4005F0AD02DE00A
:10476000206ED8F8001021F4E04141EA0000C8F8BA
:104770000000EFE7606EB0F5403F1DD008DCD8B117
:10478000B0F5803F0BD0B0F5003F0FD0012514E00D
:10479000B0F5802F18BFB0F5A02FF7D10CE004F1D1
:1047A00008004FF0010102F08BF904E0012104F14F
:1047B000280002F027FA054635B12E462088C0436E
:1047C00010F4804F0AD02EE0606ED8F8001021F46B
:1047D000E02141EA0000C8F80000EFE7D4F8B0009B
:1047E000B0F1405F1DD008DCD8B1B0F1805F0BD0D4
:1047F000B0F1005F0FD0012514E0B0F1804F18BF79
:10480000B0F1A04FF7D10CE004F108004FF0010126
:1048100002F056F904E0012104F1280002F0F2F957
:10482000054635B12E462088C04310F4004F0BD00A
:1048300022E0D4F8B000D9F8001021F0E04141EABC
:104840000000C9F80000EEE7206F98B1B0F1805F7A
:1048500005D0B0F1005F18BF012505D00BE0386826
:1048600040F40030386005E0012104F1080002F056
:1048700027F9054635B12E462068C04310F0807FE9
:1048800012D029E0206FD8F8001021F040510843E1
:10489000C8F80000F0E700002C44025850440258C9
:1048A000584402584C440258A06C98B1012806D0D4
:1048B000022809D0032818BF01250BD00BE0386867
:1048C00040F40030386005E0022104F1080002F0F5
:1048D000F7F8054635B12E462068C04310F4800F26
:1048E00008D026E0FC48A16C026822F003021143C4
:1048F0000160F1E7DFF8E4A3DAF8000040F480702B
:10490000CAF80000FDF78EFD8346DAF8000010F4C7
:10491000807F0CD1FDF786FDA0EB0B00642801D948
:10492000032505E0DAF8000010F4807FF2D045B1ED
:104930002E462078DFF8A8A3C04310F0010F52D014
:1049400070E0E848B4F8B410006801F4407100F475
:10495000407088420CD0E3480268016822F440723B
:1049600041F480310160016821F48031016002600E
:10497000D4F8B400B0F5807F18D1FDF753FD82461E
:10498000D848016811F0020F08BF41F2883B0DD1F1
:10499000FDF748FDA0EB0A00584502D903252E4635
:1049A000C7E7D048006810F0020FF1D0D4F8B41077
:1049B0004FF440708843CC481CBF016821F47C51FF
:1049C00009D00160C748B4F8B4100268C1F30B0104
:1049D00011430160ADE7C54A036802EA111123F4EF
:1049E0007C521143EDE7E06F182819D006DCB8B10E
:1049F000082808D010280DD0012512E0202818BF63
:104A00002828F9D10CE004F108004FF0010102F070
:104A100057F804E0012104F1280002F0F3F80546FC
:104A200035B12E462078C04310F0020F0AD021E0A5
:104A3000E06FDAF8001021F0380141EA0000CAF80E
:104A40000000EFE7A06F062812D2DFE800F00F03A6
:104A5000090F0F0F012104F1080002F031F804E002
:104A6000012104F1280002F0CDF8054645B100E02F
:104A700001252E462078C04310F0040F0AD022E012
:104A8000A06FDAF8001021F0070141EA0000CAF82F
:104A90000000EFE7D4F89400062812D2DFE800F017
:104AA0000F03090F0F0F012104F1080002F008F8AD
:104AB00004E0012104F1280002F0A4F8054645B104
:104AC00000E001252E462078C04310F0200F0BD0C7
:104AD0002FE0D4F89400D9F8001021F0070141EA42
:104AE0000000C9F80000EEE7D4F89000B0F1405F94
:104AF0001DD008DCD8B1B0F1805F0BD0B0F1005F01
:104B00000FD0012514E0B0F1804F18BFB0F1A04FD5
:104B1000F7D10CE004F108004FF0000101F0D0FFE4
:104B200004E0022104F1280002F06CF8054635B1DA
:104B30002E462078C04310F0400F0BD02FE0D4F861
:104B40009000DAF8001021F0E04141EA0000CAF8D4
:104B50000000EEE7D4F89C00B0F5406F1DD008DCF3
:104B6000D8B1B0F5806F0BD0B0F5006F0FD0012534
:104B700014E0B0F5805F18BFB0F5A05FF7D10CE08E
:104B800004F108004FF0000101F09AFF04E0022157
:104B900004F1280002F036F8054635B12E4620789B
:104BA000C04310F0800F0BD02FE0D4F89C00D9F850
:104BB000001021F4E05141EA0000C9F80000EEE7DE
:104BC000D4F8A000B0F5C04F1DD008DCD8B1B0F5C6
:104BD000005F0BD0B0F5804F0FD0012514E0B0F589
:104BE000004F18BFB0F5204FF7D10CE004F10800DA
:104BF0004FF0000101F064FF04E0022104F12800FD
:104C000002F000F8054635B12E462078C04310F07A
:104C1000080F0BD020E0D4F8A000D9F8001021F440
:104C2000604141EA0000C9F80000EEE7D4F88400D2
:104C3000B0F5805F07D1022104F1280001F0E2FF06
:104C4000002818BF0126D4F88400DAF8001021F4F7
:104C500040510843CAF800002078C04310F0100FFC
:104C600015D1D4F89800B0F5807F07D1022104F166
:104C7000280001F0C7FF002818BF0126D4F89800CB
:104C8000D9F8001021F440710843C9F800002068E9
:104C9000C04310F4002F19D1D4F8A40040B1B0F5EE
:104CA000803F0BD0B0F5003F18BF01250CD00CE0C1
:104CB000002104F1080001F003FF04E0022104F1E7
:104CC000280001F09FFF054695B12E462068C0439D
:104CD00010F4802F16D030E04C440258004802589F
:104CE000544402587044025810440258CFFFFF0049
:104CF000D4F8A400D9F8001021F440310843C9F8D1
:104D00000000E3E7D4F88800B0F5801F08D0B0F5C4
:104D1000001F0AD0B0F5401F18BF01250BD00BE0D3
:104D2000386840F40030386005E0012104F12800C3
:104D300001F068FF054635B12E462068C04310F4E7
:104D4000803F0AD01EE0D4F88800DAF8001021F481
:104D500040110843CAF80000EFE7206D28B1B0F514
:104D6000803F18BF012505D00BE0386840F40030C3
:104D7000386005E0022104F1080001F0A1FE0546BB
:104D800035B12E462068C04310F0005F10D107E017
:104D90007648216D026822F4803211430160F1E708
:104DA000022104F1280001F02DFF002818BF012680
:104DB0002068C04310F4003F13D1D4F8800070B1D4
:104DC000B0F5807F07D0B0F5007F1CBFB0F5407F05
:104DD000012504D004E0386840F4003038603DB16B
:104DE0002E4620686FEA000010F4801F14D10AE0FC
:104DF000D4F88000DAF8001021F4407141EA000094
:104E0000CAF80000EDE7606FD8F8001021F000410B
:104E100041EA0000C8F8000020686FEA000010F0C6
:104E2000805F08D15248D4F8B810026822F480425A
:104E300042EA0101016020686FEA000010F4001FDF
:104E400008D1E06ED8F8001021F0807141EA00002E
:104E5000C8F8000020686FEA000010F0804F0AD107
:104E60004348016821F4004101600168D4F8BC2086
:104E700041EA0201016020686FEA000010F0004F73
:104E800007D13A48616D026822F0405242EA0101BE
:104E9000016020686FEA000010F4000F09D1D4F817
:104EA0008C00DAF8001021F4400141EA0000CAF851
:104EB000000020794FF000056FEA000000F00100CB
:104EC000284307D1002104F1080001F0F9FD002872
:104ED00018BF06462079C04300F00200284307D1DE
:104EE000012104F1080001F0EBFD002818BF06467F
:104EF0002079C04300F00400284307D1022104F1C7
:104F0000080001F0DDFD002818BF06462079C043E7
:104F100000F00800284307D1002104F1280001F027
:104F200071FE002818BF06462079C04300F010002B
:104F3000284307D1012104F1280001F063FE002875
:104F400018BF06462079C04300F02000284305D151
:104F5000022104F1280001F055FE20B9002E04BF03
:104F60000020BDE8F09F0120BDE8F09F4C440258AE
:104F700010440258002804BF012070472DE9F05F5B
:104F8000DFF85C9204468A46D9F8000000F00F0072
:104F900050450DD2D9F8000020F00F0040EA0A0079
:104FA000C9F80000D9F8000000F00F0050457DD18D
:104FB00020788C4D10F0040F0AD02069296801F088
:104FC0007001884204D9296821F0700108432860E3
:104FD0002078854E10F0080F0AD06069316801F022
:104FE0007001884204D9316821F0700108433060B3
:104FF000207810F0100F0AD0A069316801F4E06148
:10500000884204D9316821F4E06108433060207897
:1050100010F0200F0BD07548E169026802F07002B1
:10502000914204D9026822F0700211430160207895
:1050300010F0020F0AD0E068296801F00F018842E1
:1050400004D9296821F00F0108432860207810F066
:10505000010F45D06648A1682A6822F470621143A6
:1050600029606168022926D0032929D00068012916
:105070002BD010F0040F56D05E4F386820F0070098
:1050800008433860FDF7CEF939688046606801F062
:105090003801B1EBC00F18BF41F2883B20D000BFF0
:1050A000FDF7C0F9A0EB0800584500E03BE010D93F
:1050B0000320BDE8F09F006810F4003FDCD132E02F
:1050C000006810F0007FD7D12DE010F4807FD3D19D
:1050D00029E06068396801F03801B1EBC00FDFD119
:1050E000207810F0020F0AD0E068296801F00F0163
:1050F000814204D9296821F00F0108432860D9F8BA
:10510000000000F00F00504510D9D9F8000020F041
:105110000F0040EA0A00C9F80000D9F8000000F0CA
:105120000F00504502D00120BDE8F09F207810F01C
:10513000040F0AD02069296801F07001814204D966
:10514000296821F0700108432860207810F0080FCA
:105150000AD06069316801F07001814204D9316878
:1051600021F0700108433060207810F0100F0AD051
:10517000A069316801F4E061814204D9316821F409
:10518000E06108433060207810F0200F0BD0174802
:10519000E169026802F070028A4204D9026822F0D2
:1051A00070021143016000F0E5F813492B682A688A
:1051B000C3F3032302F00F02CB5C895C03F01F02F0
:1051C00001F01F01D0400D4A20FA01F111600C4995
:1051D00008600C480068BDE8F05FFDF7B3BC000054
:1051E00000200052184402581C440258204402581F
:1051F000004402581044025878A300081400002408
:105200001000002408000024DFF85CC03F2230B406
:105210000260164ADCF800C0131D0CF0070CC0F841
:1052200004C0DFF84CC01C1D156805F4706585606E
:10523000156805F00F05C560126802F07002026182
:105240001A6802F0700242611A6802F4E062826138
:10525000226802F07002C261DCF8000000F00F006A
:10526000086030BC704700001044025818440258CF
:105270000020005210B500F07DF80C4A0C490D4B8F
:105280001468D2F800C0C4F303220CF00F0C8A5C3F
:1052900011F80CC002F01F01074A20FA01F10CF0CE
:1052A0001F0021FA00F01860116010BD1844025868
:1052B00078A30008140000241000002410B500F0AA
:1052C00059F8104A1049114B1468D2F800C0C4F3C1
:1052D00003220CF00F0C8A5C11F80CC002F01F02C4
:1052E000D0400CF01F0220FA02F21A60084B18603E
:1052F00008480068C0F30210085C00F01F0022FAA2
:1053000000F010BD1844025878A3000814000024CF
:10531000100000241C44025810B500F02BF8104A6D
:105320001049114B1468D2F800C0C4F303220CF0EA
:105330000F0C8A5C11F80CC002F01F02D0400CF078
:105340001F0220FA02F21A60084B18600848006831
:10535000C0F30220085C00F01F0022FA00F010BD2C
:105360001844025878A300081400002410000024F8
:105370001C4402585E4930B45E4809685E4B11F027
:1053800038020CD00111082A06D0102A02BF5B484F
:1053900030BC7047182A0ED030BC084670471968D8
:1053A00011F0200F04BF30BC7047196830BCC1F346
:1053B000C101C84070475249524C01F1040C0A68BF
:1053C0000968DCF80050246802F0030C05F00102C3
:1053D000C1F30511C4F3CC04002914FB02F200EE62
:1053E000102AF8EE400A02BF002030BC7047BCF122
:1053F000000F9FED451A454AB7EE000A1BD0DFEDBE
:10540000441ABCF1010F02D0BCF1020F4AD002EEE7
:10541000101A1068F8EE422AC0F3080081EEA22AA2
:1054200001EE900AF8EE611A40EE811A31EE800A20
:1054300022EE000A4BE0D3F800C01CF0200F1BD076
:105440001B6801EE901A1168C3F3C103F8EE612ADC
:10545000D84001EE900AC1F30800F8EE611A81EE1F
:10546000A22A01EE900AF8EE611A40EE811A31EE9E
:10547000800A22EE000A2AE001EE901A1068DFEDA1
:10548000252AF8EE611AC0F3080082EEA12A01EE87
:10549000900AF8EE611A40EE811A31EE800A22EE8F
:1054A000000A14E001EE901A1068DFED1B2AF8EEF6
:1054B000611AC0F3080082EEA12A01EE900AF8EE0C
:1054C000611A40EE811A31EE800A22EE000A10685D
:1054D00030BCC0F34620401C00EE900AF8EE600A93
:1054E00080EE201ABCEEC10A10EE100A70470000D0
:1054F000104402580090D0030044025840787D01C7
:1055000028440258344402580000003930440258FC
:105510000024744A0024744C20BCBE4B002804BFF5
:10552000012070472DE9F05F04460078DFF8F4832E
:10553000FD4F10F0010FFD4D58D0D8F8000039682C
:1055400000F03800102819D0182804BF01F003001B
:10555000022813D06068B0F5803F04BF286840F48B
:10556000803014D010B1B0F5A02F1BD0286820F4E3
:1055700080302860286820F4802008E0286810F433
:10558000003F33D06068002800F0E5822EE02860FC
:105590006068D0B1FCF746FF0646286810F4003F6B
:1055A00008D023E0286840F480202860286840F470
:1055B0008030ECE7FCF736FF801B642800F21B828A
:1055C000286810F4003FF5D010E0FCF72BFF0646EA
:1055D000286810F4003F09D0FCF724FF801B6428E2
:1055E00000F20982286810F4003FF5D1207841F2DA
:1055F0000309CF4E10F0020F7FD0D8F800003968B1
:1056000010F0380014D0182808BF11F0030F0FD085
:10561000E068D8B3296821F0190141EA0000286048
:10562000FCF700FF8246286810F0040F36D040E0F7
:10563000286810F0040F03D0E068002800F08B8287
:10564000E168286820F0190008432860FCF7EAFEAA
:105650008246286810F0040F0BD100BFFCF7E2FE71
:10566000A0EB0A00022800F2C681286810F0040F9F
:10567000F4D0FCF7D1FE484509D8206940281FD056
:10568000316821F47C3141EA00301EE01FE0207CCB
:10569000316821F0FE4141EA006016E0FCF7C2FEED
:1056A000A0EB0A00022800F2A681286810F0040F7F
:1056B000F4D0FCF7B1FE4845E9D820694028DFD195
:1056C000306820F47C3040F40030306015E0286809
:1056D00020F001002860FCF7A5FE8246286810F043
:1056E000040F0AD0FCF79EFEA0EB0A00022800F28D
:1056F0008281286810F0040FF4D1207810F0100F88
:105700006FD0D8F80000DFF82CB2396800F038000C
:10571000082814D0182804BF01F0030001280ED077
:10572000E0690028286848D040F080002860FCF735
:1057300079FE8246286810F4807F26D02FE0286802
:1057400010F4807F1CBFE069802840F00482FCF7E1
:1057500063FE48450ED8206A202805D0316821F024
:10576000F84141EA806026E0306820F0F84040F0DF
:10577000804020E094F82000DBF8001021F07C51FC
:1057800041EA0060CBF800002BE0FCF74BFEA0EBF9
:105790000A0002287AD8286810F4807FF5D0FCF738
:1057A0003BFE4845E6D8216A2029DDD0306820F04C
:1057B000F84040EA8160306013E020F0800028600B
:1057C000FCF730FE0646286810F4807F09D000BF41
:1057D000FCF728FE801B022858D8286810F4807F28
:1057E000F6D1207810F0080F34D0DFF84C916069C2
:1057F0000028D9F8000016D040F00100C9F80000D8
:10580000FCF710FE0646D9F8000010F0020F21D177
:10581000FCF708FE801B022838D8D9F8000010F0E9
:10582000020FF5D016E020F00100C9F80000FCF7E7
:10583000F9FD0646D9F8000010F0020F0AD000BFAB
:10584000FCF7F0FD801B022820D8D9F8000010F0EA
:10585000020FF5D1207810F0200F2CD0A06900287D
:10586000286814D040F480502860FCF7DBFD064621
:10587000286810F4005F1ED1FCF7D4FD801B0228BD
:1058800004D8286810F4005FF6D014E07FE020F41C
:1058900080502860FCF7C6FD0646286810F4005FBB
:1058A00009D000BFFCF7BEFD801B02286FD8286816
:1058B00010F4005FF6D1207810F0040F7AD0DFF8F2
:1058C0007C90D9F8000040F48070C9F80000FCF723
:1058D000A9FD0646D9F8000010F4807F0AD100BF68
:1058E000FCF7A0FD801B642851D8D9F8000010F403
:1058F000807FF5D0A068DFF84890012804BFD9F870
:10590000000040F001000CD008B1052829D0D9F8DA
:10591000000020F00100C9F80000D9F8000020F0D4
:1059200004000FE010440258284402580044025872
:10593000044402580C440258744402580048025867
:1059400070440258C9F8000041F2883AA068F8B1E2
:10595000FCF768FD0646D9F8000010F0020F0BD0E6
:1059600028E0D9F8000040F00400C9F80000D9F898
:10597000000040F00100D4E7FCF754FD801B5045C7
:1059800039D8D9F8000010F0020FF5D012E032E05B
:10599000FCF748FD0646D9F8000010F0020F09D0C8
:1059A000FCF740FD801B504525D8D9F8000010F0C9
:1059B000020FF5D1606A00287ED0DFF8E491D8F8B4
:1059C000001009F1040801F038011829A9F10406B2
:1059D00073D00228286820F0807028600ED0FCF771
:1059E00021FD0446286810F0007F65D0FCF71AFD01
:1059F000001B02287DD90320BDE8F09FFCF712FDB3
:105A00008246286810F0007F0AD000BFFCF70AFD2C
:105A1000A0EB0A000228EED8286810F0007FF5D12C
:105A2000E16A3868A26A20F0F30020F4407040EA8E
:105A300001101043386094F834004FF4FE0194F8DC
:105A40003C70238E0A024FEA402AB4F838C0781E10
:105A50005B1EAAF50077ACF1010C07F47E47C3F397
:105A600008033B4301EA0C41194302EA0060084382
:105A7000C9F80000306820F001003060D8F800005C
:105A8000A16C6FF3CF0040EAC100C8F80000316894
:105A9000206C21F00C01084330603068616C20F00C
:105AA000020008433060306840F480303060306875
:105AB00040F40030306001E06FE025E0306840F4F1
:105AC00080203060306840F001003060286840F08D
:105AD00080702860FCF7A6FC0446286810F0007F60
