:020000040800F2
:1000000078060024390300081D0F0008190F0008A6
:100010001B0F00083F040008E1100008000000006A
:10002000000000000000000000000000210F000898
:1000300041040008000000001F0F0008230F000803
:100040005303000853030008530300085303000838
:100050005303000853030008530300085303000828
:100060005303000853030008530300085303000818
:100070005303000853030008530300085303000808
:1000800053030008530300085303000853030008F8
:1000900053030008530300085303000853030008E8
:1000A00053030008530300085303000853030008D8
:1000B00053030008530300085303000853030008C8
:1000C00053030008530300085303000853030008B8
:1000D00053030008530300085303000853030008A8
:1000E00053030008530300080000000053030008F6
:1000F0005303000853030008530300085303000888
:100100005303000853030008530300085303000877
:100110005303000853030008530300085303000867
:100120005303000853030008530300085303000857
:100130005303000853030008530300085303000847
:1001400000000000000000000000000000000000AF
:100150005303000853030008530300085303000827
:100160005303000853030008530300085303000817
:100170005303000853030008530300085303000807
:1001800053030008530300085303000853030008F7
:1001900053030008530300085303000853030008E7
:1001A00053030008530300085303000853030008D7
:1001B00053030008530300085303000853030008C7
:1001C00053030008530300085303000853030008B7
:1001D00053030008530300085303000853030008A7
:1001E0005303000853030008530300085303000897
:1001F0005303000853030008530300085303000887
:100200005303000853030008530300085303000876
:100210005303000853030008530300085303000866
:1002200053030008530300085303000800000000B4
:1002300053030008530300080000000053030008A4
:100240005303000853030008530300085303000836
:100250005303000853030008530300085303000826
:100260005303000853030008530300085303000816
:100270005303000853030008530300080000000064
:100280005303000853030008530300080000000054
:10029000000000005303000800F002F800F03CF8F2
:1002A0000AA090E8000C82448344AAF10107DA45D1
:1002B00001D100F031F8AFF2090EBAE80F0013F0E7
:1002C000010F18BFFB1A43F0010318475C0E000032
:1002D0007C0E0000103A24BF78C878C1FAD85207C3
:1002E00024BF30C830C144BF04680C6070470000B0
:1002F0000023002400250026103A28BF78C1FBD82F
:10030000520728BF30C148BF0B6070471FB500F0CF
:10031000FEFE1FBD10B510BD00F058F81146FFF7E6
:10032000F5FF00F0EFFE00F076F803B4FFF7F2FF00
:1003300003BC00F07DF800000948804709480047E9
:10034000FEE7FEE7FEE7FEE7FEE7FEE7FEE7FEE785
:10035000FEE7FEE704480549054A064B70470000E2
:10036000051000089902000878000024780600248F
:1003700078020024780200244FF0000200B51346F2
:1003800094469646203922BFA0E80C50A0E80C50B5
:10039000B1F12001BFF4F7AF090728BFA0E80C5066
:1003A00048BF0CC05DF804EB890028BF40F8042B5F
:1003B00008BF704748BF20F8022B11F0804F18BFCC
:1003C00000F8012B7047704770477047754600F082
:1003D0002BF8AE4605006946534620F007008546D7
:1003E00018B020B5FFF7B6FFBDE820404FF000067B
:1003F0004FF000074FF000084FF0000B21F007010D
:10040000AC46ACE8C009ACE8C009ACE8C009ACE84F
:10041000C0098D46704710B50446AFF300802046F2
:10042000BDE81040FFF781BF00487047140000246A
:1004300001491820ABBEFEE7260002007047FEE728
:100440007047000001480068000C70470010005C15
:10045000014880687047000000000024024881685D
:10046000027811448160704700000024032010B519
:1004700000F078F800F0E0F90F4A104914681368AA
:10048000C4F3032203F00F038A5CC95C02F01F026D
:1004900001F01F01D0400A4A20FA01F11160094918
:1004A00008600F2000F010F808B1012010BD00F026
:1004B0002BF8002010BD0000184402581811000845
:1004C000100000240C00002470B50D4D044628785F
:1004D000A0B14FF47A71B1FBF0F00A490968B1FBA1
:1004E000F0F000F006FD48B9102C07D2002221469A
:1004F000501E00F017F800206C6070BD012070BD28
:10050000000000240C000024054808B5016841F0F3
:1005100002010160006800F00200009008BD0000C8
:10052000F44402580E4BF0B41B680D46C3F302238B
:10053000C3F10706042E00D90426191D072901D28C
:10054000002300E0DB1E012404FA06F19C40491E52
:100550002940641E994014402143F0BC00F0C1BD05
:100560000CED00E0064900F0070210B54FF6FF045D
:100570000868044B204040EA02201843086010BD80
:100580000CED00E00000FA05134970B50A68D2438B
:10059000520705D5096801F00701814213D118E01F
:1005A0000A6822F0070202430A60FFF751FF0A4D72
:1005B0004FF47A760446083D07E000BFFFF748FF96
:1005C000001BB04201D9012070BD2868C0438004DF
:1005D000F4D4002070BD00000C4802582DE9F05FF3
:1005E00004000F467ED0DFF83882D8F8000000F013
:1005F0000F00B8420CD2D8F8001021F00F01394397
:10060000C8F80010D8F8000000F00F00B84269D117
:100610002078844D40070AD52069296801F07001CF
:10062000884204D9296821F07001014329602078AB
:100630007C4E361D00070AD56069316801F07001F3
:10064000884204D9316821F070010143316020787B
:10065000C0060AD5A069316801F4E061884204D976
:10066000316821F4E061014331602078DFF8B4B1F2
:1006700080060BF1080B0CD5E1695846DBF8002029
:1006800002F07002914204D9026822F070020A431B
:100690000260207880070AD5E068296801F00F0120
:1006A000884204D9296821F00F010143296020788C
:1006B000C0073ED05B49A2682868183920F47060F2
:1006C000104328606068022818D0032819D00968F0
:1006D000012819D0490700294ADADFF848A1AAF110
:1006E000080A00E044E0DAF8002022F007020243A2
:1006F000CAF80020FFF7ACFE814612E009688903C2
:10070000E9E709688901E6E7C905E4E7FFF7A0FE24
:10071000A0EB090141F28830814202D90320BDE8F3
:10072000F09F6168DAF8000000F03800B0EBC10F0C
:10073000ECD1207880070AD5E068296801F00F0124
:10074000884204D2296821F00F0101432960D8F8BA
:100750000010404601F00F01B9420BD9016821F0A9
:100760000F0139430160006800F00F00B84201D06A
:100770000120D4E7207840070AD52069296801F0D4
:100780007001884204D2296821F070010143296078
:10079000207800070AD56069316801F0700188424D
:1007A00004D2316821F07001014331602078C00625
:1007B0000AD5A069316801F4E061884204D2316849
:1007C00021F4E06101433160207880060CD5E169B5
:1007D0005846DBF8002002F07002914204D2026811
:1007E00022F070020A43026000F026F80E492A68DF
:1007F0002B68C2F3032203F00F038A5CC95C02F08A
:100800001F0201F01F01D040084A20FA01F11160D7
:100810000749086007480068BDE8F05FFFF754BE6D
:10082000002000521844025818110008100000243B
:100830000C00002404000024454970B545480968AF
:10084000434B103B11F0380208D00111082A03D0A5
:10085000102A0BD0182A0BD0084670BD19688906DB
:10086000FBD51968C1F3C101C84070BD3A4870BDDD
:100870003749374D18310C1D24350A680968266838
:100880002D6802F0030406F00102C1F30511C5F35F
:10089000CC0515FB02F200EE102AB8EE400AE9B3CF
:1008A0002F4ADFED2E0AB7EE001A6CB1DFED2D1ADC
:1008B000012C01D0022C43D002EE101A1068F8EE81
:1008C000422A81EEA22A1EE01C68A40611D51B68EC
:1008D00001EE901A1168C3F3C103F8EE612AD84003
:1008E00001EE900AC1F30800F8EE611A81EEA22A27
:1008F0000BE001EE901ADFED1C2A00BFF8EE611A42
:10090000106882EEA12AC0F3080001EE900AF8EE0A
:10091000611A40EE201A31EE810A00E015E022EE65
:10092000000A1068C0F34620401C00EE900AF8EE62
:10093000600A80EE201ABCEEC10A10EE100A70BDEB
:1009400001EE901ADFED092AD8E7002070BD000003
:10095000104402580090D00340787D010000003917
:10096000304402580024744A0024744C20BCBE4B0E
:100970002DE9F05F04007DD0FF4F2078FE4D183741
:10098000DFF8F493103DC00748D0D9F8000039686B
:1009900000F03800102815D0182803D101F003000A
:1009A00002280FD06068B0F5803F12D010B1B0F5CA
:1009B000A02F18D0286820F480302860286820F400
:1009C000802009E02868800328D560680028D2D0FC
:1009D00024E0286840F480302860606888B1FFF720
:1009E00037FD064609E0286840F480202860F0E7DB
:1009F000FFF72EFD801B64286FD828688003F7D589
:100A00000CE0FFF725FD064605E000BFFFF720FDDF
:100A1000801B6428F0D828688003F7D4207841F23E
:100A20000308D54E0C3E800769D5D9F80000396817
:100A300010F038000ED0182801D188070AD0E068DD
:100A400090B3296821F0190101432960FFF700FDE7
:100A5000824631E02868400702D5E06800288AD045
:100A6000E168286820F0190008432860FFF7F0FCCF
:100A7000824607E0DFE000BFFFF7EAFCA0EB0A00D8
:100A80000228B9D828684007F6D500BFFFF7DAFC7E
:100A900040451BD82069402812D0316821F47C31B0
:100AA00041EA003030602AE018E000BFFFF7D0FCD8
:100AB000A0EB0A0002289FD828684007F6D5E5E792
:100AC000306820F47C3040F40030EBE7207C316863
:100AD00021F0FE4141EA0060E4E70DE1286820F0E2
:100AE00001002860FFF7B4FC824605E0FFF7B0FC88
:100AF000A0EB0A0002288DD828684007F6D4207899
:100B0000C0065DD5D9F80000DFF86CB2396800F096
:100B10003800ABF1040B082810D0182803D101F0DD
:100B2000030001280AD0E0690028286838D040F086
:100B300080002860FFF78CFC824623E02868C0050F
:100B400023D5E069802876D11FE0206A202821D0B3
:100B5000316821F0F84141EA8060306030E000BF48
:100B600094F82010DBF8002022F07C5242EA016168
:100B7000CBF8001024E000BFFFF76AFCA0EB0A00EE
:100B8000022898D82868C005F6D5FFF75BFC4045D9
:100B9000E6D8DAE7306820F0F84040F08040DCE743
:100BA00020F080002860FFF753FC064605E000BFF8
:100BB000FFF74EFC801B02289DD82868C005F7D49B
:100BC0002078000729D56C48616964300029804687
:100BD000016811D041F001010160FFF739FC0646C0
:100BE00005E000BFFFF734FC801B0228C9D8D8F805
:100BF00000008007F6D510E021F001010160FFF749
:100C000027FC064605E000BFFFF722FC801B0228F8
:100C100072D8D8F800008007F6D42078800623D553
:100C2000A0690028286810D040F480502860FFF7A1
:100C30000FFC064605E036E1FFF70AFC801B0228A0
:100C40005AD828688004F7D50EE020F48050286038
:100C5000FFF7FEFB064604E0FFF7FAFB801B0228C5
:100C60004AD828688004F7D4207840074FD5DFF8A9
:100C70000C81D8F8001041F48071C8F80010FFF71B
:100C8000E7FB064605E000BFFFF7E2FB801B642898
:100C900032D8D8F80000C005F6D5374EA0686036C7
:100CA00001280AD008B1052813D0306820F00100CF
:100CB0003060306820F0040002E0306840F001004D
:100CC0003060A06841F2883A90B1FFF7C1FB8046DE
:100CD0000AE0306840F004003060EEE7FFF7B8FB50
:100CE000A0EB0801514507D830688007F6D50EE023
:100CF000FFF7AEFB804607E084E000BFFFF7A8FBEC
:100D0000A0EB080151457DD830688007F6D4606AB1
:100D1000B0B3DFF86480D9F8001008F120084FF66E
:100D2000F87B08F10409C1F3C2010329A8F1040A00
:100D300069D00228286820F08070286003D0FFF76F
:100D400087FB044684E0FFF783FB064605E000BF0F
:100D5000FFF77EFB801B022877D828688001F7D434
:100D6000E26A40F2F331386854F8283F884340EA99
:100D700002101843386004E010440258004802583A
:100D8000B5E0217B434622894FF4FE0C208A4FF0C8
:100D9000FE474902267D521E401EA1F50071C2F396
:100DA00008088AB2761E0CEA004042EA08020243B2
:100DB000504607EA06610A431A60DAF8002022F07A
:100DC0000102CAF80020D9F80020266A22EA0B02A4
:100DD00042EAC602C9F80020DAF80010A26921F040
:100DE0000C011143CAF800100168E26921F0020108
:100DF00011430160016841F480310160016841F4F0
:100E0000003101E021E027E00160016841F4802128
:100E10000160016841F001010160286840F08070C4
:100E20002860FFF715FB044605E000BFFFF710FB45
:100E3000001B022809D828688001F7D557E000BFB9
:100E4000FFF706FB001B022802D90320BDE8F09F34
:100E500028688001F4D44AE039680128D8F80000F5
:100E600021D0A26A01F0030393421CD1E26AC1F3CC
:100E700005118A4217D1216BC0F30802491E8A422C
:100E800011D1616BC0F34622491E91420BD1A16B77
:100E9000C0F30642491E914205D1E16BC0F30660E2
:100EA000491E814201D00120D0E7A16C4E46D9F8FD
:100EB0000000C0F3CC00814219D0DAF8000055469A
:100EC00020F00100CAF80000FFF7C2FA4FEA00075D
:100ED000FFF7BEFAB842FBD0A26C306820EA0B00E4
:100EE00040EAC2003060286840F00100286000201D
:100EF000ACE7401EB0F1807F10B501D3012010BDDA
:100F00004FF0E02460610F21601700F0EAF8002044
:100F1000A0610721216110BDFEE7FEE7FEE77047F3
:100F20007047FFF79BBA000030B59DB04C21684672
:100F3000FFF722FA202113A8FFF71EFA0220FFF77D
:100F400023FB2D4900242D480A6822F001020A6083
:100F50000A68026842F440420260026802F44042B9
:100F60001B9202689204FCD5254A136843F00203E1
:100F70001360126802F002021B92026842F44042BF
:100F8000026002680A6842F001020A60096801F022
:100F900001011B9101688904FCD5022000904025C5
:100FA00004950121039104220B923C23CDE909040D
:100FB000CDE90C300FAB0E900C2183E8130068468E
:100FC0001294FFF7D5FC08B172B6FEE708221A9515
:100FD000CDE91625D30113AA3F200321CDE91853EB
:100FE00082E81300042113A8FFF7F8FA002801D0C3
:100FF00072B6FEE71DB030BD2C04005818480258E8
:10100000F44402582C48F0B52C4A016841F47001B0
:101010000160106800F00F00072804D2106820F06B
:101020000F00C01D106026490020254C10340B68AD
:10103000244D43F001030B6020600B682B400B60D4
:10104000136803F00F03072B04D9136823F00F0371
:10105000DB1D13601A4C1C4A18341C4B261D371D0F
:101060002060174C1A4D28343060261D3860371D1B
:1010700023603B1D35601C1D3A60251D2E1D186028
:10108000331D22602860326018600A680C4B114CD6
:1010900022F4802260330A60186020686FF30F002A
:1010A000B0F1005F03D20C490120C1F8080143F2FE
:1010B000D2000A490860F0BD88ED00E0002000522F
:1010C000004402587FEDF6EA8002010100020202AC
:1010D0000000FF010010005C008000510040005241
:1010E000FEE7090700284FEA116104DB00F1E02068
:1010F00080F80014704700F00F0000F1E02080F845
:10110000141D7047FFF7B2F9FFF70EFFFEE74FF02F
:101110004070E1EE100A7047000000000102030475
:101120000102030406070809481100080000002412
:1011300014000000D40200085C1100081400002410
:1011400064060000F002000801000000100000002A
:0C115000000000000090D0030090D003CD
:040000050800029954
:00000001FF
